{
  "contractName": "ERC20Factory",
  "abi": [
    {
      "inputs": [
        {
          "internalType": "address",
          "name": "_template",
          "type": "address"
        },
        {
          "internalType": "address",
          "name": "_collector",
          "type": "address"
        }
      ],
      "stateMutability": "nonpayable",
      "type": "constructor"
    },
    {
      "anonymous": false,
      "inputs": [
        {
          "indexed": false,
          "internalType": "address",
          "name": "instance",
          "type": "address"
        }
      ],
      "name": "InstanceDeployed",
      "type": "event"
    },
    {
      "anonymous": false,
      "inputs": [
        {
          "indexed": true,
          "internalType": "address",
          "name": "newTokenAddress",
          "type": "address"
        },
        {
          "indexed": true,
          "internalType": "address",
          "name": "templateAddress",
          "type": "address"
        },
        {
          "indexed": true,
          "internalType": "string",
          "name": "tokenName",
          "type": "string"
        }
      ],
      "name": "TokenCreated",
      "type": "event"
    },
    {
      "anonymous": false,
      "inputs": [
        {
          "indexed": true,
          "internalType": "address",
          "name": "tokenAddress",
          "type": "address"
        },
        {
          "indexed": false,
          "internalType": "string",
          "name": "tokenName",
          "type": "string"
        },
        {
          "indexed": false,
          "internalType": "string",
          "name": "tokenSymbol",
          "type": "string"
        },
        {
          "indexed": false,
          "internalType": "uint256",
          "name": "tokenCap",
          "type": "uint256"
        },
        {
          "indexed": true,
          "internalType": "address",
          "name": "registeredBy",
          "type": "address"
        },
        {
          "indexed": true,
          "internalType": "string",
          "name": "blob",
          "type": "string"
        }
      ],
      "name": "TokenRegistered",
      "type": "event"
    },
    {
      "inputs": [],
      "name": "MINTER_ROLE",
      "outputs": [
        {
          "internalType": "bytes32",
          "name": "",
          "type": "bytes32"
        }
      ],
      "stateMutability": "view",
      "type": "function"
    },
    {
      "inputs": [
        {
          "internalType": "string",
          "name": "blob",
          "type": "string"
        },
        {
          "internalType": "string",
          "name": "name",
          "type": "string"
        },
        {
          "internalType": "string",
          "name": "symbol",
          "type": "string"
        },
        {
          "internalType": "uint256",
          "name": "cap",
          "type": "uint256"
        },
        {
          "internalType": "address",
          "name": "from",
          "type": "address"
        }
      ],
      "name": "createToken",
      "outputs": [
        {
          "internalType": "address",
          "name": "token",
          "type": "address"
        }
      ],
      "stateMutability": "nonpayable",
      "type": "function"
    },
    {
      "inputs": [],
      "name": "getCurrentTokenCount",
      "outputs": [
        {
          "internalType": "uint256",
          "name": "",
          "type": "uint256"
        }
      ],
      "stateMutability": "view",
      "type": "function"
    },
    {
      "inputs": [],
      "name": "getTokenTemplate",
      "outputs": [
        {
          "internalType": "address",
          "name": "",
          "type": "address"
        }
      ],
      "stateMutability": "view",
      "type": "function"
    }
  ],
  "bytecode": "0x6080604052600160025534801561001557600080fd5b50604051610ed2380380610ed28339818101604052604081101561003857600080fd5b810190808051906020019092919080519060200190929190505050600073ffffffffffffffffffffffffffffffffffffffff168273ffffffffffffffffffffffffffffffffffffffff16141580156100bd5750600073ffffffffffffffffffffffffffffffffffffffff168173ffffffffffffffffffffffffffffffffffffffff1614155b610112576040517f08c379a0000000000000000000000000000000000000000000000000000000008152600401808060200182810382526041815260200180610e916041913960600191505060405180910390fd5b816000806101000a81548173ffffffffffffffffffffffffffffffffffffffff021916908373ffffffffffffffffffffffffffffffffffffffff16021790555080600160006101000a81548173ffffffffffffffffffffffffffffffffffffffff021916908373ffffffffffffffffffffffffffffffffffffffff1602179055505050610ced806101a46000396000f3fe608060405234801561001057600080fd5b506004361061004c5760003560e01c8063490aad76146100515780638aea86791461009b578063c6cf868a146102ee578063d53913931461030c575b600080fd5b61005961032a565b604051808273ffffffffffffffffffffffffffffffffffffffff1673ffffffffffffffffffffffffffffffffffffffff16815260200191505060405180910390f35b6102ac600480360360a08110156100b157600080fd5b81019080803590602001906401000000008111156100ce57600080fd5b8201836020820111156100e057600080fd5b8035906020019184600183028401116401000000008311171561010257600080fd5b91908080601f016020809104026020016040519081016040528093929190818152602001838380828437600081840152601f19601f8201169050808301925050505050505091929192908035906020019064010000000081111561016557600080fd5b82018360208201111561017757600080fd5b8035906020019184600183028401116401000000008311171561019957600080fd5b91908080601f016020809104026020016040519081016040528093929190818152602001838380828437600081840152601f19601f820116905080830192505050505050509192919290803590602001906401000000008111156101fc57600080fd5b82018360208201111561020e57600080fd5b8035906020019184600183028401116401000000008311171561023057600080fd5b91908080601f016020809104026020016040519081016040528093929190818152602001838380828437600081840152601f19601f82011690508083019250505050505050919291929080359060200190929190803573ffffffffffffffffffffffffffffffffffffffff169060200190929190505050610353565b604051808273ffffffffffffffffffffffffffffffffffffffff1673ffffffffffffffffffffffffffffffffffffffff16815260200191505060405180910390f35b6102f6610b1d565b6040518082815260200191505060405180910390f35b610314610b27565b6040518082815260200191505060405180910390f35b60008060009054906101000a900473ffffffffffffffffffffffffffffffffffffffff16905090565b6000808314156103ae576040517f08c379a0000000000000000000000000000000000000000000000000000000008152600401808060200182810382526022815260200180610c5c6022913960400191505060405180910390fd5b6103d86000809054906101000a900473ffffffffffffffffffffffffffffffffffffffff16610b60565b9050600073ffffffffffffffffffffffffffffffffffffffff168173ffffffffffffffffffffffffffffffffffffffff161415610460576040517f08c379a000000000000000000000000000000000000000000000000000000000815260040180806020018281038252603a815260200180610c7e603a913960400191505060405180910390fd5b600081905060003390508073ffffffffffffffffffffffffffffffffffffffff166391d1485460405180807f4d494e5445525f524f4c45000000000000000000000000000000000000000000815250600b0190506040518091039020866040518363ffffffff1660e01b8152600401808381526020018273ffffffffffffffffffffffffffffffffffffffff1673ffffffffffffffffffffffffffffffffffffffff1681526020019250505060206040518083038186803b15801561052457600080fd5b505afa158015610538573d6000803e3d6000fd5b505050506040513d602081101561054e57600080fd5b81019080805190602001909291905050506105d1576040517f08c379a000000000000000000000000000000000000000000000000000000000815260040180806020018281038252600f8152602001807f4e4f54204d494e5445525f524f4c45000000000000000000000000000000000081525060200191505060405180910390fd5b8173ffffffffffffffffffffffffffffffffffffffff16639070d2f8888887898d600160009054906101000a900473ffffffffffffffffffffffffffffffffffffffff166040518763ffffffff1660e01b81526004018080602001806020018773ffffffffffffffffffffffffffffffffffffffff1673ffffffffffffffffffffffffffffffffffffffff168152602001868152602001806020018573ffffffffffffffffffffffffffffffffffffffff1673ffffffffffffffffffffffffffffffffffffffff16815260200184810384528a818151815260200191508051906020019080838360005b838110156106d65780820151818401526020810190506106bb565b50505050905090810190601f1680156107035780820380516001836020036101000a031916815260200191505b50848103835289818151815260200191508051906020019080838360005b8381101561073c578082015181840152602081019050610721565b50505050905090810190601f1680156107695780820380516001836020036101000a031916815260200191505b50848103825286818151815260200191508051906020019080838360005b838110156107a2578082015181840152602081019050610787565b50505050905090810190601f1680156107cf5780820380516001836020036101000a031916815260200191505b509950505050505050505050602060405180830381600087803b1580156107f557600080fd5b505af1158015610809573d6000803e3d6000fd5b505050506040513d602081101561081f57600080fd5b8101908080519060200190929190505050610885576040517f08c379a000000000000000000000000000000000000000000000000000000000815260040180806020018281038252602e815260200180610c2e602e913960400191505060405180910390fd5b866040518082805190602001908083835b602083106108b95780518252602082019150602081019050602083039250610896565b6001836020036101000a03801982511681845116808217855250505050505090500191505060405180910390206000809054906101000a900473ffffffffffffffffffffffffffffffffffffffff1673ffffffffffffffffffffffffffffffffffffffff168473ffffffffffffffffffffffffffffffffffffffff167fb51c8cbe199ffe8b0d1d39b62d473569750653cb18b165f77ae423b3900180ad60405160405180910390a4876040518082805190602001908083835b602083106109955780518252602082019150602081019050602083039250610972565b6001836020036101000a03801982511681845116808217855250505050505090500191505060405180910390208473ffffffffffffffffffffffffffffffffffffffff168473ffffffffffffffffffffffffffffffffffffffff167f437e99a69c634128e67a85656b80d03b028ba37525b15070606e5c28e846984a8a8a8a604051808060200180602001848152602001838103835286818151815260200191508051906020019080838360005b83811015610a5e578082015181840152602081019050610a43565b50505050905090810190601f168015610a8b5780820380516001836020036101000a031916815260200191505b50838103825285818151815260200191508051906020019080838360005b83811015610ac4578082015181840152602081019050610aa9565b50505050905090810190601f168015610af15780820380516001836020036101000a031916815260200191505b509550505050505060405180910390a46001600260008282540192505081905550505095945050505050565b6000600254905090565b60405180807f4d494e5445525f524f4c45000000000000000000000000000000000000000000815250600b019050604051809103902081565b6000808260601b90506040517f3d602d80600a3d3981f3363d3d373d3d3d363d7300000000000000000000000081528160148201527f5af43d82803e903d91602b57fd5bf3000000000000000000000000000000000060288201526037816000f09250507f117c72e6c25f0a072e36e148df71468ce2f3dbe7defec5b2c257a6e3eb65278c82604051808273ffffffffffffffffffffffffffffffffffffffff1673ffffffffffffffffffffffffffffffffffffffff16815260200191505060405180910390a15091905056fe4454466163746f72793a20556e61626c6520746f20696e697469616c697a6520746f6b656e20696e7374616e63654454466163746f72793a207a65726f20636170206973206e6f7420616c6c6f7765644454466163746f72793a204661696c656420746f20706572666f726d206d696e696d616c206465706c6f79206f662061206e657720746f6b656ea264697066735822122046fdf1c52a69ffa504568ec9fdc6114b7adb02047ccac83ad4ee3291664c34da64736f6c634300060600334454466163746f72793a20496e76616c69642074656d706c61746520746f6b656e2f636f6d6d756e6974792066656520636f6c6c6563746f722061646472657373",
  "immutableReferences": {},
  "source": "pragma solidity >=0.6.0;\n// Copyright BigchainDB GmbH and Ocean Protocol contributors\n// SPDX-License-Identifier: (Apache-2.0 AND CC-BY-4.0)\n// Code is Apache-2.0 and docs are CC-BY-4.0\n\nimport './utils/Deployer.sol';\nimport './interfaces/IERC20Template.sol';\nimport './interfaces/IERC721Template.sol';\n/**\n * @title DTFactory contract\n * @author Ocean Protocol Team\n *\n * @dev Implementation of Ocean DataTokens Factory\n *\n *      DTFactory deploys DataToken proxy contracts.\n *      New DataToken proxy contracts are links to the template contract's bytecode.\n *      Proxy contract functionality is based on Ocean Protocol custom implementation of ERC1167 standard.\n */\ncontract ERC20Factory is Deployer {\n    address private tokenTemplate;\n    address private communityFeeCollector;\n    uint256 private currentTokenCount = 1;\n    bytes32 public constant MINTER_ROLE = keccak256(\"MINTER_ROLE\");\n    \n    event TokenCreated(\n        address indexed newTokenAddress,\n        address indexed templateAddress,\n        string indexed tokenName\n    );\n\n    event TokenRegistered(\n        address indexed tokenAddress,\n        string tokenName,\n        string tokenSymbol,\n        uint256 tokenCap,\n        address indexed registeredBy,\n        string indexed blob\n    );\n\n    /**\n     * @dev constructor\n     *      Called on contract deployment. Could not be called with zero address parameters.\n     * @param _template refers to the address of a deployed DataToken contract.\n     * @param _collector refers to the community fee collector address\n     */\n    constructor(\n        address _template,\n        address _collector\n    ) public {\n        require(\n            _template != address(0) &&\n            _collector != address(0),\n            'DTFactory: Invalid template token/community fee collector address'\n        );\n        tokenTemplate = _template;\n        communityFeeCollector = _collector;\n    }\n\n    /**\n     * @dev Deploys new DataToken proxy contract.\n     *      Template contract address could not be a zero address.\n     * @param blob any string that hold data/metadata for the new token\n     * @param name token name\n     * @param symbol token symbol\n     * @param cap the maximum total supply\n     * @return token address of a new proxy DataToken contract\n     */\n    function createToken(\n        string memory blob,\n        string memory name,\n        string memory symbol,\n        uint256 cap,\n        address from\n    )\n        public\n        returns (address token)\n    {\n        require(\n            cap != 0,\n            'DTFactory: zero cap is not allowed'\n        );\n\n        token = deploy(tokenTemplate);\n\n        require(\n            token != address(0),\n            'DTFactory: Failed to perform minimal deploy of a new token'\n        );\n        IERC20Template tokenInstance = IERC20Template(token);\n        IERC721Template erc721Instance = IERC721Template(msg.sender);\n        require(erc721Instance.hasRole(MINTER_ROLE, from), \"NOT MINTER_ROLE\");\n        require(\n            tokenInstance.initialize(\n                name,\n                symbol,\n                from,\n                cap,\n                blob,\n                communityFeeCollector\n            ),\n            'DTFactory: Unable to initialize token instance'\n        );\n        emit TokenCreated(token, tokenTemplate, name);\n        emit TokenRegistered(\n            token,\n            name,\n            symbol,\n            cap,\n            from,\n            blob\n        );\n        currentTokenCount += 1;\n    }\n\n    /**\n     * @dev get the current token count.\n     * @return the current token count\n     */\n    function getCurrentTokenCount() external view returns (uint256) {\n        return currentTokenCount;\n    }\n\n    /**\n     * @dev get the token template address\n     * @return the template address\n     */\n    function getTokenTemplate() external view returns (address) {\n        return tokenTemplate;\n    }\n}\n",
  "sourcePath": "/home/andrea/ocean/v4/contracts/ERC20Factory.sol",
  "compiler": {
    "name": "solc",
    "version": "0.6.6+commit.6c089d02.Emscripten.clang"
  },
  "schemaVersion": "3.2.4",
  "updatedAt": "2021-04-19T23:26:49.362Z",
  "devdoc": {
    "author": "Ocean Protocol Team",
    "details": "Implementation of Ocean DataTokens Factory *      DTFactory deploys DataToken proxy contracts.     New DataToken proxy contracts are links to the template contract's bytecode.     Proxy contract functionality is based on Ocean Protocol custom implementation of ERC1167 standard.",
    "methods": {
      "constructor": {
        "details": "constructor     Called on contract deployment. Could not be called with zero address parameters.",
        "params": {
          "_collector": "refers to the community fee collector address",
          "_template": "refers to the address of a deployed DataToken contract."
        }
      },
      "createToken(string,string,string,uint256,address)": {
        "details": "Deploys new DataToken proxy contract.     Template contract address could not be a zero address.",
        "params": {
          "blob": "any string that hold data/metadata for the new token",
          "cap": "the maximum total supply",
          "name": "token name",
          "symbol": "token symbol"
        },
        "returns": {
          "token": "address of a new proxy DataToken contract"
        }
      },
      "getCurrentTokenCount()": {
        "details": "get the current token count.",
        "returns": {
          "_0": "the current token count"
        }
      },
      "getTokenTemplate()": {
        "details": "get the token template address",
        "returns": {
          "_0": "the template address"
        }
      }
    },
    "title": "DTFactory contract"
  },
  "userdoc": {
    "methods": {}
  }
}