{
  "contractName": "ERC20Template",
  "abi": [
    {
      "inputs": [
        {
          "internalType": "string",
          "name": "name",
          "type": "string"
        },
        {
          "internalType": "string",
          "name": "symbol",
          "type": "string"
        },
        {
          "internalType": "address",
          "name": "minterAddress",
          "type": "address"
        },
        {
          "internalType": "uint256",
          "name": "cap",
          "type": "uint256"
        },
        {
          "internalType": "string",
          "name": "blob",
          "type": "string"
        },
        {
          "internalType": "address",
          "name": "feeCollector",
          "type": "address"
        }
      ],
      "stateMutability": "nonpayable",
      "type": "constructor"
    },
    {
      "anonymous": false,
      "inputs": [
        {
          "indexed": true,
          "internalType": "address",
          "name": "owner",
          "type": "address"
        },
        {
          "indexed": true,
          "internalType": "address",
          "name": "spender",
          "type": "address"
        },
        {
          "indexed": false,
          "internalType": "uint256",
          "name": "value",
          "type": "uint256"
        }
      ],
      "name": "Approval",
      "type": "event"
    },
    {
      "anonymous": false,
      "inputs": [
        {
          "indexed": false,
          "internalType": "address",
          "name": "currentMinter",
          "type": "address"
        },
        {
          "indexed": false,
          "internalType": "address",
          "name": "newMinter",
          "type": "address"
        }
      ],
      "name": "MinterApproved",
      "type": "event"
    },
    {
      "anonymous": false,
      "inputs": [
        {
          "indexed": false,
          "internalType": "address",
          "name": "currentMinter",
          "type": "address"
        },
        {
          "indexed": false,
          "internalType": "address",
          "name": "newMinter",
          "type": "address"
        }
      ],
      "name": "MinterProposed",
      "type": "event"
    },
    {
      "anonymous": false,
      "inputs": [
        {
          "indexed": false,
          "internalType": "bytes32",
          "name": "orderTxId",
          "type": "bytes32"
        },
        {
          "indexed": true,
          "internalType": "address",
          "name": "consumer",
          "type": "address"
        },
        {
          "indexed": false,
          "internalType": "uint256",
          "name": "amount",
          "type": "uint256"
        },
        {
          "indexed": false,
          "internalType": "uint256",
          "name": "serviceId",
          "type": "uint256"
        },
        {
          "indexed": true,
          "internalType": "address",
          "name": "provider",
          "type": "address"
        },
        {
          "indexed": false,
          "internalType": "uint256",
          "name": "timestamp",
          "type": "uint256"
        }
      ],
      "name": "OrderFinished",
      "type": "event"
    },
    {
      "anonymous": false,
      "inputs": [
        {
          "indexed": true,
          "internalType": "address",
          "name": "consumer",
          "type": "address"
        },
        {
          "indexed": true,
          "internalType": "address",
          "name": "payer",
          "type": "address"
        },
        {
          "indexed": false,
          "internalType": "uint256",
          "name": "amount",
          "type": "uint256"
        },
        {
          "indexed": false,
          "internalType": "uint256",
          "name": "serviceId",
          "type": "uint256"
        },
        {
          "indexed": false,
          "internalType": "uint256",
          "name": "timestamp",
          "type": "uint256"
        },
        {
          "indexed": true,
          "internalType": "address",
          "name": "mrktFeeCollector",
          "type": "address"
        },
        {
          "indexed": false,
          "internalType": "uint256",
          "name": "marketFee",
          "type": "uint256"
        }
      ],
      "name": "OrderStarted",
      "type": "event"
    },
    {
      "anonymous": false,
      "inputs": [
        {
          "indexed": true,
          "internalType": "address",
          "name": "from",
          "type": "address"
        },
        {
          "indexed": true,
          "internalType": "address",
          "name": "to",
          "type": "address"
        },
        {
          "indexed": false,
          "internalType": "uint256",
          "name": "value",
          "type": "uint256"
        }
      ],
      "name": "Transfer",
      "type": "event"
    },
    {
      "inputs": [],
      "name": "BASE",
      "outputs": [
        {
          "internalType": "uint256",
          "name": "",
          "type": "uint256"
        }
      ],
      "stateMutability": "view",
      "type": "function"
    },
    {
      "inputs": [],
      "name": "BASE_COMMUNITY_FEE_PERCENTAGE",
      "outputs": [
        {
          "internalType": "uint256",
          "name": "",
          "type": "uint256"
        }
      ],
      "stateMutability": "view",
      "type": "function"
    },
    {
      "inputs": [],
      "name": "BASE_MARKET_FEE_PERCENTAGE",
      "outputs": [
        {
          "internalType": "uint256",
          "name": "",
          "type": "uint256"
        }
      ],
      "stateMutability": "view",
      "type": "function"
    },
    {
      "inputs": [
        {
          "internalType": "address",
          "name": "owner",
          "type": "address"
        },
        {
          "internalType": "address",
          "name": "spender",
          "type": "address"
        }
      ],
      "name": "allowance",
      "outputs": [
        {
          "internalType": "uint256",
          "name": "",
          "type": "uint256"
        }
      ],
      "stateMutability": "view",
      "type": "function"
    },
    {
      "inputs": [
        {
          "internalType": "address",
          "name": "spender",
          "type": "address"
        },
        {
          "internalType": "uint256",
          "name": "amount",
          "type": "uint256"
        }
      ],
      "name": "approve",
      "outputs": [
        {
          "internalType": "bool",
          "name": "",
          "type": "bool"
        }
      ],
      "stateMutability": "nonpayable",
      "type": "function"
    },
    {
      "inputs": [
        {
          "internalType": "address",
          "name": "account",
          "type": "address"
        }
      ],
      "name": "balanceOf",
      "outputs": [
        {
          "internalType": "uint256",
          "name": "",
          "type": "uint256"
        }
      ],
      "stateMutability": "view",
      "type": "function"
    },
    {
      "inputs": [
        {
          "internalType": "address",
          "name": "spender",
          "type": "address"
        },
        {
          "internalType": "uint256",
          "name": "subtractedValue",
          "type": "uint256"
        }
      ],
      "name": "decreaseAllowance",
      "outputs": [
        {
          "internalType": "bool",
          "name": "",
          "type": "bool"
        }
      ],
      "stateMutability": "nonpayable",
      "type": "function"
    },
    {
      "inputs": [
        {
          "internalType": "address",
          "name": "spender",
          "type": "address"
        },
        {
          "internalType": "uint256",
          "name": "addedValue",
          "type": "uint256"
        }
      ],
      "name": "increaseAllowance",
      "outputs": [
        {
          "internalType": "bool",
          "name": "",
          "type": "bool"
        }
      ],
      "stateMutability": "nonpayable",
      "type": "function"
    },
    {
      "inputs": [],
      "name": "totalSupply",
      "outputs": [
        {
          "internalType": "uint256",
          "name": "",
          "type": "uint256"
        }
      ],
      "stateMutability": "view",
      "type": "function"
    },
    {
      "inputs": [
        {
          "internalType": "address",
          "name": "recipient",
          "type": "address"
        },
        {
          "internalType": "uint256",
          "name": "amount",
          "type": "uint256"
        }
      ],
      "name": "transfer",
      "outputs": [
        {
          "internalType": "bool",
          "name": "",
          "type": "bool"
        }
      ],
      "stateMutability": "nonpayable",
      "type": "function"
    },
    {
      "inputs": [
        {
          "internalType": "address",
          "name": "sender",
          "type": "address"
        },
        {
          "internalType": "address",
          "name": "recipient",
          "type": "address"
        },
        {
          "internalType": "uint256",
          "name": "amount",
          "type": "uint256"
        }
      ],
      "name": "transferFrom",
      "outputs": [
        {
          "internalType": "bool",
          "name": "",
          "type": "bool"
        }
      ],
      "stateMutability": "nonpayable",
      "type": "function"
    },
    {
      "inputs": [
        {
          "internalType": "string",
          "name": "name",
          "type": "string"
        },
        {
          "internalType": "string",
          "name": "symbol",
          "type": "string"
        },
        {
          "internalType": "address",
          "name": "minterAddress",
          "type": "address"
        },
        {
          "internalType": "uint256",
          "name": "cap",
          "type": "uint256"
        },
        {
          "internalType": "string",
          "name": "blob",
          "type": "string"
        },
        {
          "internalType": "address",
          "name": "feeCollector",
          "type": "address"
        }
      ],
      "name": "initialize",
      "outputs": [
        {
          "internalType": "bool",
          "name": "",
          "type": "bool"
        }
      ],
      "stateMutability": "nonpayable",
      "type": "function"
    },
    {
      "inputs": [
        {
          "internalType": "address",
          "name": "account",
          "type": "address"
        },
        {
          "internalType": "uint256",
          "name": "value",
          "type": "uint256"
        }
      ],
      "name": "mint",
      "outputs": [],
      "stateMutability": "nonpayable",
      "type": "function"
    },
    {
      "inputs": [
        {
          "internalType": "address",
          "name": "consumer",
          "type": "address"
        },
        {
          "internalType": "uint256",
          "name": "amount",
          "type": "uint256"
        },
        {
          "internalType": "uint256",
          "name": "serviceId",
          "type": "uint256"
        },
        {
          "internalType": "address",
          "name": "mrktFeeCollector",
          "type": "address"
        }
      ],
      "name": "startOrder",
      "outputs": [],
      "stateMutability": "nonpayable",
      "type": "function"
    },
    {
      "inputs": [
        {
          "internalType": "bytes32",
          "name": "orderTxId",
          "type": "bytes32"
        },
        {
          "internalType": "address",
          "name": "consumer",
          "type": "address"
        },
        {
          "internalType": "uint256",
          "name": "amount",
          "type": "uint256"
        },
        {
          "internalType": "uint256",
          "name": "serviceId",
          "type": "uint256"
        }
      ],
      "name": "finishOrder",
      "outputs": [],
      "stateMutability": "nonpayable",
      "type": "function"
    },
    {
      "inputs": [
        {
          "internalType": "address",
          "name": "newMinter",
          "type": "address"
        }
      ],
      "name": "proposeMinter",
      "outputs": [],
      "stateMutability": "nonpayable",
      "type": "function"
    },
    {
      "inputs": [],
      "name": "approveMinter",
      "outputs": [],
      "stateMutability": "nonpayable",
      "type": "function"
    },
    {
      "inputs": [],
      "name": "name",
      "outputs": [
        {
          "internalType": "string",
          "name": "",
          "type": "string"
        }
      ],
      "stateMutability": "view",
      "type": "function"
    },
    {
      "inputs": [],
      "name": "symbol",
      "outputs": [
        {
          "internalType": "string",
          "name": "",
          "type": "string"
        }
      ],
      "stateMutability": "view",
      "type": "function"
    },
    {
      "inputs": [],
      "name": "blob",
      "outputs": [
        {
          "internalType": "string",
          "name": "",
          "type": "string"
        }
      ],
      "stateMutability": "view",
      "type": "function"
    },
    {
      "inputs": [],
      "name": "decimals",
      "outputs": [
        {
          "internalType": "uint8",
          "name": "",
          "type": "uint8"
        }
      ],
      "stateMutability": "view",
      "type": "function"
    },
    {
      "inputs": [],
      "name": "cap",
      "outputs": [
        {
          "internalType": "uint256",
          "name": "",
          "type": "uint256"
        }
      ],
      "stateMutability": "view",
      "type": "function"
    },
    {
      "inputs": [
        {
          "internalType": "address",
          "name": "account",
          "type": "address"
        }
      ],
      "name": "isMinter",
      "outputs": [
        {
          "internalType": "bool",
          "name": "",
          "type": "bool"
        }
      ],
      "stateMutability": "view",
      "type": "function"
    },
    {
      "inputs": [],
      "name": "minter",
      "outputs": [
        {
          "internalType": "address",
          "name": "",
          "type": "address"
        }
      ],
      "stateMutability": "view",
      "type": "function"
    },
    {
      "inputs": [],
      "name": "isInitialized",
      "outputs": [
        {
          "internalType": "bool",
          "name": "",
          "type": "bool"
        }
      ],
      "stateMutability": "view",
      "type": "function"
    },
    {
      "inputs": [
        {
          "internalType": "uint256",
          "name": "amount",
          "type": "uint256"
        },
        {
          "internalType": "uint256",
          "name": "feePercentage",
          "type": "uint256"
        }
      ],
      "name": "calculateFee",
      "outputs": [
        {
          "internalType": "uint256",
          "name": "",
          "type": "uint256"
        }
      ],
      "stateMutability": "pure",
      "type": "function"
    }
  ],
  "bytecode": "0x6080604052600a805460ff60a01b191690553480156200001e57600080fd5b5060405162001ce438038062001ce4833981810160405260c08110156200004457600080fd5b81019080805160405193929190846401000000008211156200006557600080fd5b9083019060208201858111156200007b57600080fd5b82516401000000008111828201881017156200009657600080fd5b82525081516020918201929091019080838360005b83811015620000c5578181015183820152602001620000ab565b50505050905090810190601f168015620000f35780820380516001836020036101000a031916815260200191505b50604052602001805160405193929190846401000000008211156200011757600080fd5b9083019060208201858111156200012d57600080fd5b82516401000000008111828201881017156200014857600080fd5b82525081516020918201929091019080838360005b83811015620001775781810151838201526020016200015d565b50505050905090810190601f168015620001a55780820380516001836020036101000a031916815260200191505b50604081815260208301519083015160609093018051919593949293929184640100000000821115620001d757600080fd5b908301906020820185811115620001ed57600080fd5b82516401000000008111828201881017156200020857600080fd5b82525081516020918201929091019080838360005b83811015620002375781810151838201526020016200021d565b50505050905090810190601f168015620002655780820380516001836020036101000a031916815260200191505b506040818152602092830151828201825260048352631d195cdd60e21b8484019081528251808401909352600a8352691d195cdd14de5b589bdb60b21b94830194909452825190955091935091620002c19160039190620002f4565b508051620002d7906004906020840190620002f4565b50506005805460ff19166012179055506200039995505050505050565b828054600181600116156101000203166002900490600052602060002090601f016020900481019282601f106200033757805160ff191683800117855562000367565b8280016001018555821562000367579182015b82811115620003675782518255916020019190600101906200034a565b506200037592915062000379565b5090565b6200039691905b8082111562000375576000815560010162000380565b90565b61193b80620003a96000396000f3fe608060405234801561001057600080fd5b506004361061018e5760003560e01c806370a08231116100de578063aa271e1a11610097578063dd62ed3e11610071578063dd62ed3e146105ed578063eb40024b1461061b578063ec342ad014610623578063fde0e7a81461062b5761018e565b8063aa271e1a1461058d578063ab63d2b2146105b3578063b2263a5d146102c45761018e565b806370a082311461039d5780638ca0c059146103c35780639070d2f8146103fb57806395d89b411461052d578063a457c2d714610535578063a9059cbb146105615761018e565b8063313ce5671161014b578063392e53cd11610125578063392e53cd14610315578063395093511461031d57806340c10f191461034957806350d2fcc4146103775761018e565b8063313ce567146102cc57806334e73122146102ea578063355274ea1461030d5761018e565b806306fdde03146101935780630754617214610210578063095ea7b31461023457806318160ddd1461027457806323b872dd1461028e578063294541c7146102c4575b600080fd5b61019b610633565b6040805160208082528351818301528351919283929083019185019080838360005b838110156101d55781810151838201526020016101bd565b50505050905090810190601f1680156102025780820380516001836020036101000a031916815260200191505b509250505060405180910390f35b6102186106ca565b604080516001600160a01b039092168252519081900360200190f35b6102606004803603604081101561024a57600080fd5b506001600160a01b0381351690602001356106d9565b604080519115158252519081900360200190f35b61027c6106f7565b60408051918252519081900360200190f35b610260600480360360608110156102a457600080fd5b506001600160a01b038135811691602081013590911690604001356106fd565b61027c61078a565b6102d4610795565b6040805160ff9092168252519081900360200190f35b61027c6004803603604081101561030057600080fd5b508035906020013561079a565b61027c6107e5565b6102606107eb565b6102606004803603604081101561033357600080fd5b506001600160a01b0381351690602001356107fb565b6103756004803603604081101561035f57600080fd5b506001600160a01b03813516906020013561084f565b005b6103756004803603602081101561038d57600080fd5b50356001600160a01b0316610914565b61027c600480360360208110156103b357600080fd5b50356001600160a01b03166109bd565b610375600480360360808110156103d957600080fd5b508035906001600160a01b0360208201351690604081013590606001356109d8565b610260600480360360c081101561041157600080fd5b81019060208101813564010000000081111561042c57600080fd5b82018360208201111561043e57600080fd5b8035906020019184600183028401116401000000008311171561046057600080fd5b91939092909160208101903564010000000081111561047e57600080fd5b82018360208201111561049057600080fd5b803590602001918460018302840111640100000000831117156104b257600080fd5b919390926001600160a01b038335169260208101359291906060810190604001356401000000008111156104e557600080fd5b8201836020820111156104f757600080fd5b8035906020019184600183028401116401000000008311171561051957600080fd5b9193509150356001600160a01b0316610a7c565b61019b610b83565b6102606004803603604081101561054b57600080fd5b506001600160a01b038135169060200135610be4565b6102606004803603604081101561057757600080fd5b506001600160a01b038135169060200135610c52565b610260600480360360208110156105a357600080fd5b50356001600160a01b0316610c66565b610375600480360360808110156105c957600080fd5b506001600160a01b0381358116916020810135916040820135916060013516610c7a565b61027c6004803603604081101561060357600080fd5b506001600160a01b0381358116916020013516610d7c565b610375610da7565b61027c610e63565b61019b610e6f565b60068054604080516020601f60026000196101006001881615020190951694909404938401819004810282018101909252828152606093909290918301828280156106bf5780601f10610694576101008083540402835291602001916106bf565b820191906000526020600020905b8154815290600101906020018083116106a257829003601f168201915b505050505090505b90565b600b546001600160a01b031690565b60006106ed6106e6610ed0565b8484610ed4565b5060015b92915050565b60025490565b600061070a848484610fc0565b61078084610716610ed0565b61077b85604051806060016040528060288152602001611841602891396001600160a01b038a16600090815260016020526040812090610754610ed0565b6001600160a01b03168152602081019190915260400160002054919063ffffffff61112716565b610ed4565b5060019392505050565b66038d7ea4c6800081565b601290565b6000826107a9575060006106f1565b816107b6575060006106f1565b6107de670de0b6b3a76400006107d2858563ffffffff6111be16565b9063ffffffff61121716565b9392505050565b60095490565b600a54600160a01b900460ff1690565b60006106ed610808610ed0565b8461077b8560016000610819610ed0565b6001600160a01b03908116825260208083019390935260409182016000908120918c16815292529020549063ffffffff61127e16565b600b546001600160a01b031633146108985760405162461bcd60e51b81526004018080602001828103825260218152602001806116ea6021913960400191505060405180910390fd5b6009546108b3826108a76106f7565b9063ffffffff61127e16565b1115610906576040805162461bcd60e51b815260206004820152601f60248201527f44617461546f6b656e54656d706c6174653a2063617020657863656564656400604482015290519081900360640190fd5b61091082826112d8565b5050565b600b546001600160a01b0316331461095d5760405162461bcd60e51b81526004018080602001828103825260218152602001806116ea6021913960400191505060405180910390fd5b600c80546001600160a01b0319166001600160a01b0383811691909117918290556040805133815292909116602083015280517fa24c529cc8b2d85b7dfb2ed0b4d7e9a816546212138b5d223bee13481e21be6b9281900390910190a150565b6001600160a01b031660009081526020819052604090205490565b8115610a23576109e88383610c52565b610a235760405162461bcd60e51b81526004018080602001828103825260298152602001806117316029913960400191505060405180910390fd5b6040805185815260208101849052808201839052426060820152905133916001600160a01b038616917f46872661d5d7765097d3a97ca99b7cbfa68b54b6d51904168974901ee607a26d9181900360800190a350505050565b600a54600090600160a01b900460ff1615610ac85760405162461bcd60e51b81526004018080602001828103825260358152602001806116b56035913960400191505060405180910390fd5b610b758a8a8080601f01602080910402602001604051908101604052809392919081815260200183838082843760009201919091525050604080516020601f8e018190048102820181019092528c815292508c91508b908190840183828082843760009201919091525050604080516020601f8b018190048102820181019092528981528c93508b9250908a908a90819084018382808284376000920191909152508a92506113d4915050565b9a9950505050505050505050565b60078054604080516020601f60026000196101006001881615020190951694909404938401819004810282018101909252828152606093909290918301828280156106bf5780601f10610694576101008083540402835291602001916106bf565b60006106ed610bf1610ed0565b8461077b856040518060600160405280602581526020016118e16025913960016000610c1b610ed0565b6001600160a01b03908116825260208083019390935260409182016000908120918d1681529252902054919063ffffffff61112716565b60006106ed610c5f610ed0565b8484610fc0565b600b546001600160a01b0391821691161490565b600080610c94856103e8670de0b6b3a76400005b0461079a565b600a54909150610cad906001600160a01b031682610c52565b506001600160a01b03831615610ce057610cd2856103e8670de0b6b3a7640000610c8e565b9150610cde8383610c52565b505b6000610cf2828463ffffffff61127e16565b600b54909150610d1a906001600160a01b0316610d15888463ffffffff61157516565b610c52565b50604080518781526020810187905242818301526060810185905290516001600160a01b03808716923392918b16917fe1c4fa794edfa8f619b8257a077398950357b9c6398528f94480307352f9afcc9181900360800190a450505050505050565b6001600160a01b03918216600090815260016020908152604080832093909416825291909152205490565b600c546001600160a01b03163314610df05760405162461bcd60e51b81526004018080602001828103825260328152602001806117ca6032913960400191505060405180910390fd5b600b54600c54604080516001600160a01b03938416815292909116602083015280517f96ab0400119a548d3cc4c74e857d0d9c427fe9df20d3d0d99af10cc292e6c8869281900390910190a1600c8054600b80546001600160a01b03199081166001600160a01b03841617909155169055565b670de0b6b3a764000081565b60088054604080516020601f60026000196101006001881615020190951694909404938401819004810282018101909252828152606093909290918301828280156106bf5780601f10610694576101008083540402835291602001916106bf565b3390565b6001600160a01b038316610f195760405162461bcd60e51b81526004018080602001828103825260248152602001806118bd6024913960400191505060405180910390fd5b6001600160a01b038216610f5e5760405162461bcd60e51b81526004018080602001828103825260228152602001806116936022913960400191505060405180910390fd5b6001600160a01b03808416600081815260016020908152604080832094871680845294825291829020859055815185815291517f8c5be1e5ebec7d5bd14f71427d1e84f3dd0314c0f7b2291e5b200ac8c7c3b9259281900390910190a3505050565b6001600160a01b0383166110055760405162461bcd60e51b81526004018080602001828103825260258152602001806118986025913960400191505060405180910390fd5b6001600160a01b03821661104a5760405162461bcd60e51b81526004018080602001828103825260238152602001806116706023913960400191505060405180910390fd5b6110558383836115d2565b6110988160405180606001604052806026815260200161170b602691396001600160a01b038616600090815260208190526040902054919063ffffffff61112716565b6001600160a01b0380851660009081526020819052604080822093909355908416815220546110cd908263ffffffff61127e16565b6001600160a01b038084166000818152602081815260409182902094909455805185815290519193928716927fddf252ad1be2c89b69c2b068fc378daa952ba7f163c4a11628f55a4df523b3ef92918290030190a3505050565b600081848411156111b65760405162461bcd60e51b81526004018080602001828103825283818151815260200191508051906020019080838360005b8381101561117b578181015183820152602001611163565b50505050905090810190601f1680156111a85780820380516001836020036101000a031916815260200191505b509250505060405180910390fd5b505050900390565b6000826111cd575060006106f1565b828202828482816111da57fe5b04146107de5760405162461bcd60e51b81526004018080602001828103825260218152602001806117fc6021913960400191505060405180910390fd5b600080821161126d576040805162461bcd60e51b815260206004820152601a60248201527f536166654d6174683a206469766973696f6e206279207a65726f000000000000604482015290519081900360640190fd5b81838161127657fe5b049392505050565b6000828201838110156107de576040805162461bcd60e51b815260206004820152601b60248201527f536166654d6174683a206164646974696f6e206f766572666c6f770000000000604482015290519081900360640190fd5b6001600160a01b038216611333576040805162461bcd60e51b815260206004820152601f60248201527f45524332303a206d696e7420746f20746865207a65726f206164647265737300604482015290519081900360640190fd5b61133f600083836115d2565b600254611352908263ffffffff61127e16565b6002556001600160a01b03821660009081526020819052604090205461137e908263ffffffff61127e16565b6001600160a01b0383166000818152602081815260408083209490945583518581529351929391927fddf252ad1be2c89b69c2b068fc378daa952ba7f163c4a11628f55a4df523b3ef9281900390910190a35050565b60006001600160a01b03851661141b5760405162461bcd60e51b815260040180806020018281038252603081526020018061175a6030913960400191505060405180910390fd5b600b546001600160a01b0316156114635760405162461bcd60e51b815260040180806020018281038252602f815260200180611869602f913960400191505060405180910390fd5b6001600160a01b0382166114a85760405162461bcd60e51b815260040180806020018281038252604081526020018061178a6040913960400191505060405180910390fd5b836114e45760405162461bcd60e51b815260040180806020018281038252602481526020018061181d6024913960400191505060405180910390fd5b600984905586516114fc9060069060208a01906115d7565b5082516115109060089060208601906115d7565b5085516115249060079060208901906115d7565b5050600b80546001600160a01b03199081166001600160a01b0396871617909155600a8054600160a01b9216929095169190911760ff60a01b191681179384905560ff930492909216949350505050565b6000828211156115cc576040805162461bcd60e51b815260206004820152601e60248201527f536166654d6174683a207375627472616374696f6e206f766572666c6f770000604482015290519081900360640190fd5b50900390565b505050565b828054600181600116156101000203166002900490600052602060002090601f016020900481019282601f1061161857805160ff1916838001178555611645565b82800160010185558215611645579182015b8281111561164557825182559160200191906001019061162a565b50611651929150611655565b5090565b6106c791905b80821115611651576000815560010161165b56fe45524332303a207472616e7366657220746f20746865207a65726f206164647265737345524332303a20617070726f766520746f20746865207a65726f206164647265737344617461546f6b656e54656d706c6174653a20746f6b656e20696e7374616e636520616c726561647920696e697469616c697a656444617461546f6b656e54656d706c6174653a20696e76616c6964206d696e74657245524332303a207472616e7366657220616d6f756e7420657863656564732062616c616e636544617461546f6b656e54656d706c6174653a206661696c656420746f2066696e697368206f7264657244617461546f6b656e54656d706c6174653a20496e76616c6964206d696e7465722c20207a65726f206164647265737344617461546f6b656e54656d706c6174653a20496e76616c696420636f6d6d756e6974792066656520636f6c6c6563746f722c207a65726f206164647265737344617461546f6b656e54656d706c6174653a20696e76616c69642070726f706f736564206d696e7465722061646472657373536166654d6174683a206d756c7469706c69636174696f6e206f766572666c6f7744617461546f6b656e54656d706c6174653a20496e76616c6964206361702076616c756545524332303a207472616e7366657220616d6f756e74206578636565647320616c6c6f77616e636544617461546f6b656e54656d706c6174653a20496e76616c6964206d696e7465722c207a65726f206164647265737345524332303a207472616e736665722066726f6d20746865207a65726f206164647265737345524332303a20617070726f76652066726f6d20746865207a65726f206164647265737345524332303a2064656372656173656420616c6c6f77616e63652062656c6f77207a65726fa2646970667358221220e83aaa0d4cd80bd9e1d4e9c9c4da67391854ad3665fafdf66841e60a62e2f51e64736f6c63430006060033",
  "immutableReferences": {},
  "source": "pragma solidity >=0.6.0;\n// Copyright BigchainDB GmbH and Ocean Protocol contributors\n// SPDX-License-Identifier: (Apache-2.0 AND CC-BY-4.0)\n// Code is Apache-2.0 and docs are CC-BY-4.0\n\nimport '../interfaces/IERC20Template.sol';\nimport \"@openzeppelin/contracts/token/ERC20/ERC20.sol\";\n\n\n/**\n* @title DataTokenTemplate\n*  \n* @dev DataTokenTemplate is an ERC20 compliant token template\n*      Used by the factory contract as a bytecode reference to \n*      deploy new DataTokens.\n*/\ncontract ERC20Template is ERC20('test','testSymbol') {\n    using SafeMath for uint256;\n\n    string  private _name;\n    string  private _symbol;\n    string  private _blob;\n    uint256 private _cap;\n    uint8 private constant _decimals = 18;\n    address private _communityFeeCollector;\n    bool    private initialized = false;\n    address private _minter;\n    address private _proposedMinter;\n    uint256 public constant BASE = 10**18;\n    uint256 public constant BASE_COMMUNITY_FEE_PERCENTAGE = BASE / 1000;\n    uint256 public constant BASE_MARKET_FEE_PERCENTAGE = BASE / 1000;\n\n    event OrderStarted(\n            address indexed consumer,\n            address indexed payer,\n            uint256 amount, \n            uint256 serviceId, \n            uint256 timestamp,\n            address indexed mrktFeeCollector,\n            uint256 marketFee\n    );\n\n    event OrderFinished(\n            bytes32 orderTxId, \n            address indexed consumer,\n            uint256 amount, \n            uint256 serviceId, \n            address indexed provider,\n            uint256 timestamp\n    );\n\n    event MinterProposed(\n        address currentMinter,\n        address newMinter\n    );\n\n    event MinterApproved(\n        address currentMinter,\n        address newMinter\n    );\n\n    modifier onlyNotInitialized() {\n        require(\n            !initialized,\n            'DataTokenTemplate: token instance already initialized'\n        );\n        _;\n    }\n    \n    modifier onlyMinter() {\n        require(\n            msg.sender == _minter,\n            'DataTokenTemplate: invalid minter' \n        );\n        _;\n    }\n\n    /**\n     * @dev constructor\n     *      Called prior contract deployment\n     * @param name refers to a template DataToken name\n     * @param symbol refers to a template DataToken symbol\n     * @param minterAddress refers to an address that has minter role\n     * @param cap the total ERC20 cap\n     * @param blob data string refering to the resolver for the metadata\n     * @param feeCollector it is the community fee collector address\n     */\n    constructor(\n        string memory name,\n        string memory symbol,\n        address minterAddress,\n        uint256 cap,\n        string memory blob,\n        address feeCollector\n    )\n        public\n    {\n        // _initialize(\n        //     name,\n        //     symbol,\n        //     minterAddress,\n        //     cap,\n        //     blob,\n        //     feeCollector\n        // );\n    }\n    \n    /**\n     * @dev initialize\n     *      Called prior contract initialization (e.g creating new DataToken instance)\n     *      Calls private _initialize function. Only if contract is not initialized.\n     * @param name refers to a new DataToken name\n     * @param symbol refers to a nea DataToken symbol\n     * @param minterAddress refers to an address that has minter rights\n     * @param cap the total ERC20 cap\n     * @param blob data string refering to the resolver for the metadata\n     * @param feeCollector it is the community fee collector address\n     */\n    function initialize(\n        string calldata name,\n        string calldata symbol,\n        address minterAddress,\n        uint256 cap,\n        string calldata blob,\n        address feeCollector\n    ) \n        external\n        onlyNotInitialized\n        \n        returns(bool)\n    {\n        return _initialize(\n            name,\n            symbol,\n            minterAddress,\n            cap,\n            blob,\n            feeCollector\n        );\n    }\n\n    /**\n     * @dev _initialize\n     *      Private function called on contract initialization.\n     * @param name refers to a new DataToken name\n     * @param symbol refers to a nea DataToken symbol\n     * @param minterAddress refers to an address that has minter rights\n     * @param cap the total ERC20 cap\n     * @param blob data string refering to the resolver for the metadata\n     * @param feeCollector it is the community fee collector address\n     */\n    function _initialize(\n        string memory name,\n        string memory symbol,\n        address minterAddress,\n        uint256 cap,\n        string memory blob,\n        address feeCollector\n    )\n        private\n        returns(bool)\n    {\n        require(\n            minterAddress != address(0), \n            'DataTokenTemplate: Invalid minter,  zero address'\n        );\n\n        require(\n            _minter == address(0), \n            'DataTokenTemplate: Invalid minter, zero address'\n        );\n\n        require(\n            feeCollector != address(0),\n            'DataTokenTemplate: Invalid community fee collector, zero address'\n        );\n\n        require(\n            cap != 0,\n            'DataTokenTemplate: Invalid cap value'\n        );\n        _cap = cap;\n        _name = name;\n        _blob = blob;\n        _symbol = symbol;\n        _minter = minterAddress;\n        _communityFeeCollector = feeCollector;\n        initialized = true;\n        return initialized;\n    }\n\n    /**\n     * @dev mint\n     *      Only the minter address can call it.\n     *      msg.value should be higher than zero and gt or eq minting fee\n     * @param account refers to an address that token is going to be minted to.\n     * @param value refers to amount of tokens that is going to be minted.\n     */\n    function mint(\n        address account,\n        uint256 value\n    ) \n        external \n        onlyMinter \n    {\n        require(\n            totalSupply().add(value) <= _cap, \n            'DataTokenTemplate: cap exceeded'\n        );\n        _mint(account, value);\n    }\n\n    /**\n     * @dev startOrder\n     *      called by payer or consumer prior ordering a service consume on a marketplace.\n     * @param consumer is the consumer address (payer could be different address)\n     * @param amount refers to amount of tokens that is going to be transfered.\n     * @param serviceId service index in the metadata\n     * @param mrktFeeCollector marketplace fee collector\n     */\n    function startOrder(\n        address consumer,\n        uint256 amount,\n        uint256 serviceId,\n        address mrktFeeCollector\n    )\n        external\n    {\n        uint256 marketFee = 0;\n        uint256 communityFee = calculateFee(\n            amount, \n            BASE_COMMUNITY_FEE_PERCENTAGE\n        );\n        transfer(_communityFeeCollector, communityFee);\n        if(mrktFeeCollector != address(0)){\n            marketFee = calculateFee(\n                amount, \n                BASE_MARKET_FEE_PERCENTAGE\n            );\n            transfer(mrktFeeCollector, marketFee);\n        }\n        uint256 totalFee = communityFee.add(marketFee);\n        transfer(_minter, amount.sub(totalFee));\n\n        emit OrderStarted(\n            consumer,\n            msg.sender,\n            amount,\n            serviceId,\n            block.timestamp,\n            mrktFeeCollector,\n            marketFee\n        );\n    }\n\n    /**\n     * @dev finishOrder\n     *      called by provider prior completing service delivery only\n     *      if there is a partial or full refund.\n     * @param orderTxId refers to the transaction Id  of startOrder acts \n     *                  as a payment reference.\n     * @param consumer refers to an address that has consumed that service.\n     * @param amount refers to amount of tokens that is going to be transfered.\n     * @param serviceId service index in the metadata.\n     */\n    function finishOrder(\n        bytes32 orderTxId, \n        address consumer, \n        uint256 amount,\n        uint256 serviceId\n    )\n        external\n    {\n        if ( amount != 0 )  \n            require(\n                transfer(consumer, amount),\n                'DataTokenTemplate: failed to finish order'\n            );\n\n        emit OrderFinished(\n            orderTxId, \n            consumer, \n            amount, \n            serviceId, \n            msg.sender,\n            block.timestamp\n        );\n    }\n\n    /**\n     * @dev proposeMinter\n     *      It proposes a new token minter address.\n     *      Only the current minter can call it.\n     * @param newMinter refers to a new token minter address.\n     */\n    function proposeMinter(address newMinter) \n        external \n        onlyMinter \n    {\n        _proposedMinter = newMinter;\n        emit MinterProposed(\n            msg.sender,\n            _proposedMinter\n        );\n    }\n\n    /**\n     * @dev approveMinter\n     *      It approves a new token minter address.\n     *      Only the current minter can call it.\n     */\n    function approveMinter()\n        external\n    {\n        require(\n            msg.sender == _proposedMinter,\n            'DataTokenTemplate: invalid proposed minter address'\n        );\n        emit MinterApproved(\n            _minter,\n            _proposedMinter\n        );\n        _minter = _proposedMinter;\n        _proposedMinter = address(0);\n    }\n\n    /**\n     * @dev name\n     *      It returns the token name.\n     * @return DataToken name.\n     */\n    function name() public override view returns(string memory) {\n        return _name;\n    }\n\n    /**\n     * @dev symbol\n     *      It returns the token symbol.\n     * @return DataToken symbol.\n     */\n    function symbol() public override view returns(string memory) {\n        return _symbol;\n    }\n\n    /**\n     * @dev blob\n     *      It returns the blob (e.g https://123.com).\n     * @return DataToken blob.\n     */\n    function blob() external view returns(string memory) {\n        return _blob;\n    }\n\n    /**\n     * @dev decimals\n     *      It returns the token decimals.\n     *      how many supported decimal points\n     * @return DataToken decimals.\n     */\n    function decimals() public override view returns(uint8) {\n        return _decimals;\n    }\n\n    /**\n     * @dev cap\n     *      it returns the capital.\n     * @return DataToken cap.\n     */\n    function cap() external view returns (uint256) {\n        return _cap;\n    }\n\n    /**\n     * @dev isMinter\n     *      It takes the address and checks whether it has a minter role.\n     * @param account refers to the address.\n     * @return true if account has a minter role.\n     */\n    function isMinter(address account) external view returns(bool) {\n        return (_minter == account);\n    } \n\n    /**\n     * @dev minter\n     * @return minter's address.\n     */\n    function minter()\n        external\n        view \n        returns(address)\n    {\n        return _minter;\n    }\n\n    /**\n     * @dev isInitialized\n     *      It checks whether the contract is initialized.\n     * @return true if the contract is initialized.\n     */ \n    function isInitialized() external view returns(bool) {\n        return initialized;\n    }\n\n    /**\n     * @dev calculateFee\n     *      giving a fee percentage, and amount it calculates the actual fee\n     * @param amount the amount of token\n     * @param feePercentage the fee percentage \n     * @return the token fee.\n     */ \n    function calculateFee(\n        uint256 amount,\n        uint256 feePercentage\n    )\n        public\n        pure\n        returns(uint256)\n    {\n        if(amount == 0) return 0;\n        if(feePercentage == 0) return 0;\n        return amount.mul(feePercentage).div(BASE);\n    }\n}\n",
  "sourcePath": "/home/andrea/ocean/v4/contracts/templates/ERC20Template.sol",
  "compiler": {
    "name": "solc",
    "version": "0.6.6+commit.6c089d02.Emscripten.clang"
  },
  "schemaVersion": "3.2.4",
  "updatedAt": "2021-04-20T16:47:19.557Z",
  "devdoc": {
    "details": "DataTokenTemplate is an ERC20 compliant token template     Used by the factory contract as a bytecode reference to      deploy new DataTokens.",
    "methods": {
      "allowance(address,address)": {
        "details": "See {IERC20-allowance}."
      },
      "approve(address,uint256)": {
        "details": "See {IERC20-approve}.     * Requirements:     * - `spender` cannot be the zero address."
      },
      "approveMinter()": {
        "details": "approveMinter     It approves a new token minter address.     Only the current minter can call it."
      },
      "balanceOf(address)": {
        "details": "See {IERC20-balanceOf}."
      },
      "blob()": {
        "details": "blob     It returns the blob (e.g https://123.com).",
        "returns": {
          "_0": "DataToken blob."
        }
      },
      "calculateFee(uint256,uint256)": {
        "details": "calculateFee     giving a fee percentage, and amount it calculates the actual fee",
        "params": {
          "amount": "the amount of token",
          "feePercentage": "the fee percentage "
        },
        "returns": {
          "_0": "the token fee."
        }
      },
      "cap()": {
        "details": "cap     it returns the capital.",
        "returns": {
          "_0": "DataToken cap."
        }
      },
      "constructor": {
        "details": "constructor     Called prior contract deployment",
        "params": {
          "blob": "data string refering to the resolver for the metadata",
          "cap": "the total ERC20 cap",
          "feeCollector": "it is the community fee collector address",
          "minterAddress": "refers to an address that has minter role",
          "name": "refers to a template DataToken name",
          "symbol": "refers to a template DataToken symbol"
        }
      },
      "decimals()": {
        "details": "decimals     It returns the token decimals.     how many supported decimal points",
        "returns": {
          "_0": "DataToken decimals."
        }
      },
      "decreaseAllowance(address,uint256)": {
        "details": "Atomically decreases the allowance granted to `spender` by the caller.     * This is an alternative to {approve} that can be used as a mitigation for problems described in {IERC20-approve}.     * Emits an {Approval} event indicating the updated allowance.     * Requirements:     * - `spender` cannot be the zero address. - `spender` must have allowance for the caller of at least `subtractedValue`."
      },
      "finishOrder(bytes32,address,uint256,uint256)": {
        "details": "finishOrder     called by provider prior completing service delivery only     if there is a partial or full refund.",
        "params": {
          "amount": "refers to amount of tokens that is going to be transfered.",
          "consumer": "refers to an address that has consumed that service.",
          "orderTxId": "refers to the transaction Id  of startOrder acts                  as a payment reference.",
          "serviceId": "service index in the metadata."
        }
      },
      "increaseAllowance(address,uint256)": {
        "details": "Atomically increases the allowance granted to `spender` by the caller.     * This is an alternative to {approve} that can be used as a mitigation for problems described in {IERC20-approve}.     * Emits an {Approval} event indicating the updated allowance.     * Requirements:     * - `spender` cannot be the zero address."
      },
      "initialize(string,string,address,uint256,string,address)": {
        "details": "initialize     Called prior contract initialization (e.g creating new DataToken instance)     Calls private _initialize function. Only if contract is not initialized.",
        "params": {
          "blob": "data string refering to the resolver for the metadata",
          "cap": "the total ERC20 cap",
          "feeCollector": "it is the community fee collector address",
          "minterAddress": "refers to an address that has minter rights",
          "name": "refers to a new DataToken name",
          "symbol": "refers to a nea DataToken symbol"
        }
      },
      "isInitialized()": {
        "details": "isInitialized     It checks whether the contract is initialized.",
        "returns": {
          "_0": "true if the contract is initialized."
        }
      },
      "isMinter(address)": {
        "details": "isMinter     It takes the address and checks whether it has a minter role.",
        "params": {
          "account": "refers to the address."
        },
        "returns": {
          "_0": "true if account has a minter role."
        }
      },
      "mint(address,uint256)": {
        "details": "mint     Only the minter address can call it.     msg.value should be higher than zero and gt or eq minting fee",
        "params": {
          "account": "refers to an address that token is going to be minted to.",
          "value": "refers to amount of tokens that is going to be minted."
        }
      },
      "minter()": {
        "details": "minter",
        "returns": {
          "_0": "minter's address."
        }
      },
      "name()": {
        "details": "name     It returns the token name.",
        "returns": {
          "_0": "DataToken name."
        }
      },
      "proposeMinter(address)": {
        "details": "proposeMinter     It proposes a new token minter address.     Only the current minter can call it.",
        "params": {
          "newMinter": "refers to a new token minter address."
        }
      },
      "startOrder(address,uint256,uint256,address)": {
        "details": "startOrder     called by payer or consumer prior ordering a service consume on a marketplace.",
        "params": {
          "amount": "refers to amount of tokens that is going to be transfered.",
          "consumer": "is the consumer address (payer could be different address)",
          "mrktFeeCollector": "marketplace fee collector",
          "serviceId": "service index in the metadata"
        }
      },
      "symbol()": {
        "details": "symbol     It returns the token symbol.",
        "returns": {
          "_0": "DataToken symbol."
        }
      },
      "totalSupply()": {
        "details": "See {IERC20-totalSupply}."
      },
      "transfer(address,uint256)": {
        "details": "See {IERC20-transfer}.     * Requirements:     * - `recipient` cannot be the zero address. - the caller must have a balance of at least `amount`."
      },
      "transferFrom(address,address,uint256)": {
        "details": "See {IERC20-transferFrom}.     * Emits an {Approval} event indicating the updated allowance. This is not required by the EIP. See the note at the beginning of {ERC20}.     * Requirements:     * - `sender` and `recipient` cannot be the zero address. - `sender` must have a balance of at least `amount`. - the caller must have allowance for ``sender``'s tokens of at least `amount`."
      }
    },
    "title": "DataTokenTemplate "
  },
  "userdoc": {
    "methods": {}
  }
}