{
  "contractName": "ERC20Factory",
  "abi": [
    {
      "inputs": [
        {
          "internalType": "address",
          "name": "_template",
          "type": "address"
        },
        {
          "internalType": "address",
          "name": "_collector",
          "type": "address"
        }
      ],
      "stateMutability": "nonpayable",
      "type": "constructor"
    },
    {
      "anonymous": false,
      "inputs": [
        {
          "indexed": false,
          "internalType": "address",
          "name": "instance",
          "type": "address"
        }
      ],
      "name": "InstanceDeployed",
      "type": "event"
    },
    {
      "anonymous": false,
      "inputs": [
        {
          "indexed": true,
          "internalType": "address",
          "name": "newTokenAddress",
          "type": "address"
        },
        {
          "indexed": true,
          "internalType": "address",
          "name": "templateAddress",
          "type": "address"
        },
        {
          "indexed": true,
          "internalType": "string",
          "name": "tokenName",
          "type": "string"
        }
      ],
      "name": "TokenCreated",
      "type": "event"
    },
    {
      "anonymous": false,
      "inputs": [
        {
          "indexed": true,
          "internalType": "address",
          "name": "tokenAddress",
          "type": "address"
        },
        {
          "indexed": false,
          "internalType": "string",
          "name": "tokenName",
          "type": "string"
        },
        {
          "indexed": false,
          "internalType": "string",
          "name": "tokenSymbol",
          "type": "string"
        },
        {
          "indexed": false,
          "internalType": "uint256",
          "name": "tokenCap",
          "type": "uint256"
        },
        {
          "indexed": true,
          "internalType": "address",
          "name": "registeredBy",
          "type": "address"
        },
        {
          "indexed": true,
          "internalType": "string",
          "name": "blob",
          "type": "string"
        }
      ],
      "name": "TokenRegistered",
      "type": "event"
    },
    {
      "inputs": [],
      "name": "MINTER_ROLE",
      "outputs": [
        {
          "internalType": "bytes32",
          "name": "",
          "type": "bytes32"
        }
      ],
      "stateMutability": "view",
      "type": "function"
    },
    {
      "inputs": [
        {
          "internalType": "uint256",
          "name": "",
          "type": "uint256"
        }
      ],
      "name": "tokenTemplate",
      "outputs": [
        {
          "internalType": "address",
          "name": "",
          "type": "address"
        }
      ],
      "stateMutability": "view",
      "type": "function"
    },
    {
      "inputs": [
        {
          "internalType": "string",
          "name": "blob",
          "type": "string"
        },
        {
          "internalType": "string",
          "name": "name",
          "type": "string"
        },
        {
          "internalType": "string",
          "name": "symbol",
          "type": "string"
        },
        {
          "internalType": "uint256",
          "name": "cap",
          "type": "uint256"
        },
        {
          "internalType": "address",
          "name": "from",
          "type": "address"
        },
        {
          "internalType": "uint256",
          "name": "templateIndex",
          "type": "uint256"
        }
      ],
      "name": "createToken",
      "outputs": [
        {
          "internalType": "address",
          "name": "token",
          "type": "address"
        }
      ],
      "stateMutability": "nonpayable",
      "type": "function"
    },
    {
      "inputs": [],
      "name": "getCurrentTokenCount",
      "outputs": [
        {
          "internalType": "uint256",
          "name": "",
          "type": "uint256"
        }
      ],
      "stateMutability": "view",
      "type": "function"
    },
    {
      "inputs": [
        {
          "internalType": "uint256",
          "name": "templateIndex",
          "type": "uint256"
        }
      ],
      "name": "getTokenTemplateAddress",
      "outputs": [
        {
          "internalType": "address",
          "name": "",
          "type": "address"
        }
      ],
      "stateMutability": "view",
      "type": "function"
    },
    {
      "inputs": [
        {
          "internalType": "address",
          "name": "templateAddress",
          "type": "address"
        }
      ],
      "name": "addTokenTemplate",
      "outputs": [
        {
          "internalType": "uint256",
          "name": "index",
          "type": "uint256"
        }
      ],
      "stateMutability": "nonpayable",
      "type": "function"
    },
    {
      "inputs": [
        {
          "internalType": "address",
          "name": "templateAddress",
          "type": "address"
        }
      ],
      "name": "getTokenTemplateIndex",
      "outputs": [
        {
          "internalType": "uint256",
          "name": "",
          "type": "uint256"
        }
      ],
      "stateMutability": "view",
      "type": "function"
    }
  ],
  "bytecode": "0x6080604052600160025534801561001557600080fd5b50604051610d92380380610d928339818101604052604081101561003857600080fd5b5080516020909101516001600160a01b0382161580159061006157506001600160a01b03811615155b61009c5760405162461bcd60e51b8152600401808060200182810382526041815260200180610d516041913960600191505060405180910390fd5b60008054600181810183559180527f290decd9548b62a8d60345a988386fc84ba6bc95484008f6362f93160ef3e5630180546001600160a01b039485166001600160a01b03199182161790915581549290931691909216179055610c4c806101056000396000f3fe608060405234801561001057600080fd5b506004361061007d5760003560e01c8063cfdde3541161005b578063cfdde354146100fb578063d539139314610118578063eb717c3f14610120578063fafd9aa3146102e85761007d565b80633a6c1414146100825780637b20bccf146100bb578063c6cf868a146100f3575b600080fd5b61009f6004803603602081101561009857600080fd5b503561030e565b604080516001600160a01b039092168252519081900360200190f35b6100e1600480360360208110156100d157600080fd5b50356001600160a01b0316610335565b60408051918252519081900360200190f35b6100e16103cf565b61009f6004803603602081101561011157600080fd5b50356103d5565b6100e1610400565b61009f600480360360c081101561013657600080fd5b81019060208101813564010000000081111561015157600080fd5b82018360208201111561016357600080fd5b8035906020019184600183028401116401000000008311171561018557600080fd5b91908080601f01602080910402602001604051908101604052809392919081815260200183838082843760009201919091525092959493602081019350359150506401000000008111156101d857600080fd5b8201836020820111156101ea57600080fd5b8035906020019184600183028401116401000000008311171561020c57600080fd5b91908080601f016020809104026020016040519081016040528093929190818152602001838380828437600092019190915250929594936020810193503591505064010000000081111561025f57600080fd5b82018360208201111561027157600080fd5b8035906020019184600183028401116401000000008311171561029357600080fd5b91908080601f0160208091040260200160405190810160405280939291908181526020018383808284376000920191909152509295505082359350505060208101356001600160a01b03169060400135610423565b6100e1600480360360208110156102fe57600080fd5b50356001600160a01b0316610a54565b6000818154811061031b57fe5b6000918252602090912001546001600160a01b0316905081565b60006001600160a01b03821661037c5760405162461bcd60e51b8152600401808060200182810382526027815260200180610bf06027913960400191505060405180910390fd5b50600080546001810182559080527f290decd9548b62a8d60345a988386fc84ba6bc95484008f6362f93160ef3e563810180546001600160a01b0319166001600160a01b03939093169290921790915590565b60025490565b60008082815481106103e357fe5b6000918252602090912001546001600160a01b031690505b919050565b604080516a4d494e5445525f524f4c4560a81b8152905190819003600b01902081565b600061042e33610aa9565b61046e576040805162461bcd60e51b815260206004820152600c60248201526b1393d50810d3d395149050d560a21b604482015290519081900360640190fd5b836104aa5760405162461bcd60e51b8152600401808060200182810382526022815260200180610b6e6022913960400191505060405180910390fd5b6104d4600083815481106104ba57fe5b6000918252602090912001546001600160a01b0316610aaf565b90506001600160a01b03811661051b5760405162461bcd60e51b815260040180806020018281038252603a815260200180610b90603a913960400191505060405180910390fd5b604080516a4d494e5445525f524f4c4560a81b8152815190819003600b018120632474521560e21b825260048201526001600160a01b038516602482015290518291339182916391d14854916044808301926020929190829003018186803b15801561058657600080fd5b505afa15801561059a573d6000803e3d6000fd5b505050506040513d60208110156105b057600080fd5b50516105ed5760405162461bcd60e51b8152600401808060200182810382526026815260200180610bca6026913960400191505060405180910390fd5b816001600160a01b0316639070d2f88989888a8e600160009054906101000a90046001600160a01b03166040518763ffffffff1660e01b8152600401808060200180602001876001600160a01b03166001600160a01b0316815260200186815260200180602001856001600160a01b03166001600160a01b0316815260200184810384528a818151815260200191508051906020019080838360005b838110156106a1578181015183820152602001610689565b50505050905090810190601f1680156106ce5780820380516001836020036101000a031916815260200191505b5084810383528951815289516020918201918b019080838360005b838110156107015781810151838201526020016106e9565b50505050905090810190601f16801561072e5780820380516001836020036101000a031916815260200191505b50848103825286518152865160209182019188019080838360005b83811015610761578181015183820152602001610749565b50505050905090810190601f16801561078e5780820380516001836020036101000a031916815260200191505b509950505050505050505050602060405180830381600087803b1580156107b457600080fd5b505af11580156107c8573d6000803e3d6000fd5b505050506040513d60208110156107de57600080fd5b505161081b5760405162461bcd60e51b815260040180806020018281038252602e815260200180610b40602e913960400191505060405180910390fd5b876040518082805190602001908083835b6020831061084b5780518252601f19909201916020918201910161082c565b6001836020036101000a03801982511681845116808217855250505050505090500191505060405180910390206000808154811061088557fe5b60009182526020822001546040516001600160a01b0391821692918716917fb51c8cbe199ffe8b0d1d39b62d473569750653cb18b165f77ae423b3900180ad91a4886040518082805190602001908083835b602083106108f65780518252601f1990920191602091820191016108d7565b6001836020036101000a0380198251168184511680821785525050505050509050019150506040518091039020856001600160a01b0316846001600160a01b03167f437e99a69c634128e67a85656b80d03b028ba37525b15070606e5c28e846984a8b8b8b604051808060200180602001848152602001838103835286818151815260200191508051906020019080838360005b838110156109a257818101518382015260200161098a565b50505050905090810190601f1680156109cf5780820380516001836020036101000a031916815260200191505b50838103825285518152855160209182019187019080838360005b83811015610a025781810151838201526020016109ea565b50505050905090810190601f168015610a2f5780820380516001836020036101000a031916815260200191505b509550505050505060405180910390a450506002805460010190559695505050505050565b6000805b600054811015610aa357826001600160a01b031660008281548110610a7957fe5b6000918252602090912001546001600160a01b03161415610a9b5790506103fb565b600101610a58565b50919050565b3b151590565b6000808260601b9050604051733d602d80600a3d3981f3363d3d373d3d3d363d7360601b81528160148201526e5af43d82803e903d91602b57fd5bf360881b60288201526037816000f0604080516001600160a01b038316815290519194507f117c72e6c25f0a072e36e148df71468ce2f3dbe7defec5b2c257a6e3eb65278c925081900360200190a15091905056fe4454466163746f72793a20556e61626c6520746f20696e697469616c697a6520746f6b656e20696e7374616e63654454466163746f72793a207a65726f20636170206973206e6f7420616c6c6f7765644454466163746f72793a204661696c656420746f20706572666f726d206d696e696d616c206465706c6f79206f662061206e657720746f6b656e4e4f54204d494e5445525f524f4c452c206e6f7420616c6c6f77656420746f2063726561746554656d706c61746520616464726573732063616e6e6f74206265207a65726f2061646472657373a2646970667358221220bb8c41d996391d15937cba6ffb8ab53ded1cc20c2d91545c93a04bc16c8d8cdc64736f6c634300060600334454466163746f72793a20496e76616c69642074656d706c61746520746f6b656e2f636f6d6d756e6974792066656520636f6c6c6563746f722061646472657373",
  "immutableReferences": {},
  "source": "pragma solidity >=0.6.0;\n// Copyright BigchainDB GmbH and Ocean Protocol contributors\n// SPDX-License-Identifier: (Apache-2.0 AND CC-BY-4.0)\n// Code is Apache-2.0 and docs are CC-BY-4.0\n\nimport \"./utils/Deployer.sol\";\nimport \"./interfaces/IERC20Template.sol\";\nimport \"./interfaces/IERC721Template.sol\";\n\n/**\n * @title DTFactory contract\n * @author Ocean Protocol Team\n *\n * @dev Implementation of Ocean DataTokens Factory\n *\n *      DTFactory deploys DataToken proxy contracts.\n *      New DataToken proxy contracts are links to the template contract's bytecode.\n *      Proxy contract functionality is based on Ocean Protocol custom implementation of ERC1167 standard.\n */\ncontract ERC20Factory is Deployer {\n    address[] public tokenTemplate;\n    address private communityFeeCollector;\n    uint256 private currentTokenCount = 1;\n    bytes32 public constant MINTER_ROLE = keccak256(\"MINTER_ROLE\");\n\n    mapping(address => uint256) templates;\n\n    event TokenCreated(\n        address indexed newTokenAddress,\n        address indexed templateAddress,\n        string indexed tokenName\n    );\n\n    event TokenRegistered(\n        address indexed tokenAddress,\n        string tokenName,\n        string tokenSymbol,\n        uint256 tokenCap,\n        address indexed registeredBy,\n        string indexed blob\n    );\n\n    /**\n     * @dev constructor\n     *      Called on contract deployment. Could not be called with zero address parameters.\n     * @param _template refers to the address of a deployed DataToken contract.\n     * @param _collector refers to the community fee collector address\n     */\n    constructor(address _template, address _collector) public {\n        require(\n            _template != address(0) && _collector != address(0),\n            \"DTFactory: Invalid template token/community fee collector address\"\n        );\n        tokenTemplate.push(_template);\n        //tokenTemplate = _template;\n        communityFeeCollector = _collector;\n    }\n\n    /**\n     * @dev Deploys new DataToken proxy contract.\n     *      Template contract address could not be a zero address.\n     * @param blob any string that hold data/metadata for the new token\n     * @param name token name\n     * @param symbol token symbol\n     * @param cap the maximum total supply\n     * @return token address of a new proxy DataToken contract\n     */\n    function createToken(\n        string memory blob,\n        string memory name,\n        string memory symbol,\n        uint256 cap,\n        address from,\n        uint256 templateIndex\n    ) public returns (address token) {\n        require(_isContract(msg.sender),'NOT CONTRACT');\n        require(cap != 0, \"DTFactory: zero cap is not allowed\");\n\n        token = deploy(tokenTemplate[templateIndex]);\n\n        require(\n            token != address(0),\n            \"DTFactory: Failed to perform minimal deploy of a new token\"\n        );\n        IERC20Template tokenInstance = IERC20Template(token);\n\n        IERC721Template erc721Instance = IERC721Template(msg.sender);\n\n        require(\n            erc721Instance.hasRole(MINTER_ROLE, from),\n            \"NOT MINTER_ROLE, not allowed to create\"\n        );\n\n        require(\n            tokenInstance.initialize(\n                name,\n                symbol,\n                from,\n                cap,\n                blob,\n                communityFeeCollector\n            ),\n            \"DTFactory: Unable to initialize token instance\"\n        );\n        emit TokenCreated(token, tokenTemplate[0], name);\n        emit TokenRegistered(token, name, symbol, cap, from, blob);\n        currentTokenCount += 1;\n    }\n\n    /**\n     * @dev get the current token count.\n     * @return the current token count\n     */\n    function getCurrentTokenCount() external view returns (uint256) {\n        return currentTokenCount;\n    }\n\n    /**\n     * @dev get the token template address\n     * @return the template address\n     */\n    function getTokenTemplateAddress(uint256 templateIndex)\n        external\n        view\n        returns (address)\n    {\n        return tokenTemplate[templateIndex];\n    }\n\n    function addTokenTemplate(address templateAddress)\n        external\n        returns (uint256 index)\n    {   \n        require(templateAddress != address(0),'Template address cannot be zero address');\n        index = tokenTemplate.length;\n        tokenTemplate.push(templateAddress);\n    }\n\n    function getTokenTemplateIndex(address templateAddress) public view returns (uint) {\n        uint256 i;\n\n        for (i = 0; i < tokenTemplate.length; i++) {\n            if (tokenTemplate[i] == templateAddress) {\n                return i;\n            }  // could be any value big enough to avoid misunderstanding\n        } \n\n      \n    }\n  \n         /**\n     * @dev Internal function if address is contract\n     */\n    function _isContract(address address_) internal view returns (bool) {\n        uint256 size;\n        assembly { size := extcodesize(address_) }\n        return size > 0;\n    }\n}\n",
  "sourcePath": "/home/andrea/ocean/v4/contracts/ERC20Factory.sol",
  "compiler": {
    "name": "solc",
    "version": "0.6.6+commit.6c089d02.Emscripten.clang"
  },
  "schemaVersion": "3.2.4",
  "updatedAt": "2021-04-20T17:52:10.873Z",
  "devdoc": {
    "author": "Ocean Protocol Team",
    "details": "Implementation of Ocean DataTokens Factory *      DTFactory deploys DataToken proxy contracts.     New DataToken proxy contracts are links to the template contract's bytecode.     Proxy contract functionality is based on Ocean Protocol custom implementation of ERC1167 standard.",
    "methods": {
      "constructor": {
        "details": "constructor     Called on contract deployment. Could not be called with zero address parameters.",
        "params": {
          "_collector": "refers to the community fee collector address",
          "_template": "refers to the address of a deployed DataToken contract."
        }
      },
      "createToken(string,string,string,uint256,address,uint256)": {
        "details": "Deploys new DataToken proxy contract.     Template contract address could not be a zero address.",
        "params": {
          "blob": "any string that hold data/metadata for the new token",
          "cap": "the maximum total supply",
          "name": "token name",
          "symbol": "token symbol"
        },
        "returns": {
          "token": "address of a new proxy DataToken contract"
        }
      },
      "getCurrentTokenCount()": {
        "details": "get the current token count.",
        "returns": {
          "_0": "the current token count"
        }
      },
      "getTokenTemplateAddress(uint256)": {
        "details": "get the token template address",
        "returns": {
          "_0": "the template address"
        }
      }
    },
    "title": "DTFactory contract"
  },
  "userdoc": {
    "methods": {}
  }
}