{
  "contractName": "ERC721Factory",
  "abi": [
    {
      "inputs": [
        {
          "internalType": "address",
          "name": "_template",
          "type": "address"
        },
        {
          "internalType": "address",
          "name": "_collector",
          "type": "address"
        }
      ],
      "stateMutability": "nonpayable",
      "type": "constructor"
    },
    {
      "anonymous": false,
      "inputs": [
        {
          "indexed": false,
          "internalType": "address",
          "name": "instance",
          "type": "address"
        }
      ],
      "name": "InstanceDeployed",
      "type": "event"
    },
    {
      "anonymous": false,
      "inputs": [
        {
          "indexed": true,
          "internalType": "address",
          "name": "newTokenAddress",
          "type": "address"
        },
        {
          "indexed": true,
          "internalType": "address",
          "name": "templateAddress",
          "type": "address"
        },
        {
          "indexed": true,
          "internalType": "string",
          "name": "tokenName",
          "type": "string"
        },
        {
          "indexed": false,
          "internalType": "address",
          "name": "admin",
          "type": "address"
        }
      ],
      "name": "TokenCreated",
      "type": "event"
    },
    {
      "anonymous": false,
      "inputs": [
        {
          "indexed": true,
          "internalType": "address",
          "name": "tokenAddress",
          "type": "address"
        },
        {
          "indexed": false,
          "internalType": "string",
          "name": "tokenName",
          "type": "string"
        },
        {
          "indexed": false,
          "internalType": "string",
          "name": "tokenSymbol",
          "type": "string"
        },
        {
          "indexed": false,
          "internalType": "uint256",
          "name": "tokenCap",
          "type": "uint256"
        },
        {
          "indexed": true,
          "internalType": "address",
          "name": "registeredBy",
          "type": "address"
        },
        {
          "indexed": true,
          "internalType": "string",
          "name": "blob",
          "type": "string"
        }
      ],
      "name": "TokenRegistered",
      "type": "event"
    },
    {
      "inputs": [
        {
          "internalType": "string",
          "name": "name",
          "type": "string"
        },
        {
          "internalType": "string",
          "name": "symbol",
          "type": "string"
        },
        {
          "internalType": "address",
          "name": "admin",
          "type": "address"
        }
      ],
      "name": "createERC721Token",
      "outputs": [
        {
          "internalType": "address",
          "name": "token",
          "type": "address"
        }
      ],
      "stateMutability": "nonpayable",
      "type": "function"
    },
    {
      "inputs": [],
      "name": "getCurrentTokenCount",
      "outputs": [
        {
          "internalType": "uint256",
          "name": "",
          "type": "uint256"
        }
      ],
      "stateMutability": "view",
      "type": "function"
    },
    {
      "inputs": [],
      "name": "getTokenTemplate",
      "outputs": [
        {
          "internalType": "address",
          "name": "",
          "type": "address"
        }
      ],
      "stateMutability": "view",
      "type": "function"
    }
  ],
  "bytecode": "0x6080604052600160025534801561001557600080fd5b50604051610a71380380610a718339818101604052604081101561003857600080fd5b810190808051906020019092919080519060200190929190505050600073ffffffffffffffffffffffffffffffffffffffff168273ffffffffffffffffffffffffffffffffffffffff16141580156100bd5750600073ffffffffffffffffffffffffffffffffffffffff168173ffffffffffffffffffffffffffffffffffffffff1614155b610112576040517f08c379a0000000000000000000000000000000000000000000000000000000008152600401808060200182810382526047815260200180610a2a6047913960600191505060405180910390fd5b816000806101000a81548173ffffffffffffffffffffffffffffffffffffffff021916908373ffffffffffffffffffffffffffffffffffffffff16021790555080600160006101000a81548173ffffffffffffffffffffffffffffffffffffffff021916908373ffffffffffffffffffffffffffffffffffffffff1602179055505050610886806101a46000396000f3fe608060405234801561001057600080fd5b50600436106100415760003560e01c80631716edd114610046578063490aad76146101f8578063c6cf868a14610242575b600080fd5b6101b66004803603606081101561005c57600080fd5b810190808035906020019064010000000081111561007957600080fd5b82018360208201111561008b57600080fd5b803590602001918460018302840111640100000000831117156100ad57600080fd5b91908080601f016020809104026020016040519081016040528093929190818152602001838380828437600081840152601f19601f8201169050808301925050505050505091929192908035906020019064010000000081111561011057600080fd5b82018360208201111561012257600080fd5b8035906020019184600183028401116401000000008311171561014457600080fd5b91908080601f016020809104026020016040519081016040528093929190818152602001838380828437600081840152601f19601f820116905080830192505050505050509192919290803573ffffffffffffffffffffffffffffffffffffffff169060200190929190505050610260565b604051808273ffffffffffffffffffffffffffffffffffffffff1673ffffffffffffffffffffffffffffffffffffffff16815260200191505060405180910390f35b6102006106b3565b604051808273ffffffffffffffffffffffffffffffffffffffff1673ffffffffffffffffffffffffffffffffffffffff16815260200191505060405180910390f35b61024a6106dc565b6040518082815260200191505060405180910390f35b60008073ffffffffffffffffffffffffffffffffffffffff168273ffffffffffffffffffffffffffffffffffffffff1614156102e7576040517f08c379a000000000000000000000000000000000000000000000000000000000815260040180806020018281038252602f8152602001806107e2602f913960400191505060405180910390fd5b6103116000809054906101000a900473ffffffffffffffffffffffffffffffffffffffff166106e6565b9050600073ffffffffffffffffffffffffffffffffffffffff168173ffffffffffffffffffffffffffffffffffffffff161415610399576040517f08c379a00000000000000000000000000000000000000000000000000000000081526004018080602001828103825260408152602001806108116040913960400191505060405180910390fd5b60008190508073ffffffffffffffffffffffffffffffffffffffff1663906571478487876040518463ffffffff1660e01b8152600401808473ffffffffffffffffffffffffffffffffffffffff1673ffffffffffffffffffffffffffffffffffffffff1681526020018060200180602001838103835285818151815260200191508051906020019080838360005b83811015610442578082015181840152602081019050610427565b50505050905090810190601f16801561046f5780820380516001836020036101000a031916815260200191505b50838103825284818151815260200191508051906020019080838360005b838110156104a857808201518184015260208101905061048d565b50505050905090810190601f1680156104d55780820380516001836020036101000a031916815260200191505b5095505050505050602060405180830381600087803b1580156104f757600080fd5b505af115801561050b573d6000803e3d6000fd5b505050506040513d602081101561052157600080fd5b8101908080519060200190929190505050610587576040517f08c379a000000000000000000000000000000000000000000000000000000000815260040180806020018281038252602e8152602001806107b4602e913960400191505060405180910390fd5b846040518082805190602001908083835b602083106105bb5780518252602082019150602081019050602083039250610598565b6001836020036101000a03801982511681845116808217855250505050505090500191505060405180910390206000809054906101000a900473ffffffffffffffffffffffffffffffffffffffff1673ffffffffffffffffffffffffffffffffffffffff168373ffffffffffffffffffffffffffffffffffffffff167f4489342c6a0fb1764158e856bdba2fc74b022f4ea0096f36218be0d8f4ca592a86604051808273ffffffffffffffffffffffffffffffffffffffff1673ffffffffffffffffffffffffffffffffffffffff16815260200191505060405180910390a46001600260008282540192505081905550509392505050565b60008060009054906101000a900473ffffffffffffffffffffffffffffffffffffffff16905090565b6000600254905090565b6000808260601b90506040517f3d602d80600a3d3981f3363d3d373d3d3d363d7300000000000000000000000081528160148201527f5af43d82803e903d91602b57fd5bf3000000000000000000000000000000000060288201526037816000f09250507f117c72e6c25f0a072e36e148df71468ce2f3dbe7defec5b2c257a6e3eb65278c82604051808273ffffffffffffffffffffffffffffffffffffffff1673ffffffffffffffffffffffffffffffffffffffff16815260200191505060405180910390a15091905056fe4454466163746f72793a20556e61626c6520746f20696e697469616c697a6520746f6b656e20696e7374616e63654552433732314454466163746f72793a207a65726f20616464726573732061646d696e206e6f7420616c6c6f7765644552433732314454466163746f72793a204661696c656420746f20706572666f726d206d696e696d616c206465706c6f79206f662061206e657720746f6b656ea26469706673582212208d4163b30baf4bff5720061fefecf61d2aec5edb268f6f0395837b10c6cbd0e764736f6c634300060600334552433732314454466163746f72793a20496e76616c69642074656d706c61746520746f6b656e2f636f6d6d756e6974792066656520636f6c6c6563746f722061646472657373",
  "immutableReferences": {},
  "source": "pragma solidity >=0.6.0;\n// Copyright BigchainDB GmbH and Ocean Protocol contributors\n// SPDX-License-Identifier: (Apache-2.0 AND CC-BY-4.0)\n// Code is Apache-2.0 and docs are CC-BY-4.0\n\nimport './utils/Deployer.sol';\nimport './interfaces/IERC721Template.sol';\n\n/**\n * @title DTFactory contract\n * @author Ocean Protocol Team\n *\n * @dev Implementation of Ocean DataTokens Factory\n *\n *      DTFactory deploys DataToken proxy contracts.\n *      New DataToken proxy contracts are links to the template contract's bytecode.\n *      Proxy contract functionality is based on Ocean Protocol custom implementation of ERC1167 standard.\n */\ncontract ERC721Factory is Deployer {\n    address private tokenTemplate;\n    address private communityFeeCollector;\n    uint256 private currentTokenCount = 1;\n\n    event TokenCreated(\n        address indexed newTokenAddress,\n        address indexed templateAddress,\n        string indexed tokenName,\n        address admin\n    );\n\n    event TokenRegistered(\n        address indexed tokenAddress,\n        string tokenName,\n        string tokenSymbol,\n        uint256 tokenCap,\n        address indexed registeredBy,\n        string indexed blob\n    );\n\n    /**\n     * @dev constructor\n     *      Called on contract deployment. Could not be called with zero address parameters.\n     * @param _template refers to the address of a deployed DataToken contract.\n     * @param _collector refers to the community fee collector address\n     */\n    constructor(\n        address _template,\n        address _collector\n    ) public {\n        require(\n            _template != address(0) &&\n            _collector != address(0),\n            'ERC721DTFactory: Invalid template token/community fee collector address'\n        );\n        tokenTemplate = _template;\n        communityFeeCollector = _collector;\n    }\n\n \n    function createERC721Token(\n        string memory name,\n        string memory symbol,\n        address admin\n    )\n        public\n        returns (address token)\n    {\n        require(\n            admin != address(0),\n            'ERC721DTFactory: zero address admin not allowed'\n        );\n\n        token = deploy(tokenTemplate);\n\n        require(\n            token != address(0),\n            'ERC721DTFactory: Failed to perform minimal deploy of a new token'\n        );\n\n        IERC721Template tokenInstance = IERC721Template(token);\n        require(\n            tokenInstance.initialize(\n                admin,\n                name,\n                symbol\n            ),\n            'DTFactory: Unable to initialize token instance'\n        );\n        emit TokenCreated(token, tokenTemplate, name,admin);\n        // emit TokenRegistered(\n        //     token,\n        //     name,\n        //     symbol,\n        //\n        //     msg.sender,\n        // );\n        currentTokenCount += 1;\n    }\n\n    /**\n     * @dev get the current token count.\n     * @return the current token count\n     */\n    function getCurrentTokenCount() external view returns (uint256) {\n        return currentTokenCount;\n    }\n\n    /**\n     * @dev get the token template address\n     * @return the template address\n     */\n    function getTokenTemplate() external view returns (address) {\n        return tokenTemplate;\n    }\n}\n",
  "sourcePath": "/home/andrea/ocean/v4/contracts/ERC721Factory.sol",
  "compiler": {
    "name": "solc",
    "version": "0.6.6+commit.6c089d02.Emscripten.clang"
  },
  "schemaVersion": "3.2.4",
  "updatedAt": "2021-04-16T16:54:09.647Z",
  "devdoc": {
    "author": "Ocean Protocol Team",
    "details": "Implementation of Ocean DataTokens Factory *      DTFactory deploys DataToken proxy contracts.     New DataToken proxy contracts are links to the template contract's bytecode.     Proxy contract functionality is based on Ocean Protocol custom implementation of ERC1167 standard.",
    "methods": {
      "constructor": {
        "details": "constructor     Called on contract deployment. Could not be called with zero address parameters.",
        "params": {
          "_collector": "refers to the community fee collector address",
          "_template": "refers to the address of a deployed DataToken contract."
        }
      },
      "getCurrentTokenCount()": {
        "details": "get the current token count.",
        "returns": {
          "_0": "the current token count"
        }
      },
      "getTokenTemplate()": {
        "details": "get the token template address",
        "returns": {
          "_0": "the template address"
        }
      }
    },
    "title": "DTFactory contract"
  },
  "userdoc": {
    "methods": {}
  }
}