{
  "contractName": "ERC721Template",
  "abi": [
    {
      "inputs": [
        {
          "internalType": "string",
          "name": "name",
          "type": "string"
        },
        {
          "internalType": "string",
          "name": "symbol",
          "type": "string"
        },
        {
          "internalType": "address",
          "name": "admin",
          "type": "address"
        },
        {
          "internalType": "bytes",
          "name": "_data",
          "type": "bytes"
        },
        {
          "internalType": "bytes",
          "name": "flags",
          "type": "bytes"
        },
        {
          "internalType": "address",
          "name": "metadata",
          "type": "address"
        }
      ],
      "stateMutability": "nonpayable",
      "type": "constructor"
    },
    {
      "anonymous": false,
      "inputs": [
        {
          "indexed": true,
          "internalType": "address",
          "name": "owner",
          "type": "address"
        },
        {
          "indexed": true,
          "internalType": "address",
          "name": "approved",
          "type": "address"
        },
        {
          "indexed": true,
          "internalType": "uint256",
          "name": "tokenId",
          "type": "uint256"
        }
      ],
      "name": "Approval",
      "type": "event"
    },
    {
      "anonymous": false,
      "inputs": [
        {
          "indexed": true,
          "internalType": "address",
          "name": "owner",
          "type": "address"
        },
        {
          "indexed": true,
          "internalType": "address",
          "name": "operator",
          "type": "address"
        },
        {
          "indexed": false,
          "internalType": "bool",
          "name": "approved",
          "type": "bool"
        }
      ],
      "name": "ApprovalForAll",
      "type": "event"
    },
    {
      "anonymous": false,
      "inputs": [
        {
          "indexed": true,
          "internalType": "bytes32",
          "name": "role",
          "type": "bytes32"
        },
        {
          "indexed": true,
          "internalType": "bytes32",
          "name": "previousAdminRole",
          "type": "bytes32"
        },
        {
          "indexed": true,
          "internalType": "bytes32",
          "name": "newAdminRole",
          "type": "bytes32"
        }
      ],
      "name": "RoleAdminChanged",
      "type": "event"
    },
    {
      "anonymous": false,
      "inputs": [
        {
          "indexed": true,
          "internalType": "bytes32",
          "name": "role",
          "type": "bytes32"
        },
        {
          "indexed": true,
          "internalType": "address",
          "name": "account",
          "type": "address"
        },
        {
          "indexed": true,
          "internalType": "address",
          "name": "sender",
          "type": "address"
        }
      ],
      "name": "RoleGranted",
      "type": "event"
    },
    {
      "anonymous": false,
      "inputs": [
        {
          "indexed": true,
          "internalType": "bytes32",
          "name": "role",
          "type": "bytes32"
        },
        {
          "indexed": true,
          "internalType": "address",
          "name": "account",
          "type": "address"
        },
        {
          "indexed": true,
          "internalType": "address",
          "name": "sender",
          "type": "address"
        }
      ],
      "name": "RoleRevoked",
      "type": "event"
    },
    {
      "anonymous": false,
      "inputs": [
        {
          "indexed": true,
          "internalType": "address",
          "name": "from",
          "type": "address"
        },
        {
          "indexed": true,
          "internalType": "address",
          "name": "to",
          "type": "address"
        },
        {
          "indexed": true,
          "internalType": "uint256",
          "name": "tokenId",
          "type": "uint256"
        }
      ],
      "name": "Transfer",
      "type": "event"
    },
    {
      "inputs": [],
      "name": "DEFAULT_ADMIN_ROLE",
      "outputs": [
        {
          "internalType": "bytes32",
          "name": "",
          "type": "bytes32"
        }
      ],
      "stateMutability": "view",
      "type": "function"
    },
    {
      "inputs": [],
      "name": "METADATA_ROLE",
      "outputs": [
        {
          "internalType": "bytes32",
          "name": "",
          "type": "bytes32"
        }
      ],
      "stateMutability": "view",
      "type": "function"
    },
    {
      "inputs": [],
      "name": "MINTER_ROLE",
      "outputs": [
        {
          "internalType": "bytes32",
          "name": "",
          "type": "bytes32"
        }
      ],
      "stateMutability": "view",
      "type": "function"
    },
    {
      "inputs": [],
      "name": "_metadata",
      "outputs": [
        {
          "internalType": "address",
          "name": "",
          "type": "address"
        }
      ],
      "stateMutability": "view",
      "type": "function"
    },
    {
      "inputs": [
        {
          "internalType": "address",
          "name": "to",
          "type": "address"
        },
        {
          "internalType": "uint256",
          "name": "tokenId",
          "type": "uint256"
        }
      ],
      "name": "approve",
      "outputs": [],
      "stateMutability": "nonpayable",
      "type": "function"
    },
    {
      "inputs": [
        {
          "internalType": "address",
          "name": "owner",
          "type": "address"
        }
      ],
      "name": "balanceOf",
      "outputs": [
        {
          "internalType": "uint256",
          "name": "",
          "type": "uint256"
        }
      ],
      "stateMutability": "view",
      "type": "function"
    },
    {
      "inputs": [],
      "name": "baseURI",
      "outputs": [
        {
          "internalType": "string",
          "name": "",
          "type": "string"
        }
      ],
      "stateMutability": "view",
      "type": "function"
    },
    {
      "inputs": [
        {
          "internalType": "uint256",
          "name": "tokenId",
          "type": "uint256"
        }
      ],
      "name": "getApproved",
      "outputs": [
        {
          "internalType": "address",
          "name": "",
          "type": "address"
        }
      ],
      "stateMutability": "view",
      "type": "function"
    },
    {
      "inputs": [
        {
          "internalType": "bytes32",
          "name": "role",
          "type": "bytes32"
        }
      ],
      "name": "getRoleAdmin",
      "outputs": [
        {
          "internalType": "bytes32",
          "name": "",
          "type": "bytes32"
        }
      ],
      "stateMutability": "view",
      "type": "function"
    },
    {
      "inputs": [
        {
          "internalType": "bytes32",
          "name": "role",
          "type": "bytes32"
        },
        {
          "internalType": "uint256",
          "name": "index",
          "type": "uint256"
        }
      ],
      "name": "getRoleMember",
      "outputs": [
        {
          "internalType": "address",
          "name": "",
          "type": "address"
        }
      ],
      "stateMutability": "view",
      "type": "function"
    },
    {
      "inputs": [
        {
          "internalType": "bytes32",
          "name": "role",
          "type": "bytes32"
        }
      ],
      "name": "getRoleMemberCount",
      "outputs": [
        {
          "internalType": "uint256",
          "name": "",
          "type": "uint256"
        }
      ],
      "stateMutability": "view",
      "type": "function"
    },
    {
      "inputs": [
        {
          "internalType": "bytes32",
          "name": "role",
          "type": "bytes32"
        },
        {
          "internalType": "address",
          "name": "account",
          "type": "address"
        }
      ],
      "name": "grantRole",
      "outputs": [],
      "stateMutability": "nonpayable",
      "type": "function"
    },
    {
      "inputs": [
        {
          "internalType": "bytes32",
          "name": "role",
          "type": "bytes32"
        },
        {
          "internalType": "address",
          "name": "account",
          "type": "address"
        }
      ],
      "name": "hasRole",
      "outputs": [
        {
          "internalType": "bool",
          "name": "",
          "type": "bool"
        }
      ],
      "stateMutability": "view",
      "type": "function"
    },
    {
      "inputs": [
        {
          "internalType": "address",
          "name": "owner",
          "type": "address"
        },
        {
          "internalType": "address",
          "name": "operator",
          "type": "address"
        }
      ],
      "name": "isApprovedForAll",
      "outputs": [
        {
          "internalType": "bool",
          "name": "",
          "type": "bool"
        }
      ],
      "stateMutability": "view",
      "type": "function"
    },
    {
      "inputs": [
        {
          "internalType": "uint256",
          "name": "tokenId",
          "type": "uint256"
        }
      ],
      "name": "ownerOf",
      "outputs": [
        {
          "internalType": "address",
          "name": "",
          "type": "address"
        }
      ],
      "stateMutability": "view",
      "type": "function"
    },
    {
      "inputs": [
        {
          "internalType": "bytes32",
          "name": "role",
          "type": "bytes32"
        },
        {
          "internalType": "address",
          "name": "account",
          "type": "address"
        }
      ],
      "name": "renounceRole",
      "outputs": [],
      "stateMutability": "nonpayable",
      "type": "function"
    },
    {
      "inputs": [
        {
          "internalType": "bytes32",
          "name": "role",
          "type": "bytes32"
        },
        {
          "internalType": "address",
          "name": "account",
          "type": "address"
        }
      ],
      "name": "revokeRole",
      "outputs": [],
      "stateMutability": "nonpayable",
      "type": "function"
    },
    {
      "inputs": [
        {
          "internalType": "address",
          "name": "from",
          "type": "address"
        },
        {
          "internalType": "address",
          "name": "to",
          "type": "address"
        },
        {
          "internalType": "uint256",
          "name": "tokenId",
          "type": "uint256"
        }
      ],
      "name": "safeTransferFrom",
      "outputs": [],
      "stateMutability": "nonpayable",
      "type": "function"
    },
    {
      "inputs": [
        {
          "internalType": "address",
          "name": "from",
          "type": "address"
        },
        {
          "internalType": "address",
          "name": "to",
          "type": "address"
        },
        {
          "internalType": "uint256",
          "name": "tokenId",
          "type": "uint256"
        },
        {
          "internalType": "bytes",
          "name": "_data",
          "type": "bytes"
        }
      ],
      "name": "safeTransferFrom",
      "outputs": [],
      "stateMutability": "nonpayable",
      "type": "function"
    },
    {
      "inputs": [
        {
          "internalType": "address",
          "name": "operator",
          "type": "address"
        },
        {
          "internalType": "bool",
          "name": "approved",
          "type": "bool"
        }
      ],
      "name": "setApprovalForAll",
      "outputs": [],
      "stateMutability": "nonpayable",
      "type": "function"
    },
    {
      "inputs": [
        {
          "internalType": "bytes4",
          "name": "interfaceId",
          "type": "bytes4"
        }
      ],
      "name": "supportsInterface",
      "outputs": [
        {
          "internalType": "bool",
          "name": "",
          "type": "bool"
        }
      ],
      "stateMutability": "view",
      "type": "function"
    },
    {
      "inputs": [
        {
          "internalType": "uint256",
          "name": "index",
          "type": "uint256"
        }
      ],
      "name": "tokenByIndex",
      "outputs": [
        {
          "internalType": "uint256",
          "name": "",
          "type": "uint256"
        }
      ],
      "stateMutability": "view",
      "type": "function"
    },
    {
      "inputs": [
        {
          "internalType": "address",
          "name": "owner",
          "type": "address"
        },
        {
          "internalType": "uint256",
          "name": "index",
          "type": "uint256"
        }
      ],
      "name": "tokenOfOwnerByIndex",
      "outputs": [
        {
          "internalType": "uint256",
          "name": "",
          "type": "uint256"
        }
      ],
      "stateMutability": "view",
      "type": "function"
    },
    {
      "inputs": [
        {
          "internalType": "uint256",
          "name": "tokenId",
          "type": "uint256"
        }
      ],
      "name": "tokenURI",
      "outputs": [
        {
          "internalType": "string",
          "name": "",
          "type": "string"
        }
      ],
      "stateMutability": "view",
      "type": "function"
    },
    {
      "inputs": [],
      "name": "totalSupply",
      "outputs": [
        {
          "internalType": "uint256",
          "name": "",
          "type": "uint256"
        }
      ],
      "stateMutability": "view",
      "type": "function"
    },
    {
      "inputs": [
        {
          "internalType": "address",
          "name": "from",
          "type": "address"
        },
        {
          "internalType": "address",
          "name": "to",
          "type": "address"
        },
        {
          "internalType": "uint256",
          "name": "tokenId",
          "type": "uint256"
        }
      ],
      "name": "transferFrom",
      "outputs": [],
      "stateMutability": "nonpayable",
      "type": "function"
    },
    {
      "inputs": [
        {
          "internalType": "address",
          "name": "admin",
          "type": "address"
        },
        {
          "internalType": "string",
          "name": "name",
          "type": "string"
        },
        {
          "internalType": "string",
          "name": "symbol",
          "type": "string"
        }
      ],
      "name": "initialize",
      "outputs": [
        {
          "internalType": "bool",
          "name": "",
          "type": "bool"
        }
      ],
      "stateMutability": "nonpayable",
      "type": "function"
    },
    {
      "inputs": [
        {
          "internalType": "address",
          "name": "account",
          "type": "address"
        },
        {
          "internalType": "uint256",
          "name": "tokenId",
          "type": "uint256"
        }
      ],
      "name": "mint",
      "outputs": [],
      "stateMutability": "nonpayable",
      "type": "function"
    },
    {
      "inputs": [
        {
          "internalType": "bytes",
          "name": "flags",
          "type": "bytes"
        },
        {
          "internalType": "bytes",
          "name": "data",
          "type": "bytes"
        }
      ],
      "name": "update",
      "outputs": [],
      "stateMutability": "nonpayable",
      "type": "function"
    },
    {
      "inputs": [],
      "name": "name",
      "outputs": [
        {
          "internalType": "string",
          "name": "",
          "type": "string"
        }
      ],
      "stateMutability": "view",
      "type": "function"
    },
    {
      "inputs": [],
      "name": "symbol",
      "outputs": [
        {
          "internalType": "string",
          "name": "",
          "type": "string"
        }
      ],
      "stateMutability": "view",
      "type": "function"
    },
    {
      "inputs": [],
      "name": "isInitialized",
      "outputs": [
        {
          "internalType": "bool",
          "name": "",
          "type": "bool"
        }
      ],
      "stateMutability": "view",
      "type": "function"
    }
  ],
  "bytecode": "0x60806040523480156200001157600080fd5b5060405162004acb38038062004acb833981810160405260c08110156200003757600080fd5b81019080805160405193929190846401000000008211156200005857600080fd5b838201915060208201858111156200006f57600080fd5b82518660018202830111640100000000821117156200008d57600080fd5b8083526020830192505050908051906020019080838360005b83811015620000c3578082015181840152602081019050620000a6565b50505050905090810190601f168015620000f15780820380516001836020036101000a031916815260200191505b50604052602001805160405193929190846401000000008211156200011557600080fd5b838201915060208201858111156200012c57600080fd5b82518660018202830111640100000000821117156200014a57600080fd5b8083526020830192505050908051906020019080838360005b838110156200018057808201518184015260208101905062000163565b50505050905090810190601f168015620001ae5780820380516001836020036101000a031916815260200191505b506040526020018051906020019092919080516040519392919084640100000000821115620001dc57600080fd5b83820191506020820185811115620001f357600080fd5b82518660018202830111640100000000821117156200021157600080fd5b8083526020830192505050908051906020019080838360005b83811015620002475780820151818401526020810190506200022a565b50505050905090810190601f168015620002755780820380516001836020036101000a031916815260200191505b50604052602001805160405193929190846401000000008211156200029957600080fd5b83820191506020820185811115620002b057600080fd5b8251866001820283011164010000000082111715620002ce57600080fd5b8083526020830192505050908051906020019080838360005b8381101562000304578082015181840152602081019050620002e7565b50505050905090810190601f168015620003325780820380516001836020036101000a031916815260200191505b50604052602001805190602001909291905050508585620003606301ffc9a760e01b6200044f60201b60201c565b81600690805190602001906200037892919062000d59565b5080600790805190602001906200039192919062000d59565b50620003aa6380ac58cd60e01b6200044f60201b60201c565b620003c2635b5e139f60e01b6200044f60201b60201c565b620003da63780e9d6360e01b6200044f60201b60201c565b505080601060016101000a81548173ffffffffffffffffffffffffffffffffffffffff021916908373ffffffffffffffffffffffffffffffffffffffff160217905550620004308487876200055860201b60201c565b506200044382846200083260201b60201c565b50505050505062000e08565b63ffffffff60e01b817bffffffffffffffffffffffffffffffffffffffffffffffffffffffff19161415620004ec576040517f08c379a000000000000000000000000000000000000000000000000000000000815260040180806020018281038252601c8152602001807f4552433136353a20696e76616c696420696e746572666163652069640000000081525060200191505060405180910390fd5b6001600080837bffffffffffffffffffffffffffffffffffffffffffffffffffffffff19167bffffffffffffffffffffffffffffffffffffffffffffffffffffffff1916815260200190815260200160002060006101000a81548160ff02191690831515021790555050565b60008073ffffffffffffffffffffffffffffffffffffffff168473ffffffffffffffffffffffffffffffffffffffff161415620005e1576040517f08c379a000000000000000000000000000000000000000000000000000000000815260040180806020018281038252603081526020018062004a9b6030913960400191505060405180910390fd5b600073ffffffffffffffffffffffffffffffffffffffff16601060019054906101000a900473ffffffffffffffffffffffffffffffffffffffff1673ffffffffffffffffffffffffffffffffffffffff161415620006a7576040517f08c379a000000000000000000000000000000000000000000000000000000000815260040180806020018281038252601f8152602001807f4d6574616461746120616464726573732063616e6e6f74206265207a65726f0081525060200191505060405180910390fd5b620006bc6000801b8562000b5160201b60201c565b6200070360405180807f4d494e5445525f524f4c45000000000000000000000000000000000000000000815250600b01905060405180910390208562000b5160201b60201c565b6200074a60405180807f4d455441444154415f524f4c4500000000000000000000000000000000000000815250600d01905060405180910390208562000b5160201b60201c565b83600b60006101000a81548173ffffffffffffffffffffffffffffffffffffffff021916908373ffffffffffffffffffffffffffffffffffffffff16021790555083600c60006101000a81548173ffffffffffffffffffffffffffffffffffffffff021916908373ffffffffffffffffffffffffffffffffffffffff16021790555082600e9080519060200190620007e492919062000d59565b5081600f9080519060200190620007fd92919062000d59565b506001601060006101000a81548160ff021916908315150217905550601060009054906101000a900460ff1690509392505050565b6200087960405180807f4d455441444154415f524f4c4500000000000000000000000000000000000000815250600d01905060405180910390203362000b6760201b60201c565b620008ec576040517f08c379a00000000000000000000000000000000000000000000000000000000081526004018080602001828103825260118152602001807f4e4f54204d455441444154415f524f4c4500000000000000000000000000000081525060200191505060405180910390fd5b600073ffffffffffffffffffffffffffffffffffffffff16601060019054906101000a900473ffffffffffffffffffffffffffffffffffffffff1673ffffffffffffffffffffffffffffffffffffffff161415620009b2576040517f08c379a00000000000000000000000000000000000000000000000000000000081526004018080602001828103825260188152602001807f496e76616c6964204d657461646174612061646472657373000000000000000081525060200191505060405180910390fd5b601060019054906101000a900473ffffffffffffffffffffffffffffffffffffffff1673ffffffffffffffffffffffffffffffffffffffff1663827438143084846040518463ffffffff1660e01b8152600401808473ffffffffffffffffffffffffffffffffffffffff1673ffffffffffffffffffffffffffffffffffffffff1681526020018060200180602001838103835285818151815260200191508051906020019080838360005b8381101562000a7a57808201518184015260208101905062000a5d565b50505050905090810190601f16801562000aa85780820380516001836020036101000a031916815260200191505b50838103825284818151815260200191508051906020019080838360005b8381101562000ae357808201518184015260208101905062000ac6565b50505050905090810190601f16801562000b115780820380516001836020036101000a031916815260200191505b5095505050505050600060405180830381600087803b15801562000b3457600080fd5b505af115801562000b49573d6000803e3d6000fd5b505050505050565b62000b63828262000ba060201b60201c565b5050565b600062000b9882600a600086815260200190815260200160002060000162000c4460201b62002be41790919060201c565b905092915050565b62000bcf81600a600085815260200190815260200160002060000162000c7c60201b62002e7b1790919060201c565b1562000c405762000be562000cb460201b60201c565b73ffffffffffffffffffffffffffffffffffffffff168173ffffffffffffffffffffffffffffffffffffffff16837f2f8788117e7eff1d82e926ec794901d17c78024a50270940304540a733656f0d60405160405180910390a45b5050565b600062000c74836000018373ffffffffffffffffffffffffffffffffffffffff1660001b62000cbc60201b60201c565b905092915050565b600062000cac836000018373ffffffffffffffffffffffffffffffffffffffff1660001b62000cdf60201b60201c565b905092915050565b600033905090565b600080836001016000848152602001908152602001600020541415905092915050565b600062000cf3838362000cbc60201b60201c565b62000d4e57826000018290806001815401808255809150506001900390600052602060002001600090919091909150558260000180549050836001016000848152602001908152602001600020819055506001905062000d53565b600090505b92915050565b828054600181600116156101000203166002900490600052602060002090601f016020900481019282601f1062000d9c57805160ff191683800117855562000dcd565b8280016001018555821562000dcd579182015b8281111562000dcc57825182559160200191906001019062000daf565b5b50905062000ddc919062000de0565b5090565b62000e0591905b8082111562000e0157600081600090555060010162000de7565b5090565b90565b613c838062000e186000396000f3fe608060405234801561001057600080fd5b50600436106101f05760003560e01c80634f6ccce71161010f578063a217fddf116100a2578063ca15c87311610071578063ca15c87314610d85578063d539139314610dc7578063d547741f14610de5578063e985e9c514610e33576101f0565b8063a217fddf14610b6b578063a22cb46514610b89578063b88d4fde14610bd9578063c87b56dd14610cde576101f0565b80639010d07c116100de5780639010d07c14610904578063906571471461097c57806391d1485414610a8257806395d89b4114610ae8576101f0565b80634f6ccce7146107795780636352211e146107bb5780636c0360eb1461082957806370a08231146108ac576101f0565b80632f745c591161018757806339371b251161015657806339371b25146105a55780633f37dce2146105ef57806340c10f19146106bd57806342842e0e1461070b576101f0565b80632f745c59146104b557806336568abe146105175780633884178214610565578063392e53cd14610583576101f0565b806318160ddd116101c357806318160ddd1461039957806323b872dd146103b7578063248a9ca3146104255780632f2ff15d14610467576101f0565b806301ffc9a7146101f557806306fdde031461025a578063081812fc146102dd578063095ea7b31461034b575b600080fd5b6102406004803603602081101561020b57600080fd5b8101908080357bffffffffffffffffffffffffffffffffffffffffffffffffffffffff19169060200190929190505050610eaf565b604051808215151515815260200191505060405180910390f35b610262610f16565b6040518080602001828103825283818151815260200191508051906020019080838360005b838110156102a2578082015181840152602081019050610287565b50505050905090810190601f1680156102cf5780820380516001836020036101000a031916815260200191505b509250505060405180910390f35b610309600480360360208110156102f357600080fd5b8101908080359060200190929190505050610fb8565b604051808273ffffffffffffffffffffffffffffffffffffffff1673ffffffffffffffffffffffffffffffffffffffff16815260200191505060405180910390f35b6103976004803603604081101561036157600080fd5b81019080803573ffffffffffffffffffffffffffffffffffffffff16906020019092919080359060200190929190505050611053565b005b6103a1611197565b6040518082815260200191505060405180910390f35b610423600480360360608110156103cd57600080fd5b81019080803573ffffffffffffffffffffffffffffffffffffffff169060200190929190803573ffffffffffffffffffffffffffffffffffffffff169060200190929190803590602001909291905050506111a8565b005b6104516004803603602081101561043b57600080fd5b810190808035906020019092919050505061121e565b6040518082815260200191505060405180910390f35b6104b36004803603604081101561047d57600080fd5b8101908080359060200190929190803573ffffffffffffffffffffffffffffffffffffffff16906020019092919050505061123e565b005b610501600480360360408110156104cb57600080fd5b81019080803573ffffffffffffffffffffffffffffffffffffffff169060200190929190803590602001909291905050506112c8565b6040518082815260200191505060405180910390f35b6105636004803603604081101561052d57600080fd5b8101908080359060200190929190803573ffffffffffffffffffffffffffffffffffffffff169060200190929190505050611323565b005b61056d6113bc565b6040518082815260200191505060405180910390f35b61058b6113f5565b604051808215151515815260200191505060405180910390f35b6105ad61140c565b604051808273ffffffffffffffffffffffffffffffffffffffff1673ffffffffffffffffffffffffffffffffffffffff16815260200191505060405180910390f35b6106bb6004803603604081101561060557600080fd5b810190808035906020019064010000000081111561062257600080fd5b82018360208201111561063457600080fd5b8035906020019184600183028401116401000000008311171561065657600080fd5b90919293919293908035906020019064010000000081111561067757600080fd5b82018360208201111561068957600080fd5b803590602001918460018302840111640100000000831117156106ab57600080fd5b9091929391929390505050611432565b005b610709600480360360408110156106d357600080fd5b81019080803573ffffffffffffffffffffffffffffffffffffffff1690602001909291908035906020019092919050505061160a565b005b6107776004803603606081101561072157600080fd5b81019080803573ffffffffffffffffffffffffffffffffffffffff169060200190929190803573ffffffffffffffffffffffffffffffffffffffff169060200190929190803590602001909291905050506116c9565b005b6107a56004803603602081101561078f57600080fd5b81019080803590602001909291905050506116e9565b6040518082815260200191505060405180910390f35b6107e7600480360360208110156107d157600080fd5b810190808035906020019092919050505061170c565b604051808273ffffffffffffffffffffffffffffffffffffffff1673ffffffffffffffffffffffffffffffffffffffff16815260200191505060405180910390f35b610831611743565b6040518080602001828103825283818151815260200191508051906020019080838360005b83811015610871578082015181840152602081019050610856565b50505050905090810190601f16801561089e5780820380516001836020036101000a031916815260200191505b509250505060405180910390f35b6108ee600480360360208110156108c257600080fd5b81019080803573ffffffffffffffffffffffffffffffffffffffff1690602001909291905050506117e5565b6040518082815260200191505060405180910390f35b61093a6004803603604081101561091a57600080fd5b8101908080359060200190929190803590602001909291905050506118ba565b604051808273ffffffffffffffffffffffffffffffffffffffff1673ffffffffffffffffffffffffffffffffffffffff16815260200191505060405180910390f35b610a686004803603606081101561099257600080fd5b81019080803573ffffffffffffffffffffffffffffffffffffffff169060200190929190803590602001906401000000008111156109cf57600080fd5b8201836020820111156109e157600080fd5b80359060200191846001830284011164010000000083111715610a0357600080fd5b909192939192939080359060200190640100000000811115610a2457600080fd5b820183602082011115610a3657600080fd5b80359060200191846001830284011164010000000083111715610a5857600080fd5b90919293919293905050506118ec565b604051808215151515815260200191505060405180910390f35b610ace60048036036040811015610a9857600080fd5b8101908080359060200190929190803573ffffffffffffffffffffffffffffffffffffffff1690602001909291905050506119f2565b604051808215151515815260200191505060405180910390f35b610af0611a24565b6040518080602001828103825283818151815260200191508051906020019080838360005b83811015610b30578082015181840152602081019050610b15565b50505050905090810190601f168015610b5d5780820380516001836020036101000a031916815260200191505b509250505060405180910390f35b610b73611ac6565b6040518082815260200191505060405180910390f35b610bd760048036036040811015610b9f57600080fd5b81019080803573ffffffffffffffffffffffffffffffffffffffff169060200190929190803515159060200190929190505050611acd565b005b610cdc60048036036080811015610bef57600080fd5b81019080803573ffffffffffffffffffffffffffffffffffffffff169060200190929190803573ffffffffffffffffffffffffffffffffffffffff1690602001909291908035906020019092919080359060200190640100000000811115610c5657600080fd5b820183602082011115610c6857600080fd5b80359060200191846001830284011164010000000083111715610c8a57600080fd5b91908080601f016020809104026020016040519081016040528093929190818152602001838380828437600081840152601f19601f820116905080830192505050505050509192919290505050611c85565b005b610d0a60048036036020811015610cf457600080fd5b8101908080359060200190929190505050611cfd565b6040518080602001828103825283818151815260200191508051906020019080838360005b83811015610d4a578082015181840152602081019050610d2f565b50505050905090810190601f168015610d775780820380516001836020036101000a031916815260200191505b509250505060405180910390f35b610db160048036036020811015610d9b57600080fd5b8101908080359060200190929190505050611fce565b6040518082815260200191505060405180910390f35b610dcf611ff5565b6040518082815260200191505060405180910390f35b610e3160048036036040811015610dfb57600080fd5b8101908080359060200190929190803573ffffffffffffffffffffffffffffffffffffffff16906020019092919050505061202e565b005b610e9560048036036040811015610e4957600080fd5b81019080803573ffffffffffffffffffffffffffffffffffffffff169060200190929190803573ffffffffffffffffffffffffffffffffffffffff1690602001909291905050506120b8565b604051808215151515815260200191505060405180910390f35b6000806000837bffffffffffffffffffffffffffffffffffffffffffffffffffffffff19167bffffffffffffffffffffffffffffffffffffffffffffffffffffffff1916815260200190815260200160002060009054906101000a900460ff169050919050565b6060600e8054600181600116156101000203166002900480601f016020809104026020016040519081016040528092919081815260200182805460018160011615610100020316600290048015610fae5780601f10610f8357610100808354040283529160200191610fae565b820191906000526020600020905b815481529060010190602001808311610f9157829003601f168201915b5050505050905090565b6000610fc38261214c565b611018576040517f08c379a000000000000000000000000000000000000000000000000000000000815260040180806020018281038252602c815260200180613b17602c913960400191505060405180910390fd5b6004600083815260200190815260200160002060009054906101000a900473ffffffffffffffffffffffffffffffffffffffff169050919050565b600061105e8261170c565b90508073ffffffffffffffffffffffffffffffffffffffff168373ffffffffffffffffffffffffffffffffffffffff1614156110e5576040517f08c379a0000000000000000000000000000000000000000000000000000000008152600401808060200182810382526021815260200180613b9b6021913960400191505060405180910390fd5b8073ffffffffffffffffffffffffffffffffffffffff16611104612169565b73ffffffffffffffffffffffffffffffffffffffff16148061113357506111328161112d612169565b6120b8565b5b611188576040517f08c379a0000000000000000000000000000000000000000000000000000000008152600401808060200182810382526038815260200180613a3a6038913960400191505060405180910390fd5b6111928383612171565b505050565b60006111a3600261222a565b905090565b6111b96111b3612169565b8261223f565b61120e576040517f08c379a0000000000000000000000000000000000000000000000000000000008152600401808060200182810382526031815260200180613bbc6031913960400191505060405180910390fd5b611219838383612333565b505050565b6000600a6000838152602001908152602001600020600201549050919050565b611265600a600084815260200190815260200160002060020154611260612169565b6119f2565b6112ba576040517f08c379a000000000000000000000000000000000000000000000000000000000815260040180806020018281038252602f815260200180613933602f913960400191505060405180910390fd5b6112c48282612576565b5050565b600061131b82600160008673ffffffffffffffffffffffffffffffffffffffff1673ffffffffffffffffffffffffffffffffffffffff16815260200190815260200160002061260a90919063ffffffff16565b905092915050565b61132b612169565b73ffffffffffffffffffffffffffffffffffffffff168173ffffffffffffffffffffffffffffffffffffffff16146113ae576040517f08c379a000000000000000000000000000000000000000000000000000000000815260040180806020018281038252602f815260200180613c1f602f913960400191505060405180910390fd5b6113b88282612624565b5050565b60405180807f4d455441444154415f524f4c4500000000000000000000000000000000000000815250600d019050604051809103902081565b6000601060009054906101000a900460ff16905090565b601060019054906101000a900473ffffffffffffffffffffffffffffffffffffffff1681565b61147160405180807f4d455441444154415f524f4c4500000000000000000000000000000000000000815250600d0190506040518091039020336119f2565b6114e3576040517f08c379a00000000000000000000000000000000000000000000000000000000081526004018080602001828103825260118152602001807f4e4f54204d455441444154415f524f4c4500000000000000000000000000000081525060200191505060405180910390fd5b601060019054906101000a900473ffffffffffffffffffffffffffffffffffffffff1673ffffffffffffffffffffffffffffffffffffffff1663f89b1f3630868686866040518663ffffffff1660e01b8152600401808673ffffffffffffffffffffffffffffffffffffffff1673ffffffffffffffffffffffffffffffffffffffff16815260200180602001806020018381038352878782818152602001925080828437600081840152601f19601f8201169050808301925050508381038252858582818152602001925080828437600081840152601f19601f820116905080830192505050975050505050505050600060405180830381600087803b1580156115ec57600080fd5b505af1158015611600573d6000803e3d6000fd5b5050505050505050565b61164960405180807f4d494e5445525f524f4c45000000000000000000000000000000000000000000815250600b0190506040518091039020336119f2565b6116bb576040517f08c379a000000000000000000000000000000000000000000000000000000000815260040180806020018281038252600f8152602001807f4e4f54204d494e5445525f524f4c45000000000000000000000000000000000081525060200191505060405180910390fd5b6116c582826126b8565b5050565b6116e483838360405180602001604052806000815250611c85565b505050565b6000806117008360026128ac90919063ffffffff16565b50905080915050919050565b600061173c82604051806060016040528060298152602001613a9c6029913960026128db9092919063ffffffff16565b9050919050565b606060098054600181600116156101000203166002900480601f0160208091040260200160405190810160405280929190818152602001828054600181600116156101000203166002900480156117db5780601f106117b0576101008083540402835291602001916117db565b820191906000526020600020905b8154815290600101906020018083116117be57829003601f168201915b5050505050905090565b60008073ffffffffffffffffffffffffffffffffffffffff168273ffffffffffffffffffffffffffffffffffffffff16141561186c576040517f08c379a000000000000000000000000000000000000000000000000000000000815260040180806020018281038252602a815260200180613a72602a913960400191505060405180910390fd5b6118b3600160008473ffffffffffffffffffffffffffffffffffffffff1673ffffffffffffffffffffffffffffffffffffffff1681526020019081526020016000206128fa565b9050919050565b60006118e482600a600086815260200190815260200160002060000161290f90919063ffffffff16565b905092915050565b6000601060009054906101000a900460ff1615611954576040517f08c379a0000000000000000000000000000000000000000000000000000000008152600401808060200182810382526032815260200180613bed6032913960400191505060405180910390fd5b6119e78686868080601f016020809104026020016040519081016040528093929190818152602001838380828437600081840152601f19601f8201169050808301925050505050505085858080601f016020809104026020016040519081016040528093929190818152602001838380828437600081840152601f19601f82011690508083019250505050505050612929565b905095945050505050565b6000611a1c82600a6000868152602001908152602001600020600001612be490919063ffffffff16565b905092915050565b6060600f8054600181600116156101000203166002900480601f016020809104026020016040519081016040528092919081815260200182805460018160011615610100020316600290048015611abc5780601f10611a9157610100808354040283529160200191611abc565b820191906000526020600020905b815481529060010190602001808311611a9f57829003601f168201915b5050505050905090565b6000801b81565b611ad5612169565b73ffffffffffffffffffffffffffffffffffffffff168273ffffffffffffffffffffffffffffffffffffffff161415611b76576040517f08c379a00000000000000000000000000000000000000000000000000000000081526004018080602001828103825260198152602001807f4552433732313a20617070726f766520746f2063616c6c65720000000000000081525060200191505060405180910390fd5b8060056000611b83612169565b73ffffffffffffffffffffffffffffffffffffffff1673ffffffffffffffffffffffffffffffffffffffff16815260200190815260200160002060008473ffffffffffffffffffffffffffffffffffffffff1673ffffffffffffffffffffffffffffffffffffffff16815260200190815260200160002060006101000a81548160ff0219169083151502179055508173ffffffffffffffffffffffffffffffffffffffff16611c30612169565b73ffffffffffffffffffffffffffffffffffffffff167f17307eab39ab6107e8899845ad3d59bd9653f200f220920489ca2b5937696c3183604051808215151515815260200191505060405180910390a35050565b611c96611c90612169565b8361223f565b611ceb576040517f08c379a0000000000000000000000000000000000000000000000000000000008152600401808060200182810382526031815260200180613bbc6031913960400191505060405180910390fd5b611cf784848484612c14565b50505050565b6060611d088261214c565b611d5d576040517f08c379a000000000000000000000000000000000000000000000000000000000815260040180806020018281038252602f815260200180613b6c602f913960400191505060405180910390fd5b6060600860008481526020019081526020016000208054600181600116156101000203166002900480601f016020809104026020016040519081016040528092919081815260200182805460018160011615610100020316600290048015611e065780601f10611ddb57610100808354040283529160200191611e06565b820191906000526020600020905b815481529060010190602001808311611de957829003601f168201915b505050505090506060611e17611743565b9050600081511415611e2d578192505050611fc9565b600082511115611efe5780826040516020018083805190602001908083835b60208310611e6f5780518252602082019150602081019050602083039250611e4c565b6001836020036101000a03801982511681845116808217855250505050505090500182805190602001908083835b60208310611ec05780518252602082019150602081019050602083039250611e9d565b6001836020036101000a0380198251168184511680821785525050505050509050019250505060405160208183030381529060405292505050611fc9565b80611f0885612c86565b6040516020018083805190602001908083835b60208310611f3e5780518252602082019150602081019050602083039250611f1b565b6001836020036101000a03801982511681845116808217855250505050505090500182805190602001908083835b60208310611f8f5780518252602082019150602081019050602083039250611f6c565b6001836020036101000a03801982511681845116808217855250505050505090500192505050604051602081830303815290604052925050505b919050565b6000611fee600a6000848152602001908152602001600020600001612dcd565b9050919050565b60405180807f4d494e5445525f524f4c45000000000000000000000000000000000000000000815250600b019050604051809103902081565b612055600a600084815260200190815260200160002060020154612050612169565b6119f2565b6120aa576040517f08c379a0000000000000000000000000000000000000000000000000000000008152600401808060200182810382526030815260200180613a0a6030913960400191505060405180910390fd5b6120b48282612624565b5050565b6000600560008473ffffffffffffffffffffffffffffffffffffffff1673ffffffffffffffffffffffffffffffffffffffff16815260200190815260200160002060008373ffffffffffffffffffffffffffffffffffffffff1673ffffffffffffffffffffffffffffffffffffffff16815260200190815260200160002060009054906101000a900460ff16905092915050565b6000612162826002612de290919063ffffffff16565b9050919050565b600033905090565b816004600083815260200190815260200160002060006101000a81548173ffffffffffffffffffffffffffffffffffffffff021916908373ffffffffffffffffffffffffffffffffffffffff160217905550808273ffffffffffffffffffffffffffffffffffffffff166121e48361170c565b73ffffffffffffffffffffffffffffffffffffffff167f8c5be1e5ebec7d5bd14f71427d1e84f3dd0314c0f7b2291e5b200ac8c7c3b92560405160405180910390a45050565b600061223882600001612dfc565b9050919050565b600061224a8261214c565b61229f576040517f08c379a000000000000000000000000000000000000000000000000000000000815260040180806020018281038252602c8152602001806139de602c913960400191505060405180910390fd5b60006122aa8361170c565b90508073ffffffffffffffffffffffffffffffffffffffff168473ffffffffffffffffffffffffffffffffffffffff16148061231957508373ffffffffffffffffffffffffffffffffffffffff1661230184610fb8565b73ffffffffffffffffffffffffffffffffffffffff16145b8061232a575061232981856120b8565b5b91505092915050565b8273ffffffffffffffffffffffffffffffffffffffff166123538261170c565b73ffffffffffffffffffffffffffffffffffffffff16146123bf576040517f08c379a0000000000000000000000000000000000000000000000000000000008152600401808060200182810382526029815260200180613b436029913960400191505060405180910390fd5b600073ffffffffffffffffffffffffffffffffffffffff168273ffffffffffffffffffffffffffffffffffffffff161415612445576040517f08c379a00000000000000000000000000000000000000000000000000000000081526004018080602001828103825260248152602001806139946024913960400191505060405180910390fd5b612450838383612e0d565b61245b600082612171565b6124ac81600160008673ffffffffffffffffffffffffffffffffffffffff1673ffffffffffffffffffffffffffffffffffffffff168152602001908152602001600020612e1290919063ffffffff16565b506124fe81600160008573ffffffffffffffffffffffffffffffffffffffff1673ffffffffffffffffffffffffffffffffffffffff168152602001908152602001600020612e2c90919063ffffffff16565b5061251581836002612e469092919063ffffffff16565b50808273ffffffffffffffffffffffffffffffffffffffff168473ffffffffffffffffffffffffffffffffffffffff167fddf252ad1be2c89b69c2b068fc378daa952ba7f163c4a11628f55a4df523b3ef60405160405180910390a4505050565b61259e81600a6000858152602001908152602001600020600001612e7b90919063ffffffff16565b15612606576125ab612169565b73ffffffffffffffffffffffffffffffffffffffff168173ffffffffffffffffffffffffffffffffffffffff16837f2f8788117e7eff1d82e926ec794901d17c78024a50270940304540a733656f0d60405160405180910390a45b5050565b60006126198360000183612eab565b60001c905092915050565b61264c81600a6000858152602001908152602001600020600001612f2e90919063ffffffff16565b156126b457612659612169565b73ffffffffffffffffffffffffffffffffffffffff168173ffffffffffffffffffffffffffffffffffffffff16837ff6391f5c32d9c69d2a47ea670b442974b53935d1edc7fd64eb21e047a839171b60405160405180910390a45b5050565b600073ffffffffffffffffffffffffffffffffffffffff168273ffffffffffffffffffffffffffffffffffffffff16141561275b576040517f08c379a00000000000000000000000000000000000000000000000000000000081526004018080602001828103825260208152602001807f4552433732313a206d696e7420746f20746865207a65726f206164647265737381525060200191505060405180910390fd5b6127648161214c565b156127d7576040517f08c379a000000000000000000000000000000000000000000000000000000000815260040180806020018281038252601c8152602001807f4552433732313a20746f6b656e20616c7265616479206d696e7465640000000081525060200191505060405180910390fd5b6127e360008383612e0d565b61283481600160008573ffffffffffffffffffffffffffffffffffffffff1673ffffffffffffffffffffffffffffffffffffffff168152602001908152602001600020612e2c90919063ffffffff16565b5061284b81836002612e469092919063ffffffff16565b50808273ffffffffffffffffffffffffffffffffffffffff16600073ffffffffffffffffffffffffffffffffffffffff167fddf252ad1be2c89b69c2b068fc378daa952ba7f163c4a11628f55a4df523b3ef60405160405180910390a45050565b6000806000806128bf8660000186612f5e565b915091508160001c8160001c8090509350935050509250929050565b60006128ee846000018460001b84612ff7565b60001c90509392505050565b6000612908826000016130ed565b9050919050565b600061291e8360000183612eab565b60001c905092915050565b60008073ffffffffffffffffffffffffffffffffffffffff168473ffffffffffffffffffffffffffffffffffffffff1614156129b0576040517f08c379a0000000000000000000000000000000000000000000000000000000008152600401808060200182810382526030815260200180613ac56030913960400191505060405180910390fd5b600073ffffffffffffffffffffffffffffffffffffffff16601060019054906101000a900473ffffffffffffffffffffffffffffffffffffffff1673ffffffffffffffffffffffffffffffffffffffff161415612a75576040517f08c379a000000000000000000000000000000000000000000000000000000000815260040180806020018281038252601f8152602001807f4d6574616461746120616464726573732063616e6e6f74206265207a65726f0081525060200191505060405180910390fd5b612a826000801b856130fe565b612ac160405180807f4d494e5445525f524f4c45000000000000000000000000000000000000000000815250600b0190506040518091039020856130fe565b612b0060405180807f4d455441444154415f524f4c4500000000000000000000000000000000000000815250600d0190506040518091039020856130fe565b83600b60006101000a81548173ffffffffffffffffffffffffffffffffffffffff021916908373ffffffffffffffffffffffffffffffffffffffff16021790555083600c60006101000a81548173ffffffffffffffffffffffffffffffffffffffff021916908373ffffffffffffffffffffffffffffffffffffffff16021790555082600e9080519060200190612b9892919061386b565b5081600f9080519060200190612baf92919061386b565b506001601060006101000a81548160ff021916908315150217905550601060009054906101000a900460ff1690509392505050565b6000612c0c836000018373ffffffffffffffffffffffffffffffffffffffff1660001b61310c565b905092915050565b612c1f848484612333565b612c2b8484848461312f565b612c80576040517f08c379a00000000000000000000000000000000000000000000000000000000081526004018080602001828103825260328152602001806139626032913960400191505060405180910390fd5b50505050565b60606000821415612cce576040518060400160405280600181526020017f30000000000000000000000000000000000000000000000000000000000000008152509050612dc8565b600082905060005b60008214612cf8578080600101915050600a8281612cf057fe5b049150612cd6565b60608167ffffffffffffffff81118015612d1157600080fd5b506040519080825280601f01601f191660200182016040528015612d445781602001600182028036833780820191505090505b50905060006001830390508593505b60008414612dc057600a8481612d6557fe5b0660300160f81b82828060019003935081518110612d7f57fe5b60200101907effffffffffffffffffffffffffffffffffffffffffffffffffffffffffffff1916908160001a905350600a8481612db857fe5b049350612d53565b819450505050505b919050565b6000612ddb826000016130ed565b9050919050565b6000612df4836000018360001b613374565b905092915050565b600081600001805490509050919050565b505050565b6000612e24836000018360001b613397565b905092915050565b6000612e3e836000018360001b61347f565b905092915050565b6000612e72846000018460001b8473ffffffffffffffffffffffffffffffffffffffff1660001b6134ef565b90509392505050565b6000612ea3836000018373ffffffffffffffffffffffffffffffffffffffff1660001b61347f565b905092915050565b600081836000018054905011612f0c576040517f08c379a00000000000000000000000000000000000000000000000000000000081526004018080602001828103825260228152602001806139116022913960400191505060405180910390fd5b826000018281548110612f1b57fe5b9060005260206000200154905092915050565b6000612f56836000018373ffffffffffffffffffffffffffffffffffffffff1660001b613397565b905092915050565b60008082846000018054905011612fc0576040517f08c379a0000000000000000000000000000000000000000000000000000000008152600401808060200182810382526022815260200180613af56022913960400191505060405180910390fd5b6000846000018481548110612fd157fe5b906000526020600020906002020190508060000154816001015492509250509250929050565b600080846001016000858152602001908152602001600020549050600081141583906130be576040517f08c379a00000000000000000000000000000000000000000000000000000000081526004018080602001828103825283818151815260200191508051906020019080838360005b83811015613083578082015181840152602081019050613068565b50505050905090810190601f1680156130b05780820380516001836020036101000a031916815260200191505b509250505060405180910390fd5b508460000160018203815481106130d157fe5b9060005260206000209060020201600101549150509392505050565b600081600001805490509050919050565b6131088282612576565b5050565b600080836001016000848152602001908152602001600020541415905092915050565b60006131508473ffffffffffffffffffffffffffffffffffffffff166135cb565b61315d576001905061336c565b60606132f363150b7a0260e01b613172612169565b888787604051602401808573ffffffffffffffffffffffffffffffffffffffff1673ffffffffffffffffffffffffffffffffffffffff1681526020018473ffffffffffffffffffffffffffffffffffffffff1673ffffffffffffffffffffffffffffffffffffffff16815260200183815260200180602001828103825283818151815260200191508051906020019080838360005b83811015613222578082015181840152602081019050613207565b50505050905090810190601f16801561324f5780820380516001836020036101000a031916815260200191505b5095505050505050604051602081830303815290604052907bffffffffffffffffffffffffffffffffffffffffffffffffffffffff19166020820180517bffffffffffffffffffffffffffffffffffffffffffffffffffffffff8381831617835250505050604051806060016040528060328152602001613962603291398773ffffffffffffffffffffffffffffffffffffffff166135de9092919063ffffffff16565b9050600081806020019051602081101561330c57600080fd5b8101908080519060200190929190505050905063150b7a0260e01b7bffffffffffffffffffffffffffffffffffffffffffffffffffffffff1916817bffffffffffffffffffffffffffffffffffffffffffffffffffffffff191614925050505b949350505050565b600080836001016000848152602001908152602001600020541415905092915050565b6000808360010160008481526020019081526020016000205490506000811461347357600060018203905060006001866000018054905003905060008660000182815481106133e257fe5b90600052602060002001549050808760000184815481106133ff57fe5b906000526020600020018190555060018301876001016000838152602001908152602001600020819055508660000180548061343757fe5b60019003818190600052602060002001600090559055866001016000878152602001908152602001600020600090556001945050505050613479565b60009150505b92915050565b600061348b838361310c565b6134e45782600001829080600181540180825580915050600190039060005260206000200160009091909190915055826000018054905083600101600084815260200190815260200160002081905550600190506134e9565b600090505b92915050565b6000808460010160008581526020019081526020016000205490506000811415613596578460000160405180604001604052808681526020018581525090806001815401808255809150506001900390600052602060002090600202016000909190919091506000820151816000015560208201518160010155505084600001805490508560010160008681526020019081526020016000208190555060019150506135c4565b828560000160018303815481106135a957fe5b90600052602060002090600202016001018190555060009150505b9392505050565b600080823b905060008111915050919050565b60606135ed84846000856135f6565b90509392505050565b606082471015613651576040517f08c379a00000000000000000000000000000000000000000000000000000000081526004018080602001828103825260268152602001806139b86026913960400191505060405180910390fd5b61365a856135cb565b6136cc576040517f08c379a000000000000000000000000000000000000000000000000000000000815260040180806020018281038252601d8152602001807f416464726573733a2063616c6c20746f206e6f6e2d636f6e747261637400000081525060200191505060405180910390fd5b600060608673ffffffffffffffffffffffffffffffffffffffff1685876040518082805190602001908083835b6020831061371c57805182526020820191506020810190506020830392506136f9565b6001836020036101000a03801982511681845116808217855250505050505090500191505060006040518083038185875af1925050503d806000811461377e576040519150601f19603f3d011682016040523d82523d6000602084013e613783565b606091505b509150915061379382828661379f565b92505050949350505050565b606083156137af57829050613864565b6000835111156137c25782518084602001fd5b816040517f08c379a00000000000000000000000000000000000000000000000000000000081526004018080602001828103825283818151815260200191508051906020019080838360005b8381101561382957808201518184015260208101905061380e565b50505050905090810190601f1680156138565780820380516001836020036101000a031916815260200191505b509250505060405180910390fd5b9392505050565b828054600181600116156101000203166002900490600052602060002090601f016020900481019282601f106138ac57805160ff19168380011785556138da565b828001600101855582156138da579182015b828111156138d95782518255916020019190600101906138be565b5b5090506138e791906138eb565b5090565b61390d91905b808211156139095760008160009055506001016138f1565b5090565b9056fe456e756d657261626c655365743a20696e646578206f7574206f6620626f756e6473416363657373436f6e74726f6c3a2073656e646572206d75737420626520616e2061646d696e20746f206772616e744552433732313a207472616e7366657220746f206e6f6e20455243373231526563656976657220696d706c656d656e7465724552433732313a207472616e7366657220746f20746865207a65726f2061646472657373416464726573733a20696e73756666696369656e742062616c616e636520666f722063616c6c4552433732313a206f70657261746f7220717565727920666f72206e6f6e6578697374656e7420746f6b656e416363657373436f6e74726f6c3a2073656e646572206d75737420626520616e2061646d696e20746f207265766f6b654552433732313a20617070726f76652063616c6c6572206973206e6f74206f776e6572206e6f7220617070726f76656420666f7220616c6c4552433732313a2062616c616e636520717565727920666f7220746865207a65726f20616464726573734552433732313a206f776e657220717565727920666f72206e6f6e6578697374656e7420746f6b656e44617461546f6b656e54656d706c6174653a20496e76616c6964206d696e7465722c20207a65726f2061646472657373456e756d657261626c654d61703a20696e646578206f7574206f6620626f756e64734552433732313a20617070726f76656420717565727920666f72206e6f6e6578697374656e7420746f6b656e4552433732313a207472616e73666572206f6620746f6b656e2074686174206973206e6f74206f776e4552433732314d657461646174613a2055524920717565727920666f72206e6f6e6578697374656e7420746f6b656e4552433732313a20617070726f76616c20746f2063757272656e74206f776e65724552433732313a207472616e736665722063616c6c6572206973206e6f74206f776e6572206e6f7220617070726f76656445524337323154656d706c6174653a20746f6b656e20696e7374616e636520616c726561647920696e697469616c697a6564416363657373436f6e74726f6c3a2063616e206f6e6c792072656e6f756e636520726f6c657320666f722073656c66a264697066735822122014557f7a6e0fcb9cd790a7e8de39caabfb3b2c1c2e743f3b17444e8265b363a864736f6c6343000606003344617461546f6b656e54656d706c6174653a20496e76616c6964206d696e7465722c20207a65726f2061646472657373",
  "immutableReferences": {},
  "source": "pragma solidity >= 0.6.0;\n\nimport \"@openzeppelin/contracts/token/ERC721/ERC721.sol\";\nimport \"@openzeppelin/contracts/access/AccessControl.sol\";\nimport \"./interfaces/IMetadata.sol\";\n\ncontract ERC721Template is ERC721, AccessControl {\n    \n    address private paymentCollector;\n    address private ipHolder;\n    bytes32 public constant MINTER_ROLE = keccak256(\"MINTER_ROLE\");\n    bytes32 public constant METADATA_ROLE = keccak256(\"METADATA_ROLE\");\n  \n    address private erc20DT;\n    string  private _name;\n    string  private _symbol;\n\n    bool    private initialized;\n    address public _metadata;\n\n    // event DataAdded(address indexed createdBy, bytes data);\n    // event DataUpdated(address indexed updatedBy, bytes data);\n\n    modifier onlyNotInitialized() {\n        require(\n            !initialized,\n            'ERC721Template: token instance already initialized'\n        );\n        _;\n    }\n  \n    constructor(\n        string memory name,\n        string memory symbol,\n        address admin,\n        bytes memory _data,\n        bytes memory flags,\n        address metadata\n    )\n    ERC721(name,symbol)\n        public\n    {   \n        _metadata = metadata;\n        _initialize(\n            admin,\n            name,\n            symbol\n        );\n       _createMetadata(flags, _data);\n    }\n    \n \n    function initialize(\n        address admin,\n        string calldata name,\n        string calldata symbol\n    ) \n        external\n        onlyNotInitialized\n        returns(bool)\n    {\n        return _initialize(\n            admin,\n            name,\n            symbol   \n        );\n    }\n\n    \n    function _initialize (\n        address admin,\n        string memory name,\n        string memory symbol\n    )   \n        private\n        returns(bool)\n    {\n        require(\n            admin != address(0), \n            'DataTokenTemplate: Invalid minter,  zero address'\n        );\n        require(_metadata != address(0),\n            'Metadata address cannot be zero');\n\n        _setupRole(DEFAULT_ADMIN_ROLE,admin);\n        _setupRole(MINTER_ROLE,admin);\n        _setupRole(METADATA_ROLE,admin);\n        paymentCollector = admin;\n        ipHolder = admin;\n        _name = name;\n        _symbol = symbol;\n        initialized = true;\n        return initialized;\n       \n    }\n\n      function mint(\n        address account,\n        uint256 tokenId\n    ) \n        external  \n       \n    {\n        require(hasRole(MINTER_ROLE, msg.sender), \"NOT MINTER_ROLE\");\n        _mint(account, tokenId);\n    }\n\n    \n   \n    function _createMetadata(\n        bytes memory flags,\n        bytes memory data\n    ) \n        internal\n       \n    {\n        require(hasRole(METADATA_ROLE, msg.sender), \"NOT METADATA_ROLE\");\n        require(_metadata != address(0), 'Invalid Metadata address');\n\n        IMetadata(_metadata).create(address(this),flags,data);\n       \n    }\n\n  \n    function update(\n        bytes calldata flags,\n        bytes calldata data\n    ) \n        external\n        \n    {\n        require(hasRole(METADATA_ROLE, msg.sender), \"NOT METADATA_ROLE\");\n        IMetadata(_metadata).update(address(this),flags,data);\n    }\n\n \n     /**\n     * @dev name\n     *      It returns the token name.\n     * @return DataToken name.\n     */\n    function name() public view override returns(string memory) {\n        return _name;\n    }\n\n     /**\n     * @dev symbol\n     *      It returns the token symbol.\n     * @return DataToken symbol.\n     */\n    function symbol() public view override returns(string memory) {\n        return _symbol;\n    }\n\n    function isInitialized() public view returns(bool) {\n        return initialized;\n    }\n}",
  "sourcePath": "/home/andrea/ocean/v4/contracts/ERC721Template.sol",
  "compiler": {
    "name": "solc",
    "version": "0.6.6+commit.6c089d02.Emscripten.clang"
  },
  "schemaVersion": "3.2.4",
  "updatedAt": "2021-04-16T16:54:09.653Z",
  "devdoc": {
    "methods": {
      "approve(address,uint256)": {
        "details": "See {IERC721-approve}."
      },
      "balanceOf(address)": {
        "details": "See {IERC721-balanceOf}."
      },
      "baseURI()": {
        "details": "Returns the base URI set via {_setBaseURI}. This will be automatically added as a prefix in {tokenURI} to each token's URI, or to the token ID if no specific URI is set for that token ID."
      },
      "getApproved(uint256)": {
        "details": "See {IERC721-getApproved}."
      },
      "getRoleAdmin(bytes32)": {
        "details": "Returns the admin role that controls `role`. See {grantRole} and {revokeRole}.     * To change a role's admin, use {_setRoleAdmin}."
      },
      "getRoleMember(bytes32,uint256)": {
        "details": "Returns one of the accounts that have `role`. `index` must be a value between 0 and {getRoleMemberCount}, non-inclusive.     * Role bearers are not sorted in any particular way, and their ordering may change at any point.     * WARNING: When using {getRoleMember} and {getRoleMemberCount}, make sure you perform all queries on the same block. See the following https://forum.openzeppelin.com/t/iterating-over-elements-on-enumerableset-in-openzeppelin-contracts/2296[forum post] for more information."
      },
      "getRoleMemberCount(bytes32)": {
        "details": "Returns the number of accounts that have `role`. Can be used together with {getRoleMember} to enumerate all bearers of a role."
      },
      "grantRole(bytes32,address)": {
        "details": "Grants `role` to `account`.     * If `account` had not been already granted `role`, emits a {RoleGranted} event.     * Requirements:     * - the caller must have ``role``'s admin role."
      },
      "hasRole(bytes32,address)": {
        "details": "Returns `true` if `account` has been granted `role`."
      },
      "isApprovedForAll(address,address)": {
        "details": "See {IERC721-isApprovedForAll}."
      },
      "name()": {
        "details": "name     It returns the token name.",
        "returns": {
          "_0": "DataToken name."
        }
      },
      "ownerOf(uint256)": {
        "details": "See {IERC721-ownerOf}."
      },
      "renounceRole(bytes32,address)": {
        "details": "Revokes `role` from the calling account.     * Roles are often managed via {grantRole} and {revokeRole}: this function's purpose is to provide a mechanism for accounts to lose their privileges if they are compromised (such as when a trusted device is misplaced).     * If the calling account had been granted `role`, emits a {RoleRevoked} event.     * Requirements:     * - the caller must be `account`."
      },
      "revokeRole(bytes32,address)": {
        "details": "Revokes `role` from `account`.     * If `account` had been granted `role`, emits a {RoleRevoked} event.     * Requirements:     * - the caller must have ``role``'s admin role."
      },
      "safeTransferFrom(address,address,uint256)": {
        "details": "See {IERC721-safeTransferFrom}."
      },
      "safeTransferFrom(address,address,uint256,bytes)": {
        "details": "See {IERC721-safeTransferFrom}."
      },
      "setApprovalForAll(address,bool)": {
        "details": "See {IERC721-setApprovalForAll}."
      },
      "supportsInterface(bytes4)": {
        "details": "See {IERC165-supportsInterface}.     * Time complexity O(1), guaranteed to always use less than 30 000 gas."
      },
      "symbol()": {
        "details": "symbol     It returns the token symbol.",
        "returns": {
          "_0": "DataToken symbol."
        }
      },
      "tokenByIndex(uint256)": {
        "details": "See {IERC721Enumerable-tokenByIndex}."
      },
      "tokenOfOwnerByIndex(address,uint256)": {
        "details": "See {IERC721Enumerable-tokenOfOwnerByIndex}."
      },
      "tokenURI(uint256)": {
        "details": "See {IERC721Metadata-tokenURI}."
      },
      "totalSupply()": {
        "details": "See {IERC721Enumerable-totalSupply}."
      },
      "transferFrom(address,address,uint256)": {
        "details": "See {IERC721-transferFrom}."
      }
    }
  },
  "userdoc": {
    "methods": {}
  }
}