{
  "contractName": "ERC721Factory",
  "abi": [
    {
      "inputs": [
        {
          "internalType": "address",
          "name": "_template",
          "type": "address"
        },
        {
          "internalType": "address",
          "name": "_collector",
          "type": "address"
        },
        {
          "internalType": "address",
          "name": "_erc20Factory",
          "type": "address"
        }
      ],
      "stateMutability": "nonpayable",
      "type": "constructor"
    },
    {
      "anonymous": false,
      "inputs": [
        {
          "indexed": false,
          "internalType": "address",
          "name": "instance",
          "type": "address"
        }
      ],
      "name": "InstanceDeployed",
      "type": "event"
    },
    {
      "anonymous": false,
      "inputs": [
        {
          "indexed": true,
          "internalType": "address",
          "name": "newTokenAddress",
          "type": "address"
        },
        {
          "indexed": true,
          "internalType": "address",
          "name": "templateAddress",
          "type": "address"
        },
        {
          "indexed": true,
          "internalType": "string",
          "name": "tokenName",
          "type": "string"
        },
        {
          "indexed": false,
          "internalType": "address",
          "name": "admin",
          "type": "address"
        }
      ],
      "name": "TokenCreated",
      "type": "event"
    },
    {
      "anonymous": false,
      "inputs": [
        {
          "indexed": true,
          "internalType": "address",
          "name": "tokenAddress",
          "type": "address"
        },
        {
          "indexed": false,
          "internalType": "string",
          "name": "tokenName",
          "type": "string"
        },
        {
          "indexed": false,
          "internalType": "string",
          "name": "tokenSymbol",
          "type": "string"
        },
        {
          "indexed": false,
          "internalType": "uint256",
          "name": "tokenCap",
          "type": "uint256"
        },
        {
          "indexed": true,
          "internalType": "address",
          "name": "registeredBy",
          "type": "address"
        },
        {
          "indexed": true,
          "internalType": "string",
          "name": "blob",
          "type": "string"
        }
      ],
      "name": "TokenRegistered",
      "type": "event"
    },
    {
      "inputs": [
        {
          "internalType": "string",
          "name": "name",
          "type": "string"
        },
        {
          "internalType": "string",
          "name": "symbol",
          "type": "string"
        },
        {
          "internalType": "address",
          "name": "admin",
          "type": "address"
        },
        {
          "internalType": "address",
          "name": "metadata",
          "type": "address"
        },
        {
          "internalType": "bytes",
          "name": "_data",
          "type": "bytes"
        },
        {
          "internalType": "bytes",
          "name": "flags",
          "type": "bytes"
        }
      ],
      "name": "createERC721Token",
      "outputs": [
        {
          "internalType": "address",
          "name": "token",
          "type": "address"
        }
      ],
      "stateMutability": "nonpayable",
      "type": "function"
    },
    {
      "inputs": [],
      "name": "getCurrentTokenCount",
      "outputs": [
        {
          "internalType": "uint256",
          "name": "",
          "type": "uint256"
        }
      ],
      "stateMutability": "view",
      "type": "function"
    },
    {
      "inputs": [],
      "name": "getTokenTemplate",
      "outputs": [
        {
          "internalType": "address",
          "name": "",
          "type": "address"
        }
      ],
      "stateMutability": "view",
      "type": "function"
    }
  ],
  "bytecode": "0x6080604052600160025534801561001557600080fd5b5060405161095d38038061095d8339818101604052606081101561003857600080fd5b50805160208201516040909201519091906001600160a01b0383161580159061006957506001600160a01b03821615155b801561007d57506001600160a01b03811615155b6100b85760405162461bcd60e51b81526004018080602001828103825260478152602001806109166047913960600191505060405180910390fd5b600080546001600160a01b039485166001600160a01b031991821617909155600180549385169382169390931790925560038054919093169116179055610812806101046000396000f3fe608060405234801561001057600080fd5b50600436106100415760003560e01c8063490aad7614610046578063b87f6ae51461006a578063c6cf868a146102b6575b600080fd5b61004e6102d0565b604080516001600160a01b039092168252519081900360200190f35b61004e600480360360c081101561008057600080fd5b810190602081018135600160201b81111561009a57600080fd5b8201836020820111156100ac57600080fd5b803590602001918460018302840111600160201b831117156100cd57600080fd5b91908080601f0160208091040260200160405190810160405280939291908181526020018383808284376000920191909152509295949360208101935035915050600160201b81111561011f57600080fd5b82018360208201111561013157600080fd5b803590602001918460018302840111600160201b8311171561015257600080fd5b91908080601f01602080910402602001604051908101604052809392919081815260200183838082843760009201919091525092956001600160a01b038535811696602087013590911695919450925060608101915060400135600160201b8111156101bd57600080fd5b8201836020820111156101cf57600080fd5b803590602001918460018302840111600160201b831117156101f057600080fd5b91908080601f0160208091040260200160405190810160405280939291908181526020018383808284376000920191909152509295949360208101935035915050600160201b81111561024257600080fd5b82018360208201111561025457600080fd5b803590602001918460018302840111600160201b8311171561027557600080fd5b91908080601f0160208091040260200160405190810160405280939291908181526020018383808284376000920191909152509295506102df945050505050565b6102be6106a9565b60408051918252519081900360200190f35b6000546001600160a01b031690565b60006001600160a01b0385166103265760405162461bcd60e51b815260040180806020018281038252602f81526020018061076e602f913960400191505060405180910390fd5b60005461033b906001600160a01b03166106af565b90506001600160a01b0381166103825760405162461bcd60e51b815260040180806020018281038252604081526020018061079d6040913960400191505060405180910390fd5b600354604051637db0f56d60e01b81526001600160a01b038781166004830190815287821660648401529281166084830181905260e0602484019081528b5160e48501528b51869593861694637db0f56d948c948f948f948e9492938e938e939192604482019160a481019160c4820191610104019060208d019080838360005b8381101561041b578181015183820152602001610403565b50505050905090810190601f1680156104485780820380516001836020036101000a031916815260200191505b5085810384528a5181528a516020918201918c019080838360005b8381101561047b578181015183820152602001610463565b50505050905090810190601f1680156104a85780820380516001836020036101000a031916815260200191505b50858103835287518152875160209182019189019080838360005b838110156104db5781810151838201526020016104c3565b50505050905090810190601f1680156105085780820380516001836020036101000a031916815260200191505b50858103825286518152865160209182019188019080838360005b8381101561053b578181015183820152602001610523565b50505050905090810190601f1680156105685780820380516001836020036101000a031916815260200191505b509b505050505050505050505050602060405180830381600087803b15801561059057600080fd5b505af11580156105a4573d6000803e3d6000fd5b505050506040513d60208110156105ba57600080fd5b50516105f75760405162461bcd60e51b815260040180806020018281038252602e815260200180610740602e913960400191505060405180910390fd5b876040518082805190602001908083835b602083106106275780518252601f199092019160209182019101610608565b51815160209384036101000a6000190180199092169116179052604080519290940182900382206000546001600160a01b038e81168552955191975085169550938816937f4489342c6a0fb1764158e856bdba2fc74b022f4ea0096f36218be0d8f4ca592a9350918290030190a4506002805460010190559695505050505050565b60025490565b6000808260601b9050604051733d602d80600a3d3981f3363d3d373d3d3d363d7360601b81528160148201526e5af43d82803e903d91602b57fd5bf360881b60288201526037816000f0604080516001600160a01b038316815290519194507f117c72e6c25f0a072e36e148df71468ce2f3dbe7defec5b2c257a6e3eb65278c925081900360200190a15091905056fe4454466163746f72793a20556e61626c6520746f20696e697469616c697a6520746f6b656e20696e7374616e63654552433732314454466163746f72793a207a65726f20616464726573732061646d696e206e6f7420616c6c6f7765644552433732314454466163746f72793a204661696c656420746f20706572666f726d206d696e696d616c206465706c6f79206f662061206e657720746f6b656ea26469706673582212202e76eb26b85848b1254b1fc709a57f7d08fc19c1eaf2a8220d8a9d0059ebd52964736f6c634300060600334552433732314454466163746f72793a20496e76616c69642074656d706c61746520746f6b656e2f636f6d6d756e6974792066656520636f6c6c6563746f722061646472657373",
  "immutableReferences": {},
  "source": "pragma solidity >=0.6.0;\n// Copyright BigchainDB GmbH and Ocean Protocol contributors\n// SPDX-License-Identifier: (Apache-2.0 AND CC-BY-4.0)\n// Code is Apache-2.0 and docs are CC-BY-4.0\n\nimport './utils/Deployer.sol';\nimport './interfaces/IERC721Template.sol';\nimport './interfaces/IERC20Factory.sol';\n/**\n * @title DTFactory contract\n * @author Ocean Protocol Team\n *\n * @dev Implementation of Ocean DataTokens Factory\n *\n *      DTFactory deploys DataToken proxy contracts.\n *      New DataToken proxy contracts are links to the template contract's bytecode.\n *      Proxy contract functionality is based on Ocean Protocol custom implementation of ERC1167 standard.\n */\ncontract ERC721Factory is Deployer {\n    address private tokenTemplate;\n    address private communityFeeCollector;\n    uint256 private currentTokenCount = 1;\n    address private erc20Factory;\n\n    event TokenCreated(\n        address indexed newTokenAddress,\n        address indexed templateAddress,\n        string indexed tokenName,\n        address admin\n    );\n\n    event TokenRegistered(\n        address indexed tokenAddress,\n        string tokenName,\n        string tokenSymbol,\n        uint256 tokenCap,\n        address indexed registeredBy,\n        string indexed blob\n    );\n\n    /**\n     * @dev constructor\n     *      Called on contract deployment. Could not be called with zero address parameters.\n     * @param _template refers to the address of a deployed DataToken contract.\n     * @param _collector refers to the community fee collector address\n     */\n    constructor(\n        address _template,\n        address _collector,\n        address _erc20Factory\n    ) public {\n        require(\n            _template != address(0) &&\n            _collector != address(0) && _erc20Factory != address(0),\n            'ERC721DTFactory: Invalid template token/community fee collector address'\n        );\n        tokenTemplate = _template;\n        communityFeeCollector = _collector;\n        erc20Factory = _erc20Factory;\n    }\n\n \n    function createERC721Token(\n        string memory name,\n        string memory symbol,\n        address admin,\n        address metadata,\n        bytes memory _data,\n        bytes memory flags\n    )\n        public\n        returns (address token)\n    {\n        require(\n            admin != address(0),\n            'ERC721DTFactory: zero address admin not allowed'\n        );\n\n        token = deploy(tokenTemplate);\n\n        require(\n            token != address(0),\n            'ERC721DTFactory: Failed to perform minimal deploy of a new token'\n        );\n        \n        IERC721Template tokenInstance = IERC721Template(token);\n        require(\n            tokenInstance.initialize(\n                admin,\n                name,\n                symbol,\n                metadata,\n                erc20Factory,\n                _data,\n                flags\n            ),\n            'DTFactory: Unable to initialize token instance'\n        );\n        emit TokenCreated(token, tokenTemplate, name,admin);\n        // emit TokenRegistered(\n        //     token,\n        //     name,\n        //     symbol,\n        //\n        //     msg.sender,\n        // );\n        currentTokenCount += 1;\n    }\n\n    /**\n     * @dev get the current token count.\n     * @return the current token count\n     */\n    function getCurrentTokenCount() external view returns (uint256) {\n        return currentTokenCount;\n    }\n\n    /**\n     * @dev get the token template address\n     * @return the template address\n     */\n    function getTokenTemplate() external view returns (address) {\n        return tokenTemplate;\n    }\n}\n",
  "sourcePath": "/home/andrea/ocean/v4/contracts/ERC721Factory.sol",
  "compiler": {
    "name": "solc",
    "version": "0.6.6+commit.6c089d02.Emscripten.clang"
  },
  "schemaVersion": "3.2.4",
  "updatedAt": "2021-04-20T17:52:10.880Z",
  "devdoc": {
    "author": "Ocean Protocol Team",
    "details": "Implementation of Ocean DataTokens Factory *      DTFactory deploys DataToken proxy contracts.     New DataToken proxy contracts are links to the template contract's bytecode.     Proxy contract functionality is based on Ocean Protocol custom implementation of ERC1167 standard.",
    "methods": {
      "constructor": {
        "details": "constructor     Called on contract deployment. Could not be called with zero address parameters.",
        "params": {
          "_collector": "refers to the community fee collector address",
          "_template": "refers to the address of a deployed DataToken contract."
        }
      },
      "getCurrentTokenCount()": {
        "details": "get the current token count.",
        "returns": {
          "_0": "the current token count"
        }
      },
      "getTokenTemplate()": {
        "details": "get the token template address",
        "returns": {
          "_0": "the template address"
        }
      }
    },
    "title": "DTFactory contract"
  },
  "userdoc": {
    "methods": {}
  }
}