{
  "contractName": "ERC721Template",
  "abi": [
    {
      "inputs": [
        {
          "internalType": "string",
          "name": "name",
          "type": "string"
        },
        {
          "internalType": "string",
          "name": "symbol",
          "type": "string"
        },
        {
          "internalType": "address",
          "name": "admin",
          "type": "address"
        },
        {
          "internalType": "bytes",
          "name": "_data",
          "type": "bytes"
        },
        {
          "internalType": "bytes",
          "name": "flags",
          "type": "bytes"
        },
        {
          "internalType": "address",
          "name": "metadata",
          "type": "address"
        },
        {
          "internalType": "address",
          "name": "erc20Factory",
          "type": "address"
        }
      ],
      "stateMutability": "nonpayable",
      "type": "constructor"
    },
    {
      "anonymous": false,
      "inputs": [
        {
          "indexed": true,
          "internalType": "address",
          "name": "owner",
          "type": "address"
        },
        {
          "indexed": true,
          "internalType": "address",
          "name": "approved",
          "type": "address"
        },
        {
          "indexed": true,
          "internalType": "uint256",
          "name": "tokenId",
          "type": "uint256"
        }
      ],
      "name": "Approval",
      "type": "event"
    },
    {
      "anonymous": false,
      "inputs": [
        {
          "indexed": true,
          "internalType": "address",
          "name": "owner",
          "type": "address"
        },
        {
          "indexed": true,
          "internalType": "address",
          "name": "operator",
          "type": "address"
        },
        {
          "indexed": false,
          "internalType": "bool",
          "name": "approved",
          "type": "bool"
        }
      ],
      "name": "ApprovalForAll",
      "type": "event"
    },
    {
      "anonymous": false,
      "inputs": [
        {
          "indexed": true,
          "internalType": "bytes32",
          "name": "role",
          "type": "bytes32"
        },
        {
          "indexed": true,
          "internalType": "bytes32",
          "name": "previousAdminRole",
          "type": "bytes32"
        },
        {
          "indexed": true,
          "internalType": "bytes32",
          "name": "newAdminRole",
          "type": "bytes32"
        }
      ],
      "name": "RoleAdminChanged",
      "type": "event"
    },
    {
      "anonymous": false,
      "inputs": [
        {
          "indexed": true,
          "internalType": "bytes32",
          "name": "role",
          "type": "bytes32"
        },
        {
          "indexed": true,
          "internalType": "address",
          "name": "account",
          "type": "address"
        },
        {
          "indexed": true,
          "internalType": "address",
          "name": "sender",
          "type": "address"
        }
      ],
      "name": "RoleGranted",
      "type": "event"
    },
    {
      "anonymous": false,
      "inputs": [
        {
          "indexed": true,
          "internalType": "bytes32",
          "name": "role",
          "type": "bytes32"
        },
        {
          "indexed": true,
          "internalType": "address",
          "name": "account",
          "type": "address"
        },
        {
          "indexed": true,
          "internalType": "address",
          "name": "sender",
          "type": "address"
        }
      ],
      "name": "RoleRevoked",
      "type": "event"
    },
    {
      "anonymous": false,
      "inputs": [
        {
          "indexed": true,
          "internalType": "address",
          "name": "from",
          "type": "address"
        },
        {
          "indexed": true,
          "internalType": "address",
          "name": "to",
          "type": "address"
        },
        {
          "indexed": true,
          "internalType": "uint256",
          "name": "tokenId",
          "type": "uint256"
        }
      ],
      "name": "Transfer",
      "type": "event"
    },
    {
      "inputs": [],
      "name": "DEFAULT_ADMIN_ROLE",
      "outputs": [
        {
          "internalType": "bytes32",
          "name": "",
          "type": "bytes32"
        }
      ],
      "stateMutability": "view",
      "type": "function"
    },
    {
      "inputs": [],
      "name": "METADATA_ROLE",
      "outputs": [
        {
          "internalType": "bytes32",
          "name": "",
          "type": "bytes32"
        }
      ],
      "stateMutability": "view",
      "type": "function"
    },
    {
      "inputs": [],
      "name": "MINTER_ROLE",
      "outputs": [
        {
          "internalType": "bytes32",
          "name": "",
          "type": "bytes32"
        }
      ],
      "stateMutability": "view",
      "type": "function"
    },
    {
      "inputs": [],
      "name": "_metadata",
      "outputs": [
        {
          "internalType": "address",
          "name": "",
          "type": "address"
        }
      ],
      "stateMutability": "view",
      "type": "function"
    },
    {
      "inputs": [
        {
          "internalType": "address",
          "name": "to",
          "type": "address"
        },
        {
          "internalType": "uint256",
          "name": "tokenId",
          "type": "uint256"
        }
      ],
      "name": "approve",
      "outputs": [],
      "stateMutability": "nonpayable",
      "type": "function"
    },
    {
      "inputs": [
        {
          "internalType": "address",
          "name": "owner",
          "type": "address"
        }
      ],
      "name": "balanceOf",
      "outputs": [
        {
          "internalType": "uint256",
          "name": "",
          "type": "uint256"
        }
      ],
      "stateMutability": "view",
      "type": "function"
    },
    {
      "inputs": [],
      "name": "baseURI",
      "outputs": [
        {
          "internalType": "string",
          "name": "",
          "type": "string"
        }
      ],
      "stateMutability": "view",
      "type": "function"
    },
    {
      "inputs": [
        {
          "internalType": "uint256",
          "name": "tokenId",
          "type": "uint256"
        }
      ],
      "name": "getApproved",
      "outputs": [
        {
          "internalType": "address",
          "name": "",
          "type": "address"
        }
      ],
      "stateMutability": "view",
      "type": "function"
    },
    {
      "inputs": [
        {
          "internalType": "bytes32",
          "name": "role",
          "type": "bytes32"
        }
      ],
      "name": "getRoleAdmin",
      "outputs": [
        {
          "internalType": "bytes32",
          "name": "",
          "type": "bytes32"
        }
      ],
      "stateMutability": "view",
      "type": "function"
    },
    {
      "inputs": [
        {
          "internalType": "bytes32",
          "name": "role",
          "type": "bytes32"
        },
        {
          "internalType": "uint256",
          "name": "index",
          "type": "uint256"
        }
      ],
      "name": "getRoleMember",
      "outputs": [
        {
          "internalType": "address",
          "name": "",
          "type": "address"
        }
      ],
      "stateMutability": "view",
      "type": "function"
    },
    {
      "inputs": [
        {
          "internalType": "bytes32",
          "name": "role",
          "type": "bytes32"
        }
      ],
      "name": "getRoleMemberCount",
      "outputs": [
        {
          "internalType": "uint256",
          "name": "",
          "type": "uint256"
        }
      ],
      "stateMutability": "view",
      "type": "function"
    },
    {
      "inputs": [
        {
          "internalType": "bytes32",
          "name": "role",
          "type": "bytes32"
        },
        {
          "internalType": "address",
          "name": "account",
          "type": "address"
        }
      ],
      "name": "grantRole",
      "outputs": [],
      "stateMutability": "nonpayable",
      "type": "function"
    },
    {
      "inputs": [
        {
          "internalType": "bytes32",
          "name": "role",
          "type": "bytes32"
        },
        {
          "internalType": "address",
          "name": "account",
          "type": "address"
        }
      ],
      "name": "hasRole",
      "outputs": [
        {
          "internalType": "bool",
          "name": "",
          "type": "bool"
        }
      ],
      "stateMutability": "view",
      "type": "function"
    },
    {
      "inputs": [
        {
          "internalType": "address",
          "name": "owner",
          "type": "address"
        },
        {
          "internalType": "address",
          "name": "operator",
          "type": "address"
        }
      ],
      "name": "isApprovedForAll",
      "outputs": [
        {
          "internalType": "bool",
          "name": "",
          "type": "bool"
        }
      ],
      "stateMutability": "view",
      "type": "function"
    },
    {
      "inputs": [
        {
          "internalType": "uint256",
          "name": "tokenId",
          "type": "uint256"
        }
      ],
      "name": "ownerOf",
      "outputs": [
        {
          "internalType": "address",
          "name": "",
          "type": "address"
        }
      ],
      "stateMutability": "view",
      "type": "function"
    },
    {
      "inputs": [
        {
          "internalType": "bytes32",
          "name": "role",
          "type": "bytes32"
        },
        {
          "internalType": "address",
          "name": "account",
          "type": "address"
        }
      ],
      "name": "renounceRole",
      "outputs": [],
      "stateMutability": "nonpayable",
      "type": "function"
    },
    {
      "inputs": [
        {
          "internalType": "bytes32",
          "name": "role",
          "type": "bytes32"
        },
        {
          "internalType": "address",
          "name": "account",
          "type": "address"
        }
      ],
      "name": "revokeRole",
      "outputs": [],
      "stateMutability": "nonpayable",
      "type": "function"
    },
    {
      "inputs": [
        {
          "internalType": "address",
          "name": "from",
          "type": "address"
        },
        {
          "internalType": "address",
          "name": "to",
          "type": "address"
        },
        {
          "internalType": "uint256",
          "name": "tokenId",
          "type": "uint256"
        }
      ],
      "name": "safeTransferFrom",
      "outputs": [],
      "stateMutability": "nonpayable",
      "type": "function"
    },
    {
      "inputs": [
        {
          "internalType": "address",
          "name": "from",
          "type": "address"
        },
        {
          "internalType": "address",
          "name": "to",
          "type": "address"
        },
        {
          "internalType": "uint256",
          "name": "tokenId",
          "type": "uint256"
        },
        {
          "internalType": "bytes",
          "name": "_data",
          "type": "bytes"
        }
      ],
      "name": "safeTransferFrom",
      "outputs": [],
      "stateMutability": "nonpayable",
      "type": "function"
    },
    {
      "inputs": [
        {
          "internalType": "address",
          "name": "operator",
          "type": "address"
        },
        {
          "internalType": "bool",
          "name": "approved",
          "type": "bool"
        }
      ],
      "name": "setApprovalForAll",
      "outputs": [],
      "stateMutability": "nonpayable",
      "type": "function"
    },
    {
      "inputs": [
        {
          "internalType": "bytes4",
          "name": "interfaceId",
          "type": "bytes4"
        }
      ],
      "name": "supportsInterface",
      "outputs": [
        {
          "internalType": "bool",
          "name": "",
          "type": "bool"
        }
      ],
      "stateMutability": "view",
      "type": "function"
    },
    {
      "inputs": [
        {
          "internalType": "uint256",
          "name": "index",
          "type": "uint256"
        }
      ],
      "name": "tokenByIndex",
      "outputs": [
        {
          "internalType": "uint256",
          "name": "",
          "type": "uint256"
        }
      ],
      "stateMutability": "view",
      "type": "function"
    },
    {
      "inputs": [
        {
          "internalType": "address",
          "name": "owner",
          "type": "address"
        },
        {
          "internalType": "uint256",
          "name": "index",
          "type": "uint256"
        }
      ],
      "name": "tokenOfOwnerByIndex",
      "outputs": [
        {
          "internalType": "uint256",
          "name": "",
          "type": "uint256"
        }
      ],
      "stateMutability": "view",
      "type": "function"
    },
    {
      "inputs": [
        {
          "internalType": "uint256",
          "name": "tokenId",
          "type": "uint256"
        }
      ],
      "name": "tokenURI",
      "outputs": [
        {
          "internalType": "string",
          "name": "",
          "type": "string"
        }
      ],
      "stateMutability": "view",
      "type": "function"
    },
    {
      "inputs": [],
      "name": "totalSupply",
      "outputs": [
        {
          "internalType": "uint256",
          "name": "",
          "type": "uint256"
        }
      ],
      "stateMutability": "view",
      "type": "function"
    },
    {
      "inputs": [
        {
          "internalType": "address",
          "name": "from",
          "type": "address"
        },
        {
          "internalType": "address",
          "name": "to",
          "type": "address"
        },
        {
          "internalType": "uint256",
          "name": "tokenId",
          "type": "uint256"
        }
      ],
      "name": "transferFrom",
      "outputs": [],
      "stateMutability": "nonpayable",
      "type": "function"
    },
    {
      "inputs": [
        {
          "internalType": "address",
          "name": "admin",
          "type": "address"
        },
        {
          "internalType": "string",
          "name": "name",
          "type": "string"
        },
        {
          "internalType": "string",
          "name": "symbol",
          "type": "string"
        },
        {
          "internalType": "address",
          "name": "metadata",
          "type": "address"
        },
        {
          "internalType": "address",
          "name": "erc20Factory",
          "type": "address"
        }
      ],
      "name": "initialize",
      "outputs": [
        {
          "internalType": "bool",
          "name": "",
          "type": "bool"
        }
      ],
      "stateMutability": "nonpayable",
      "type": "function"
    },
    {
      "inputs": [
        {
          "internalType": "address",
          "name": "account",
          "type": "address"
        }
      ],
      "name": "mint",
      "outputs": [],
      "stateMutability": "nonpayable",
      "type": "function"
    },
    {
      "inputs": [
        {
          "internalType": "bytes",
          "name": "flags",
          "type": "bytes"
        },
        {
          "internalType": "bytes",
          "name": "data",
          "type": "bytes"
        }
      ],
      "name": "update",
      "outputs": [],
      "stateMutability": "nonpayable",
      "type": "function"
    },
    {
      "inputs": [
        {
          "internalType": "string",
          "name": "blob",
          "type": "string"
        },
        {
          "internalType": "string",
          "name": "name",
          "type": "string"
        },
        {
          "internalType": "string",
          "name": "symbol",
          "type": "string"
        },
        {
          "internalType": "uint256",
          "name": "cap",
          "type": "uint256"
        }
      ],
      "name": "createERC20",
      "outputs": [],
      "stateMutability": "nonpayable",
      "type": "function"
    },
    {
      "inputs": [],
      "name": "name",
      "outputs": [
        {
          "internalType": "string",
          "name": "",
          "type": "string"
        }
      ],
      "stateMutability": "view",
      "type": "function"
    },
    {
      "inputs": [],
      "name": "symbol",
      "outputs": [
        {
          "internalType": "string",
          "name": "",
          "type": "string"
        }
      ],
      "stateMutability": "view",
      "type": "function"
    },
    {
      "inputs": [],
      "name": "isInitialized",
      "outputs": [
        {
          "internalType": "bool",
          "name": "",
          "type": "bool"
        }
      ],
      "stateMutability": "view",
      "type": "function"
    }
  ],
  "bytecode": "0x60806040526001600f553480156200001657600080fd5b5060405162004f3938038062004f39833981810160405260e08110156200003c57600080fd5b81019080805160405193929190846401000000008211156200005d57600080fd5b838201915060208201858111156200007457600080fd5b82518660018202830111640100000000821117156200009257600080fd5b8083526020830192505050908051906020019080838360005b83811015620000c8578082015181840152602081019050620000ab565b50505050905090810190601f168015620000f65780820380516001836020036101000a031916815260200191505b50604052602001805160405193929190846401000000008211156200011a57600080fd5b838201915060208201858111156200013157600080fd5b82518660018202830111640100000000821117156200014f57600080fd5b8083526020830192505050908051906020019080838360005b838110156200018557808201518184015260208101905062000168565b50505050905090810190601f168015620001b35780820380516001836020036101000a031916815260200191505b506040526020018051906020019092919080516040519392919084640100000000821115620001e157600080fd5b83820191506020820185811115620001f857600080fd5b82518660018202830111640100000000821117156200021657600080fd5b8083526020830192505050908051906020019080838360005b838110156200024c5780820151818401526020810190506200022f565b50505050905090810190601f1680156200027a5780820380516001836020036101000a031916815260200191505b50604052602001805160405193929190846401000000008211156200029e57600080fd5b83820191506020820185811115620002b557600080fd5b8251866001820283011164010000000082111715620002d357600080fd5b8083526020830192505050908051906020019080838360005b8381101562000309578082015181840152602081019050620002ec565b50505050905090810190601f168015620003375780820380516001836020036101000a031916815260200191505b50604052602001805190602001909291908051906020019092919050505086866200036f6301ffc9a760e01b6200042060201b60201c565b81600690805190602001906200038792919062000c61565b508060079080519060200190620003a092919062000c61565b50620003b96380ac58cd60e01b6200042060201b60201c565b620003d1635b5e139f60e01b6200042060201b60201c565b620003e963780e9d6360e01b6200042060201b60201c565b50506200040085888885856200052960201b60201c565b506200041383856200086560201b60201c565b5050505050505062000d10565b63ffffffff60e01b817bffffffffffffffffffffffffffffffffffffffffffffffffffffffff19161415620004bd576040517f08c379a000000000000000000000000000000000000000000000000000000000815260040180806020018281038252601c8152602001807f4552433136353a20696e76616c696420696e746572666163652069640000000081525060200191505060405180910390fd5b6001600080837bffffffffffffffffffffffffffffffffffffffffffffffffffffffff19167bffffffffffffffffffffffffffffffffffffffffffffffffffffffff1916815260200190815260200160002060006101000a81548160ff02191690831515021790555050565b60008073ffffffffffffffffffffffffffffffffffffffff168673ffffffffffffffffffffffffffffffffffffffff161415620005b2576040517f08c379a000000000000000000000000000000000000000000000000000000000815260040180806020018281038252603081526020018062004f096030913960400191505060405180910390fd5b600073ffffffffffffffffffffffffffffffffffffffff168373ffffffffffffffffffffffffffffffffffffffff16141562000656576040517f08c379a000000000000000000000000000000000000000000000000000000000815260040180806020018281038252601f8152602001807f4d6574616461746120616464726573732063616e6e6f74206265207a65726f0081525060200191505060405180910390fd5b82601060016101000a81548173ffffffffffffffffffffffffffffffffffffffff021916908373ffffffffffffffffffffffffffffffffffffffff160217905550620006ac6000801b8762000aca60201b60201c565b620006f360405180807f4d494e5445525f524f4c45000000000000000000000000000000000000000000815250600b01905060405180910390208762000aca60201b60201c565b6200073a60405180807f4d455441444154415f524f4c4500000000000000000000000000000000000000815250600d01905060405180910390208762000aca60201b60201c565b85600b60006101000a81548173ffffffffffffffffffffffffffffffffffffffff021916908373ffffffffffffffffffffffffffffffffffffffff16021790555085600c60006101000a81548173ffffffffffffffffffffffffffffffffffffffff021916908373ffffffffffffffffffffffffffffffffffffffff16021790555084600d9080519060200190620007d492919062000c61565b5083600e9080519060200190620007ed92919062000c61565b5081601160006101000a81548173ffffffffffffffffffffffffffffffffffffffff021916908373ffffffffffffffffffffffffffffffffffffffff1602179055506001601060006101000a81548160ff021916908315150217905550601060009054906101000a900460ff16905095945050505050565b600073ffffffffffffffffffffffffffffffffffffffff16601060019054906101000a900473ffffffffffffffffffffffffffffffffffffffff1673ffffffffffffffffffffffffffffffffffffffff1614156200092b576040517f08c379a00000000000000000000000000000000000000000000000000000000081526004018080602001828103825260188152602001807f496e76616c6964204d657461646174612061646472657373000000000000000081525060200191505060405180910390fd5b601060019054906101000a900473ffffffffffffffffffffffffffffffffffffffff1673ffffffffffffffffffffffffffffffffffffffff1663827438143084846040518463ffffffff1660e01b8152600401808473ffffffffffffffffffffffffffffffffffffffff1673ffffffffffffffffffffffffffffffffffffffff1681526020018060200180602001838103835285818151815260200191508051906020019080838360005b83811015620009f3578082015181840152602081019050620009d6565b50505050905090810190601f16801562000a215780820380516001836020036101000a031916815260200191505b50838103825284818151815260200191508051906020019080838360005b8381101562000a5c57808201518184015260208101905062000a3f565b50505050905090810190601f16801562000a8a5780820380516001836020036101000a031916815260200191505b5095505050505050600060405180830381600087803b15801562000aad57600080fd5b505af115801562000ac2573d6000803e3d6000fd5b505050505050565b62000adc828262000ae060201b60201c565b5050565b62000b0f81600a600085815260200190815260200160002060000162000b8460201b620033e11790919060201c565b1562000b805762000b2562000bbc60201b60201c565b73ffffffffffffffffffffffffffffffffffffffff168173ffffffffffffffffffffffffffffffffffffffff16837f2f8788117e7eff1d82e926ec794901d17c78024a50270940304540a733656f0d60405160405180910390a45b5050565b600062000bb4836000018373ffffffffffffffffffffffffffffffffffffffff1660001b62000bc460201b60201c565b905092915050565b600033905090565b600062000bd8838362000c3e60201b60201c565b62000c3357826000018290806001815401808255809150506001900390600052602060002001600090919091909150558260000180549050836001016000848152602001908152602001600020819055506001905062000c38565b600090505b92915050565b600080836001016000848152602001908152602001600020541415905092915050565b828054600181600116156101000203166002900490600052602060002090601f016020900481019282601f1062000ca457805160ff191683800117855562000cd5565b8280016001018555821562000cd5579182015b8281111562000cd457825182559160200191906001019062000cb7565b5b50905062000ce4919062000ce8565b5090565b62000d0d91905b8082111562000d0957600081600090555060010162000cef565b5090565b90565b6141e98062000d206000396000f3fe608060405234801561001057600080fd5b50600436106101fb5760003560e01c80636352211e1161011a578063a217fddf116100ad578063c87b56dd1161007c578063c87b56dd14610e4c578063ca15c87314610ef3578063d539139314610f35578063d547741f14610f53578063e985e9c514610fa1576101fb565b8063a217fddf14610bac578063a22cb46514610bca578063a33c9da014610c1a578063b88d4fde14610d47576101fb565b806370a08231116100e957806370a08231146109f35780639010d07c14610a4b57806391d1485414610ac357806395d89b4114610b29576101fb565b80636352211e146107785780636a627842146107e65780636c0360eb1461082a5780636cf1dbed146108ad576101fb565b80632f745c591161019257806339371b251161016157806339371b25146105b05780633f37dce2146105fa57806342842e0e146106c85780634f6ccce714610736576101fb565b80632f745c59146104c057806336568abe146105225780633884178214610570578063392e53cd1461058e576101fb565b806318160ddd116101ce57806318160ddd146103a457806323b872dd146103c2578063248a9ca3146104305780632f2ff15d14610472576101fb565b806301ffc9a71461020057806306fdde0314610265578063081812fc146102e8578063095ea7b314610356575b600080fd5b61024b6004803603602081101561021657600080fd5b8101908080357bffffffffffffffffffffffffffffffffffffffffffffffffffffffff1916906020019092919050505061101d565b604051808215151515815260200191505060405180910390f35b61026d611084565b6040518080602001828103825283818151815260200191508051906020019080838360005b838110156102ad578082015181840152602081019050610292565b50505050905090810190601f1680156102da5780820380516001836020036101000a031916815260200191505b509250505060405180910390f35b610314600480360360208110156102fe57600080fd5b8101908080359060200190929190505050611126565b604051808273ffffffffffffffffffffffffffffffffffffffff1673ffffffffffffffffffffffffffffffffffffffff16815260200191505060405180910390f35b6103a26004803603604081101561036c57600080fd5b81019080803573ffffffffffffffffffffffffffffffffffffffff169060200190929190803590602001909291905050506111c1565b005b6103ac611305565b6040518082815260200191505060405180910390f35b61042e600480360360608110156103d857600080fd5b81019080803573ffffffffffffffffffffffffffffffffffffffff169060200190929190803573ffffffffffffffffffffffffffffffffffffffff16906020019092919080359060200190929190505050611316565b005b61045c6004803603602081101561044657600080fd5b810190808035906020019092919050505061138c565b6040518082815260200191505060405180910390f35b6104be6004803603604081101561048857600080fd5b8101908080359060200190929190803573ffffffffffffffffffffffffffffffffffffffff1690602001909291905050506113ac565b005b61050c600480360360408110156104d657600080fd5b81019080803573ffffffffffffffffffffffffffffffffffffffff16906020019092919080359060200190929190505050611436565b6040518082815260200191505060405180910390f35b61056e6004803603604081101561053857600080fd5b8101908080359060200190929190803573ffffffffffffffffffffffffffffffffffffffff169060200190929190505050611491565b005b61057861152a565b6040518082815260200191505060405180910390f35b610596611563565b604051808215151515815260200191505060405180910390f35b6105b861157a565b604051808273ffffffffffffffffffffffffffffffffffffffff1673ffffffffffffffffffffffffffffffffffffffff16815260200191505060405180910390f35b6106c66004803603604081101561061057600080fd5b810190808035906020019064010000000081111561062d57600080fd5b82018360208201111561063f57600080fd5b8035906020019184600183028401116401000000008311171561066157600080fd5b90919293919293908035906020019064010000000081111561068257600080fd5b82018360208201111561069457600080fd5b803590602001918460018302840111640100000000831117156106b657600080fd5b90919293919293905050506115a0565b005b610734600480360360608110156106de57600080fd5b81019080803573ffffffffffffffffffffffffffffffffffffffff169060200190929190803573ffffffffffffffffffffffffffffffffffffffff16906020019092919080359060200190929190505050611778565b005b6107626004803603602081101561074c57600080fd5b8101908080359060200190929190505050611798565b6040518082815260200191505060405180910390f35b6107a46004803603602081101561078e57600080fd5b81019080803590602001909291905050506117bb565b604051808273ffffffffffffffffffffffffffffffffffffffff1673ffffffffffffffffffffffffffffffffffffffff16815260200191505060405180910390f35b610828600480360360208110156107fc57600080fd5b81019080803573ffffffffffffffffffffffffffffffffffffffff1690602001909291905050506117f2565b005b6108326118c3565b6040518080602001828103825283818151815260200191508051906020019080838360005b83811015610872578082015181840152602081019050610857565b50505050905090810190601f16801561089f5780820380516001836020036101000a031916815260200191505b509250505060405180910390f35b6109d9600480360360a08110156108c357600080fd5b81019080803573ffffffffffffffffffffffffffffffffffffffff1690602001909291908035906020019064010000000081111561090057600080fd5b82018360208201111561091257600080fd5b8035906020019184600183028401116401000000008311171561093457600080fd5b90919293919293908035906020019064010000000081111561095557600080fd5b82018360208201111561096757600080fd5b8035906020019184600183028401116401000000008311171561098957600080fd5b9091929391929390803573ffffffffffffffffffffffffffffffffffffffff169060200190929190803573ffffffffffffffffffffffffffffffffffffffff169060200190929190505050611965565b604051808215151515815260200191505060405180910390f35b610a3560048036036020811015610a0957600080fd5b81019080803573ffffffffffffffffffffffffffffffffffffffff169060200190929190505050611a6f565b6040518082815260200191505060405180910390f35b610a8160048036036040811015610a6157600080fd5b810190808035906020019092919080359060200190929190505050611b44565b604051808273ffffffffffffffffffffffffffffffffffffffff1673ffffffffffffffffffffffffffffffffffffffff16815260200191505060405180910390f35b610b0f60048036036040811015610ad957600080fd5b8101908080359060200190929190803573ffffffffffffffffffffffffffffffffffffffff169060200190929190505050611b76565b604051808215151515815260200191505060405180910390f35b610b31611ba8565b6040518080602001828103825283818151815260200191508051906020019080838360005b83811015610b71578082015181840152602081019050610b56565b50505050905090810190601f168015610b9e5780820380516001836020036101000a031916815260200191505b509250505060405180910390f35b610bb4611c4a565b6040518082815260200191505060405180910390f35b610c1860048036036040811015610be057600080fd5b81019080803573ffffffffffffffffffffffffffffffffffffffff169060200190929190803515159060200190929190505050611c51565b005b610d4560048036036080811015610c3057600080fd5b8101908080359060200190640100000000811115610c4d57600080fd5b820183602082011115610c5f57600080fd5b80359060200191846001830284011164010000000083111715610c8157600080fd5b909192939192939080359060200190640100000000811115610ca257600080fd5b820183602082011115610cb457600080fd5b80359060200191846001830284011164010000000083111715610cd657600080fd5b909192939192939080359060200190640100000000811115610cf757600080fd5b820183602082011115610d0957600080fd5b80359060200191846001830284011164010000000083111715610d2b57600080fd5b909192939192939080359060200190929190505050611e09565b005b610e4a60048036036080811015610d5d57600080fd5b81019080803573ffffffffffffffffffffffffffffffffffffffff169060200190929190803573ffffffffffffffffffffffffffffffffffffffff1690602001909291908035906020019092919080359060200190640100000000811115610dc457600080fd5b820183602082011115610dd657600080fd5b80359060200191846001830284011164010000000083111715610df857600080fd5b91908080601f016020809104026020016040519081016040528093929190818152602001838380828437600081840152601f19601f820116905080830192505050505050509192919290505050612189565b005b610e7860048036036020811015610e6257600080fd5b8101908080359060200190929190505050612201565b6040518080602001828103825283818151815260200191508051906020019080838360005b83811015610eb8578082015181840152602081019050610e9d565b50505050905090810190601f168015610ee55780820380516001836020036101000a031916815260200191505b509250505060405180910390f35b610f1f60048036036020811015610f0957600080fd5b81019080803590602001909291905050506124d2565b6040518082815260200191505060405180910390f35b610f3d6124f9565b6040518082815260200191505060405180910390f35b610f9f60048036036040811015610f6957600080fd5b8101908080359060200190929190803573ffffffffffffffffffffffffffffffffffffffff169060200190929190505050612532565b005b61100360048036036040811015610fb757600080fd5b81019080803573ffffffffffffffffffffffffffffffffffffffff169060200190929190803573ffffffffffffffffffffffffffffffffffffffff1690602001909291905050506125bc565b604051808215151515815260200191505060405180910390f35b6000806000837bffffffffffffffffffffffffffffffffffffffffffffffffffffffff19167bffffffffffffffffffffffffffffffffffffffffffffffffffffffff1916815260200190815260200160002060009054906101000a900460ff169050919050565b6060600d8054600181600116156101000203166002900480601f01602080910402602001604051908101604052809291908181526020018280546001816001161561010002031660029004801561111c5780601f106110f15761010080835404028352916020019161111c565b820191906000526020600020905b8154815290600101906020018083116110ff57829003601f168201915b5050505050905090565b600061113182612650565b611186576040517f08c379a000000000000000000000000000000000000000000000000000000000815260040180806020018281038252602c81526020018061407d602c913960400191505060405180910390fd5b6004600083815260200190815260200160002060009054906101000a900473ffffffffffffffffffffffffffffffffffffffff169050919050565b60006111cc826117bb565b90508073ffffffffffffffffffffffffffffffffffffffff168373ffffffffffffffffffffffffffffffffffffffff161415611253576040517f08c379a00000000000000000000000000000000000000000000000000000000081526004018080602001828103825260218152602001806141016021913960400191505060405180910390fd5b8073ffffffffffffffffffffffffffffffffffffffff1661127261266d565b73ffffffffffffffffffffffffffffffffffffffff1614806112a157506112a08161129b61266d565b6125bc565b5b6112f6576040517f08c379a0000000000000000000000000000000000000000000000000000000008152600401808060200182810382526038815260200180613fa06038913960400191505060405180910390fd5b6113008383612675565b505050565b6000611311600261272e565b905090565b61132761132161266d565b82612743565b61137c576040517f08c379a00000000000000000000000000000000000000000000000000000000081526004018080602001828103825260318152602001806141226031913960400191505060405180910390fd5b611387838383612837565b505050565b6000600a6000838152602001908152602001600020600201549050919050565b6113d3600a6000848152602001908152602001600020600201546113ce61266d565b611b76565b611428576040517f08c379a000000000000000000000000000000000000000000000000000000000815260040180806020018281038252602f815260200180613e99602f913960400191505060405180910390fd5b6114328282612a7a565b5050565b600061148982600160008673ffffffffffffffffffffffffffffffffffffffff1673ffffffffffffffffffffffffffffffffffffffff168152602001908152602001600020612b0e90919063ffffffff16565b905092915050565b61149961266d565b73ffffffffffffffffffffffffffffffffffffffff168173ffffffffffffffffffffffffffffffffffffffff161461151c576040517f08c379a000000000000000000000000000000000000000000000000000000000815260040180806020018281038252602f815260200180614185602f913960400191505060405180910390fd5b6115268282612b28565b5050565b60405180807f4d455441444154415f524f4c4500000000000000000000000000000000000000815250600d019050604051809103902081565b6000601060009054906101000a900460ff16905090565b601060019054906101000a900473ffffffffffffffffffffffffffffffffffffffff1681565b6115df60405180807f4d455441444154415f524f4c4500000000000000000000000000000000000000815250600d019050604051809103902033611b76565b611651576040517f08c379a00000000000000000000000000000000000000000000000000000000081526004018080602001828103825260118152602001807f4e4f54204d455441444154415f524f4c4500000000000000000000000000000081525060200191505060405180910390fd5b601060019054906101000a900473ffffffffffffffffffffffffffffffffffffffff1673ffffffffffffffffffffffffffffffffffffffff1663f89b1f3630868686866040518663ffffffff1660e01b8152600401808673ffffffffffffffffffffffffffffffffffffffff1673ffffffffffffffffffffffffffffffffffffffff16815260200180602001806020018381038352878782818152602001925080828437600081840152601f19601f8201169050808301925050508381038252858582818152602001925080828437600081840152601f19601f820116905080830192505050975050505050505050600060405180830381600087803b15801561175a57600080fd5b505af115801561176e573d6000803e3d6000fd5b5050505050505050565b61179383838360405180602001604052806000815250612189565b505050565b6000806117af836002612bbc90919063ffffffff16565b50905080915050919050565b60006117eb82604051806060016040528060298152602001614002602991396002612beb9092919063ffffffff16565b9050919050565b61183160405180807f4d494e5445525f524f4c45000000000000000000000000000000000000000000815250600b019050604051809103902033611b76565b6118a3576040517f08c379a000000000000000000000000000000000000000000000000000000000815260040180806020018281038252600f8152602001807f4e4f54204d494e5445525f524f4c45000000000000000000000000000000000081525060200191505060405180910390fd5b6001600f600082825401925050819055506118c081600f54612c0a565b50565b606060098054600181600116156101000203166002900480601f01602080910402602001604051908101604052809291908181526020018280546001816001161561010002031660029004801561195b5780601f106119305761010080835404028352916020019161195b565b820191906000526020600020905b81548152906001019060200180831161193e57829003601f168201915b5050505050905090565b6000601060009054906101000a900460ff16156119cd576040517f08c379a00000000000000000000000000000000000000000000000000000000081526004018080602001828103825260328152602001806141536032913960400191505060405180910390fd5b611a628888888080601f016020809104026020016040519081016040528093929190818152602001838380828437600081840152601f19601f8201169050808301925050505050505087878080601f016020809104026020016040519081016040528093929190818152602001838380828437600081840152601f19601f820116905080830192505050505050508686612dfe565b9050979650505050505050565b60008073ffffffffffffffffffffffffffffffffffffffff168273ffffffffffffffffffffffffffffffffffffffff161415611af6576040517f08c379a000000000000000000000000000000000000000000000000000000000815260040180806020018281038252602a815260200180613fd8602a913960400191505060405180910390fd5b611b3d600160008473ffffffffffffffffffffffffffffffffffffffff1673ffffffffffffffffffffffffffffffffffffffff16815260200190815260200160002061311b565b9050919050565b6000611b6e82600a600086815260200190815260200160002060000161313090919063ffffffff16565b905092915050565b6000611ba082600a600086815260200190815260200160002060000161314a90919063ffffffff16565b905092915050565b6060600e8054600181600116156101000203166002900480601f016020809104026020016040519081016040528092919081815260200182805460018160011615610100020316600290048015611c405780601f10611c1557610100808354040283529160200191611c40565b820191906000526020600020905b815481529060010190602001808311611c2357829003601f168201915b5050505050905090565b6000801b81565b611c5961266d565b73ffffffffffffffffffffffffffffffffffffffff168273ffffffffffffffffffffffffffffffffffffffff161415611cfa576040517f08c379a00000000000000000000000000000000000000000000000000000000081526004018080602001828103825260198152602001807f4552433732313a20617070726f766520746f2063616c6c65720000000000000081525060200191505060405180910390fd5b8060056000611d0761266d565b73ffffffffffffffffffffffffffffffffffffffff1673ffffffffffffffffffffffffffffffffffffffff16815260200190815260200160002060008473ffffffffffffffffffffffffffffffffffffffff1673ffffffffffffffffffffffffffffffffffffffff16815260200190815260200160002060006101000a81548160ff0219169083151502179055508173ffffffffffffffffffffffffffffffffffffffff16611db461266d565b73ffffffffffffffffffffffffffffffffffffffff167f17307eab39ab6107e8899845ad3d59bd9653f200f220920489ca2b5937696c3183604051808215151515815260200191505060405180910390a35050565b611e4860405180807f4d494e5445525f524f4c45000000000000000000000000000000000000000000815250600b019050604051809103902033611b76565b611eba576040517f08c379a000000000000000000000000000000000000000000000000000000000815260040180806020018281038252600f8152602001807f4e4f54204d494e5445525f524f4c45000000000000000000000000000000000081525060200191505060405180910390fd5b60001515601060159054906101000a900460ff16151514611f43576040517f08c379a00000000000000000000000000000000000000000000000000000000081526004018080602001828103825260158152602001807f455243323020416c72656164792043726561746564000000000000000000000081525060200191505060405180910390fd5b600073ffffffffffffffffffffffffffffffffffffffff16601160009054906101000a900473ffffffffffffffffffffffffffffffffffffffff1673ffffffffffffffffffffffffffffffffffffffff16638aea867989898989898989336040518963ffffffff1660e01b8152600401808060200180602001806020018681526020018573ffffffffffffffffffffffffffffffffffffffff1673ffffffffffffffffffffffffffffffffffffffff16815260200184810384528c8c82818152602001925080828437600081840152601f19601f82011690508083019250505084810383528a8a82818152602001925080828437600081840152601f19601f8201169050808301925050508481038252888882818152602001925080828437600081840152601f19601f8201169050808301925050509b505050505050505050505050602060405180830381600087803b1580156120a057600080fd5b505af11580156120b4573d6000803e3d6000fd5b505050506040513d60208110156120ca57600080fd5b810190808051906020019092919050505073ffffffffffffffffffffffffffffffffffffffff161415612165576040517f08c379a000000000000000000000000000000000000000000000000000000000815260040180806020018281038252601a8152602001807f4552433230546f6b656e206372656174696f6e206661696c656400000000000081525060200191505060405180910390fd5b6001601060156101000a81548160ff02191690831515021790555050505050505050565b61219a61219461266d565b83612743565b6121ef576040517f08c379a00000000000000000000000000000000000000000000000000000000081526004018080602001828103825260318152602001806141226031913960400191505060405180910390fd5b6121fb8484848461317a565b50505050565b606061220c82612650565b612261576040517f08c379a000000000000000000000000000000000000000000000000000000000815260040180806020018281038252602f8152602001806140d2602f913960400191505060405180910390fd5b6060600860008481526020019081526020016000208054600181600116156101000203166002900480601f01602080910402602001604051908101604052809291908181526020018280546001816001161561010002031660029004801561230a5780601f106122df5761010080835404028352916020019161230a565b820191906000526020600020905b8154815290600101906020018083116122ed57829003601f168201915b50505050509050606061231b6118c3565b90506000815114156123315781925050506124cd565b6000825111156124025780826040516020018083805190602001908083835b602083106123735780518252602082019150602081019050602083039250612350565b6001836020036101000a03801982511681845116808217855250505050505090500182805190602001908083835b602083106123c457805182526020820191506020810190506020830392506123a1565b6001836020036101000a03801982511681845116808217855250505050505090500192505050604051602081830303815290604052925050506124cd565b8061240c856131ec565b6040516020018083805190602001908083835b60208310612442578051825260208201915060208101905060208303925061241f565b6001836020036101000a03801982511681845116808217855250505050505090500182805190602001908083835b602083106124935780518252602082019150602081019050602083039250612470565b6001836020036101000a03801982511681845116808217855250505050505090500192505050604051602081830303815290604052925050505b919050565b60006124f2600a6000848152602001908152602001600020600001613333565b9050919050565b60405180807f4d494e5445525f524f4c45000000000000000000000000000000000000000000815250600b019050604051809103902081565b612559600a60008481526020019081526020016000206002015461255461266d565b611b76565b6125ae576040517f08c379a0000000000000000000000000000000000000000000000000000000008152600401808060200182810382526030815260200180613f706030913960400191505060405180910390fd5b6125b88282612b28565b5050565b6000600560008473ffffffffffffffffffffffffffffffffffffffff1673ffffffffffffffffffffffffffffffffffffffff16815260200190815260200160002060008373ffffffffffffffffffffffffffffffffffffffff1673ffffffffffffffffffffffffffffffffffffffff16815260200190815260200160002060009054906101000a900460ff16905092915050565b600061266682600261334890919063ffffffff16565b9050919050565b600033905090565b816004600083815260200190815260200160002060006101000a81548173ffffffffffffffffffffffffffffffffffffffff021916908373ffffffffffffffffffffffffffffffffffffffff160217905550808273ffffffffffffffffffffffffffffffffffffffff166126e8836117bb565b73ffffffffffffffffffffffffffffffffffffffff167f8c5be1e5ebec7d5bd14f71427d1e84f3dd0314c0f7b2291e5b200ac8c7c3b92560405160405180910390a45050565b600061273c82600001613362565b9050919050565b600061274e82612650565b6127a3576040517f08c379a000000000000000000000000000000000000000000000000000000000815260040180806020018281038252602c815260200180613f44602c913960400191505060405180910390fd5b60006127ae836117bb565b90508073ffffffffffffffffffffffffffffffffffffffff168473ffffffffffffffffffffffffffffffffffffffff16148061281d57508373ffffffffffffffffffffffffffffffffffffffff1661280584611126565b73ffffffffffffffffffffffffffffffffffffffff16145b8061282e575061282d81856125bc565b5b91505092915050565b8273ffffffffffffffffffffffffffffffffffffffff16612857826117bb565b73ffffffffffffffffffffffffffffffffffffffff16146128c3576040517f08c379a00000000000000000000000000000000000000000000000000000000081526004018080602001828103825260298152602001806140a96029913960400191505060405180910390fd5b600073ffffffffffffffffffffffffffffffffffffffff168273ffffffffffffffffffffffffffffffffffffffff161415612949576040517f08c379a0000000000000000000000000000000000000000000000000000000008152600401808060200182810382526024815260200180613efa6024913960400191505060405180910390fd5b612954838383613373565b61295f600082612675565b6129b081600160008673ffffffffffffffffffffffffffffffffffffffff1673ffffffffffffffffffffffffffffffffffffffff16815260200190815260200160002061337890919063ffffffff16565b50612a0281600160008573ffffffffffffffffffffffffffffffffffffffff1673ffffffffffffffffffffffffffffffffffffffff16815260200190815260200160002061339290919063ffffffff16565b50612a19818360026133ac9092919063ffffffff16565b50808273ffffffffffffffffffffffffffffffffffffffff168473ffffffffffffffffffffffffffffffffffffffff167fddf252ad1be2c89b69c2b068fc378daa952ba7f163c4a11628f55a4df523b3ef60405160405180910390a4505050565b612aa281600a60008581526020019081526020016000206000016133e190919063ffffffff16565b15612b0a57612aaf61266d565b73ffffffffffffffffffffffffffffffffffffffff168173ffffffffffffffffffffffffffffffffffffffff16837f2f8788117e7eff1d82e926ec794901d17c78024a50270940304540a733656f0d60405160405180910390a45b5050565b6000612b1d8360000183613411565b60001c905092915050565b612b5081600a600085815260200190815260200160002060000161349490919063ffffffff16565b15612bb857612b5d61266d565b73ffffffffffffffffffffffffffffffffffffffff168173ffffffffffffffffffffffffffffffffffffffff16837ff6391f5c32d9c69d2a47ea670b442974b53935d1edc7fd64eb21e047a839171b60405160405180910390a45b5050565b600080600080612bcf86600001866134c4565b915091508160001c8160001c8090509350935050509250929050565b6000612bfe846000018460001b8461355d565b60001c90509392505050565b600073ffffffffffffffffffffffffffffffffffffffff168273ffffffffffffffffffffffffffffffffffffffff161415612cad576040517f08c379a00000000000000000000000000000000000000000000000000000000081526004018080602001828103825260208152602001807f4552433732313a206d696e7420746f20746865207a65726f206164647265737381525060200191505060405180910390fd5b612cb681612650565b15612d29576040517f08c379a000000000000000000000000000000000000000000000000000000000815260040180806020018281038252601c8152602001807f4552433732313a20746f6b656e20616c7265616479206d696e7465640000000081525060200191505060405180910390fd5b612d3560008383613373565b612d8681600160008573ffffffffffffffffffffffffffffffffffffffff1673ffffffffffffffffffffffffffffffffffffffff16815260200190815260200160002061339290919063ffffffff16565b50612d9d818360026133ac9092919063ffffffff16565b50808273ffffffffffffffffffffffffffffffffffffffff16600073ffffffffffffffffffffffffffffffffffffffff167fddf252ad1be2c89b69c2b068fc378daa952ba7f163c4a11628f55a4df523b3ef60405160405180910390a45050565b60008073ffffffffffffffffffffffffffffffffffffffff168673ffffffffffffffffffffffffffffffffffffffff161415612e85576040517f08c379a000000000000000000000000000000000000000000000000000000000815260040180806020018281038252603081526020018061402b6030913960400191505060405180910390fd5b600073ffffffffffffffffffffffffffffffffffffffff168373ffffffffffffffffffffffffffffffffffffffff161415612f28576040517f08c379a000000000000000000000000000000000000000000000000000000000815260040180806020018281038252601f8152602001807f4d6574616461746120616464726573732063616e6e6f74206265207a65726f0081525060200191505060405180910390fd5b82601060016101000a81548173ffffffffffffffffffffffffffffffffffffffff021916908373ffffffffffffffffffffffffffffffffffffffff160217905550612f766000801b87613653565b612fb560405180807f4d494e5445525f524f4c45000000000000000000000000000000000000000000815250600b019050604051809103902087613653565b612ff460405180807f4d455441444154415f524f4c4500000000000000000000000000000000000000815250600d019050604051809103902087613653565b85600b60006101000a81548173ffffffffffffffffffffffffffffffffffffffff021916908373ffffffffffffffffffffffffffffffffffffffff16021790555085600c60006101000a81548173ffffffffffffffffffffffffffffffffffffffff021916908373ffffffffffffffffffffffffffffffffffffffff16021790555084600d908051906020019061308c929190613dd1565b5083600e90805190602001906130a3929190613dd1565b5081601160006101000a81548173ffffffffffffffffffffffffffffffffffffffff021916908373ffffffffffffffffffffffffffffffffffffffff1602179055506001601060006101000a81548160ff021916908315150217905550601060009054906101000a900460ff16905095945050505050565b600061312982600001613661565b9050919050565b600061313f8360000183613411565b60001c905092915050565b6000613172836000018373ffffffffffffffffffffffffffffffffffffffff1660001b613672565b905092915050565b613185848484612837565b61319184848484613695565b6131e6576040517f08c379a0000000000000000000000000000000000000000000000000000000008152600401808060200182810382526032815260200180613ec86032913960400191505060405180910390fd5b50505050565b60606000821415613234576040518060400160405280600181526020017f3000000000000000000000000000000000000000000000000000000000000000815250905061332e565b600082905060005b6000821461325e578080600101915050600a828161325657fe5b04915061323c565b60608167ffffffffffffffff8111801561327757600080fd5b506040519080825280601f01601f1916602001820160405280156132aa5781602001600182028036833780820191505090505b50905060006001830390508593505b6000841461332657600a84816132cb57fe5b0660300160f81b828280600190039350815181106132e557fe5b60200101907effffffffffffffffffffffffffffffffffffffffffffffffffffffffffffff1916908160001a905350600a848161331e57fe5b0493506132b9565b819450505050505b919050565b600061334182600001613661565b9050919050565b600061335a836000018360001b6138da565b905092915050565b600081600001805490509050919050565b505050565b600061338a836000018360001b6138fd565b905092915050565b60006133a4836000018360001b6139e5565b905092915050565b60006133d8846000018460001b8473ffffffffffffffffffffffffffffffffffffffff1660001b613a55565b90509392505050565b6000613409836000018373ffffffffffffffffffffffffffffffffffffffff1660001b6139e5565b905092915050565b600081836000018054905011613472576040517f08c379a0000000000000000000000000000000000000000000000000000000008152600401808060200182810382526022815260200180613e776022913960400191505060405180910390fd5b82600001828154811061348157fe5b9060005260206000200154905092915050565b60006134bc836000018373ffffffffffffffffffffffffffffffffffffffff1660001b6138fd565b905092915050565b60008082846000018054905011613526576040517f08c379a000000000000000000000000000000000000000000000000000000000815260040180806020018281038252602281526020018061405b6022913960400191505060405180910390fd5b600084600001848154811061353757fe5b906000526020600020906002020190508060000154816001015492509250509250929050565b60008084600101600085815260200190815260200160002054905060008114158390613624576040517f08c379a00000000000000000000000000000000000000000000000000000000081526004018080602001828103825283818151815260200191508051906020019080838360005b838110156135e95780820151818401526020810190506135ce565b50505050905090810190601f1680156136165780820380516001836020036101000a031916815260200191505b509250505060405180910390fd5b5084600001600182038154811061363757fe5b9060005260206000209060020201600101549150509392505050565b61365d8282612a7a565b5050565b600081600001805490509050919050565b600080836001016000848152602001908152602001600020541415905092915050565b60006136b68473ffffffffffffffffffffffffffffffffffffffff16613b31565b6136c357600190506138d2565b606061385963150b7a0260e01b6136d861266d565b888787604051602401808573ffffffffffffffffffffffffffffffffffffffff1673ffffffffffffffffffffffffffffffffffffffff1681526020018473ffffffffffffffffffffffffffffffffffffffff1673ffffffffffffffffffffffffffffffffffffffff16815260200183815260200180602001828103825283818151815260200191508051906020019080838360005b8381101561378857808201518184015260208101905061376d565b50505050905090810190601f1680156137b55780820380516001836020036101000a031916815260200191505b5095505050505050604051602081830303815290604052907bffffffffffffffffffffffffffffffffffffffffffffffffffffffff19166020820180517bffffffffffffffffffffffffffffffffffffffffffffffffffffffff8381831617835250505050604051806060016040528060328152602001613ec8603291398773ffffffffffffffffffffffffffffffffffffffff16613b449092919063ffffffff16565b9050600081806020019051602081101561387257600080fd5b8101908080519060200190929190505050905063150b7a0260e01b7bffffffffffffffffffffffffffffffffffffffffffffffffffffffff1916817bffffffffffffffffffffffffffffffffffffffffffffffffffffffff191614925050505b949350505050565b600080836001016000848152602001908152602001600020541415905092915050565b600080836001016000848152602001908152602001600020549050600081146139d9576000600182039050600060018660000180549050039050600086600001828154811061394857fe5b906000526020600020015490508087600001848154811061396557fe5b906000526020600020018190555060018301876001016000838152602001908152602001600020819055508660000180548061399d57fe5b600190038181906000526020600020016000905590558660010160008781526020019081526020016000206000905560019450505050506139df565b60009150505b92915050565b60006139f18383613672565b613a4a578260000182908060018154018082558091505060019003906000526020600020016000909190919091505582600001805490508360010160008481526020019081526020016000208190555060019050613a4f565b600090505b92915050565b6000808460010160008581526020019081526020016000205490506000811415613afc57846000016040518060400160405280868152602001858152509080600181540180825580915050600190039060005260206000209060020201600090919091909150600082015181600001556020820151816001015550508460000180549050856001016000868152602001908152602001600020819055506001915050613b2a565b82856000016001830381548110613b0f57fe5b90600052602060002090600202016001018190555060009150505b9392505050565b600080823b905060008111915050919050565b6060613b538484600085613b5c565b90509392505050565b606082471015613bb7576040517f08c379a0000000000000000000000000000000000000000000000000000000008152600401808060200182810382526026815260200180613f1e6026913960400191505060405180910390fd5b613bc085613b31565b613c32576040517f08c379a000000000000000000000000000000000000000000000000000000000815260040180806020018281038252601d8152602001807f416464726573733a2063616c6c20746f206e6f6e2d636f6e747261637400000081525060200191505060405180910390fd5b600060608673ffffffffffffffffffffffffffffffffffffffff1685876040518082805190602001908083835b60208310613c825780518252602082019150602081019050602083039250613c5f565b6001836020036101000a03801982511681845116808217855250505050505090500191505060006040518083038185875af1925050503d8060008114613ce4576040519150601f19603f3d011682016040523d82523d6000602084013e613ce9565b606091505b5091509150613cf9828286613d05565b92505050949350505050565b60608315613d1557829050613dca565b600083511115613d285782518084602001fd5b816040517f08c379a00000000000000000000000000000000000000000000000000000000081526004018080602001828103825283818151815260200191508051906020019080838360005b83811015613d8f578082015181840152602081019050613d74565b50505050905090810190601f168015613dbc5780820380516001836020036101000a031916815260200191505b509250505060405180910390fd5b9392505050565b828054600181600116156101000203166002900490600052602060002090601f016020900481019282601f10613e1257805160ff1916838001178555613e40565b82800160010185558215613e40579182015b82811115613e3f578251825591602001919060010190613e24565b5b509050613e4d9190613e51565b5090565b613e7391905b80821115613e6f576000816000905550600101613e57565b5090565b9056fe456e756d657261626c655365743a20696e646578206f7574206f6620626f756e6473416363657373436f6e74726f6c3a2073656e646572206d75737420626520616e2061646d696e20746f206772616e744552433732313a207472616e7366657220746f206e6f6e20455243373231526563656976657220696d706c656d656e7465724552433732313a207472616e7366657220746f20746865207a65726f2061646472657373416464726573733a20696e73756666696369656e742062616c616e636520666f722063616c6c4552433732313a206f70657261746f7220717565727920666f72206e6f6e6578697374656e7420746f6b656e416363657373436f6e74726f6c3a2073656e646572206d75737420626520616e2061646d696e20746f207265766f6b654552433732313a20617070726f76652063616c6c6572206973206e6f74206f776e6572206e6f7220617070726f76656420666f7220616c6c4552433732313a2062616c616e636520717565727920666f7220746865207a65726f20616464726573734552433732313a206f776e657220717565727920666f72206e6f6e6578697374656e7420746f6b656e44617461546f6b656e54656d706c6174653a20496e76616c6964206d696e7465722c20207a65726f2061646472657373456e756d657261626c654d61703a20696e646578206f7574206f6620626f756e64734552433732313a20617070726f76656420717565727920666f72206e6f6e6578697374656e7420746f6b656e4552433732313a207472616e73666572206f6620746f6b656e2074686174206973206e6f74206f776e4552433732314d657461646174613a2055524920717565727920666f72206e6f6e6578697374656e7420746f6b656e4552433732313a20617070726f76616c20746f2063757272656e74206f776e65724552433732313a207472616e736665722063616c6c6572206973206e6f74206f776e6572206e6f7220617070726f76656445524337323154656d706c6174653a20746f6b656e20696e7374616e636520616c726561647920696e697469616c697a6564416363657373436f6e74726f6c3a2063616e206f6e6c792072656e6f756e636520726f6c657320666f722073656c66a2646970667358221220c996ddc88a552608e45283c4600899956433fb9e4a27ed8dd0154ec1bfff84b764736f6c6343000606003344617461546f6b656e54656d706c6174653a20496e76616c6964206d696e7465722c20207a65726f2061646472657373",
  "immutableReferences": {},
  "source": "pragma solidity >=0.6.0;\n\nimport \"@openzeppelin/contracts/token/ERC721/ERC721.sol\";\nimport \"@openzeppelin/contracts/access/AccessControl.sol\";\nimport \"../interfaces/IMetadata.sol\";\nimport \"../interfaces/IERC20Factory.sol\";\n\ncontract ERC721Template is ERC721, AccessControl {\n    address private paymentCollector;\n    address private ipHolder;\n    bytes32 public constant MINTER_ROLE = keccak256(\"MINTER_ROLE\");\n    bytes32 public constant METADATA_ROLE = keccak256(\"METADATA_ROLE\");\n\n   \n    string private _name;\n    string private _symbol;\n    uint256 private tokenId = 1;\n    bool private initialized;\n    address public _metadata;\n    bool private erc20Minted;\n    address private _erc20Factory;\n  \n\n    modifier onlyNotInitialized() {\n        require(\n            !initialized,\n            \"ERC721Template: token instance already initialized\"\n        );\n        _;\n    }\n\n    constructor(\n        string memory name,\n        string memory symbol,\n        address admin,\n        bytes memory _data,\n        bytes memory flags,\n        address metadata,\n        address erc20Factory\n    ) public ERC721(name, symbol) {\n      //  _metadata = metadata;\n        _initialize(admin, name, symbol,metadata,erc20Factory);\n        _createMetadata(flags, _data);\n    }\n\n    function initialize(\n        address admin,\n        string calldata name,\n        string calldata symbol,\n        address metadata,\n        address erc20Factory\n    ) external onlyNotInitialized returns (bool) {\n        return _initialize(admin, name, symbol,metadata,erc20Factory);\n    }\n\n    function _initialize(\n        address admin,\n        string memory name,\n        string memory symbol,\n        address metadata,\n        address erc20Factory\n    ) private returns (bool) {\n        require(\n            admin != address(0),\n            \"DataTokenTemplate: Invalid minter,  zero address\"\n        );\n        require(metadata != address(0), \"Metadata address cannot be zero\");\n        _metadata = metadata;\n        _setupRole(DEFAULT_ADMIN_ROLE, admin);\n        _setupRole(MINTER_ROLE, admin);\n        _setupRole(METADATA_ROLE, admin);\n        paymentCollector = admin;\n        ipHolder = admin;\n        _name = name;\n        _symbol = symbol;\n        _erc20Factory = erc20Factory;\n        initialized = true;\n        return initialized;\n    }\n\n    function mint(address account) external {\n        require(hasRole(MINTER_ROLE, msg.sender), \"NOT MINTER_ROLE\");\n        tokenId += 1;\n        _mint(account, tokenId);\n    }\n\n    function _createMetadata(bytes memory flags, bytes memory data) internal {\n       // require(hasRole(METADATA_ROLE, msg.sender), \"NOT METADATA_ROLE\");\n        require(_metadata != address(0), \"Invalid Metadata address\");\n\n        IMetadata(_metadata).create(address(this), flags, data);\n    }\n\n    function update(bytes calldata flags, bytes calldata data) external {\n        require(hasRole(METADATA_ROLE, msg.sender), \"NOT METADATA_ROLE\");\n        IMetadata(_metadata).update(address(this), flags, data);\n    }\n\n    function createERC20( string calldata blob, string calldata name, string calldata symbol, uint256 cap) external {\n        require(hasRole(MINTER_ROLE, msg.sender), \"NOT MINTER_ROLE\");\n        require(erc20Minted == false, 'ERC20 Already Created');\n        \n        require(IERC20Factory(_erc20Factory).createToken(blob,name,symbol,cap,msg.sender) != address(0), 'ERC20Token creation failed'); // already checked when creating a new ERC20 in ERC20Factory, could be removerd\n        erc20Minted = true;\n    }\n    /**\n     * @dev name\n     *      It returns the token name.\n     * @return DataToken name.\n     */\n    function name() public view override returns (string memory) {\n        return _name;\n    }\n\n    /**\n     * @dev symbol\n     *      It returns the token symbol.\n     * @return DataToken symbol.\n     */\n    function symbol() public view override returns (string memory) {\n        return _symbol;\n    }\n\n    function isInitialized() public view returns (bool) {\n        return initialized;\n    }\n}\n",
  "sourcePath": "/home/andrea/ocean/v4/contracts/templates/ERC721Template.sol",
  "compiler": {
    "name": "solc",
    "version": "0.6.6+commit.6c089d02.Emscripten.clang"
  },
  "schemaVersion": "3.2.4",
  "updatedAt": "2021-04-19T23:26:49.398Z",
  "devdoc": {
    "methods": {
      "approve(address,uint256)": {
        "details": "See {IERC721-approve}."
      },
      "balanceOf(address)": {
        "details": "See {IERC721-balanceOf}."
      },
      "baseURI()": {
        "details": "Returns the base URI set via {_setBaseURI}. This will be automatically added as a prefix in {tokenURI} to each token's URI, or to the token ID if no specific URI is set for that token ID."
      },
      "getApproved(uint256)": {
        "details": "See {IERC721-getApproved}."
      },
      "getRoleAdmin(bytes32)": {
        "details": "Returns the admin role that controls `role`. See {grantRole} and {revokeRole}.     * To change a role's admin, use {_setRoleAdmin}."
      },
      "getRoleMember(bytes32,uint256)": {
        "details": "Returns one of the accounts that have `role`. `index` must be a value between 0 and {getRoleMemberCount}, non-inclusive.     * Role bearers are not sorted in any particular way, and their ordering may change at any point.     * WARNING: When using {getRoleMember} and {getRoleMemberCount}, make sure you perform all queries on the same block. See the following https://forum.openzeppelin.com/t/iterating-over-elements-on-enumerableset-in-openzeppelin-contracts/2296[forum post] for more information."
      },
      "getRoleMemberCount(bytes32)": {
        "details": "Returns the number of accounts that have `role`. Can be used together with {getRoleMember} to enumerate all bearers of a role."
      },
      "grantRole(bytes32,address)": {
        "details": "Grants `role` to `account`.     * If `account` had not been already granted `role`, emits a {RoleGranted} event.     * Requirements:     * - the caller must have ``role``'s admin role."
      },
      "hasRole(bytes32,address)": {
        "details": "Returns `true` if `account` has been granted `role`."
      },
      "isApprovedForAll(address,address)": {
        "details": "See {IERC721-isApprovedForAll}."
      },
      "name()": {
        "details": "name     It returns the token name.",
        "returns": {
          "_0": "DataToken name."
        }
      },
      "ownerOf(uint256)": {
        "details": "See {IERC721-ownerOf}."
      },
      "renounceRole(bytes32,address)": {
        "details": "Revokes `role` from the calling account.     * Roles are often managed via {grantRole} and {revokeRole}: this function's purpose is to provide a mechanism for accounts to lose their privileges if they are compromised (such as when a trusted device is misplaced).     * If the calling account had been granted `role`, emits a {RoleRevoked} event.     * Requirements:     * - the caller must be `account`."
      },
      "revokeRole(bytes32,address)": {
        "details": "Revokes `role` from `account`.     * If `account` had been granted `role`, emits a {RoleRevoked} event.     * Requirements:     * - the caller must have ``role``'s admin role."
      },
      "safeTransferFrom(address,address,uint256)": {
        "details": "See {IERC721-safeTransferFrom}."
      },
      "safeTransferFrom(address,address,uint256,bytes)": {
        "details": "See {IERC721-safeTransferFrom}."
      },
      "setApprovalForAll(address,bool)": {
        "details": "See {IERC721-setApprovalForAll}."
      },
      "supportsInterface(bytes4)": {
        "details": "See {IERC165-supportsInterface}.     * Time complexity O(1), guaranteed to always use less than 30 000 gas."
      },
      "symbol()": {
        "details": "symbol     It returns the token symbol.",
        "returns": {
          "_0": "DataToken symbol."
        }
      },
      "tokenByIndex(uint256)": {
        "details": "See {IERC721Enumerable-tokenByIndex}."
      },
      "tokenOfOwnerByIndex(address,uint256)": {
        "details": "See {IERC721Enumerable-tokenOfOwnerByIndex}."
      },
      "tokenURI(uint256)": {
        "details": "See {IERC721Metadata-tokenURI}."
      },
      "totalSupply()": {
        "details": "See {IERC721Enumerable-totalSupply}."
      },
      "transferFrom(address,address,uint256)": {
        "details": "See {IERC721-transferFrom}."
      }
    }
  },
  "userdoc": {
    "methods": {}
  }
}