{
  "contractName": "ERC721Template",
  "abi": [
    {
      "inputs": [
        {
          "internalType": "string",
          "name": "name",
          "type": "string"
        },
        {
          "internalType": "string",
          "name": "symbol",
          "type": "string"
        },
        {
          "internalType": "address",
          "name": "admin",
          "type": "address"
        },
        {
          "internalType": "address",
          "name": "metadata",
          "type": "address"
        },
        {
          "internalType": "address",
          "name": "erc20Factory",
          "type": "address"
        },
        {
          "internalType": "bytes",
          "name": "_data",
          "type": "bytes"
        },
        {
          "internalType": "bytes",
          "name": "flags",
          "type": "bytes"
        }
      ],
      "stateMutability": "nonpayable",
      "type": "constructor"
    },
    {
      "anonymous": false,
      "inputs": [
        {
          "indexed": true,
          "internalType": "address",
          "name": "owner",
          "type": "address"
        },
        {
          "indexed": true,
          "internalType": "address",
          "name": "approved",
          "type": "address"
        },
        {
          "indexed": true,
          "internalType": "uint256",
          "name": "tokenId",
          "type": "uint256"
        }
      ],
      "name": "Approval",
      "type": "event"
    },
    {
      "anonymous": false,
      "inputs": [
        {
          "indexed": true,
          "internalType": "address",
          "name": "owner",
          "type": "address"
        },
        {
          "indexed": true,
          "internalType": "address",
          "name": "operator",
          "type": "address"
        },
        {
          "indexed": false,
          "internalType": "bool",
          "name": "approved",
          "type": "bool"
        }
      ],
      "name": "ApprovalForAll",
      "type": "event"
    },
    {
      "anonymous": false,
      "inputs": [
        {
          "indexed": true,
          "internalType": "address",
          "name": "erc20Address",
          "type": "address"
        }
      ],
      "name": "ERC20Created",
      "type": "event"
    },
    {
      "anonymous": false,
      "inputs": [
        {
          "indexed": true,
          "internalType": "bytes32",
          "name": "role",
          "type": "bytes32"
        },
        {
          "indexed": true,
          "internalType": "bytes32",
          "name": "previousAdminRole",
          "type": "bytes32"
        },
        {
          "indexed": true,
          "internalType": "bytes32",
          "name": "newAdminRole",
          "type": "bytes32"
        }
      ],
      "name": "RoleAdminChanged",
      "type": "event"
    },
    {
      "anonymous": false,
      "inputs": [
        {
          "indexed": true,
          "internalType": "bytes32",
          "name": "role",
          "type": "bytes32"
        },
        {
          "indexed": true,
          "internalType": "address",
          "name": "account",
          "type": "address"
        },
        {
          "indexed": true,
          "internalType": "address",
          "name": "sender",
          "type": "address"
        }
      ],
      "name": "RoleGranted",
      "type": "event"
    },
    {
      "anonymous": false,
      "inputs": [
        {
          "indexed": true,
          "internalType": "bytes32",
          "name": "role",
          "type": "bytes32"
        },
        {
          "indexed": true,
          "internalType": "address",
          "name": "account",
          "type": "address"
        },
        {
          "indexed": true,
          "internalType": "address",
          "name": "sender",
          "type": "address"
        }
      ],
      "name": "RoleRevoked",
      "type": "event"
    },
    {
      "anonymous": false,
      "inputs": [
        {
          "indexed": true,
          "internalType": "address",
          "name": "from",
          "type": "address"
        },
        {
          "indexed": true,
          "internalType": "address",
          "name": "to",
          "type": "address"
        },
        {
          "indexed": true,
          "internalType": "uint256",
          "name": "tokenId",
          "type": "uint256"
        }
      ],
      "name": "Transfer",
      "type": "event"
    },
    {
      "inputs": [],
      "name": "DEFAULT_ADMIN_ROLE",
      "outputs": [
        {
          "internalType": "bytes32",
          "name": "",
          "type": "bytes32"
        }
      ],
      "stateMutability": "view",
      "type": "function"
    },
    {
      "inputs": [],
      "name": "METADATA_ROLE",
      "outputs": [
        {
          "internalType": "bytes32",
          "name": "",
          "type": "bytes32"
        }
      ],
      "stateMutability": "view",
      "type": "function"
    },
    {
      "inputs": [],
      "name": "MINTER_ROLE",
      "outputs": [
        {
          "internalType": "bytes32",
          "name": "",
          "type": "bytes32"
        }
      ],
      "stateMutability": "view",
      "type": "function"
    },
    {
      "inputs": [],
      "name": "_metadata",
      "outputs": [
        {
          "internalType": "address",
          "name": "",
          "type": "address"
        }
      ],
      "stateMutability": "view",
      "type": "function"
    },
    {
      "inputs": [
        {
          "internalType": "address",
          "name": "to",
          "type": "address"
        },
        {
          "internalType": "uint256",
          "name": "tokenId",
          "type": "uint256"
        }
      ],
      "name": "approve",
      "outputs": [],
      "stateMutability": "nonpayable",
      "type": "function"
    },
    {
      "inputs": [
        {
          "internalType": "address",
          "name": "owner",
          "type": "address"
        }
      ],
      "name": "balanceOf",
      "outputs": [
        {
          "internalType": "uint256",
          "name": "",
          "type": "uint256"
        }
      ],
      "stateMutability": "view",
      "type": "function"
    },
    {
      "inputs": [],
      "name": "baseURI",
      "outputs": [
        {
          "internalType": "string",
          "name": "",
          "type": "string"
        }
      ],
      "stateMutability": "view",
      "type": "function"
    },
    {
      "inputs": [
        {
          "internalType": "uint256",
          "name": "tokenId",
          "type": "uint256"
        }
      ],
      "name": "getApproved",
      "outputs": [
        {
          "internalType": "address",
          "name": "",
          "type": "address"
        }
      ],
      "stateMutability": "view",
      "type": "function"
    },
    {
      "inputs": [
        {
          "internalType": "bytes32",
          "name": "role",
          "type": "bytes32"
        }
      ],
      "name": "getRoleAdmin",
      "outputs": [
        {
          "internalType": "bytes32",
          "name": "",
          "type": "bytes32"
        }
      ],
      "stateMutability": "view",
      "type": "function"
    },
    {
      "inputs": [
        {
          "internalType": "bytes32",
          "name": "role",
          "type": "bytes32"
        },
        {
          "internalType": "uint256",
          "name": "index",
          "type": "uint256"
        }
      ],
      "name": "getRoleMember",
      "outputs": [
        {
          "internalType": "address",
          "name": "",
          "type": "address"
        }
      ],
      "stateMutability": "view",
      "type": "function"
    },
    {
      "inputs": [
        {
          "internalType": "bytes32",
          "name": "role",
          "type": "bytes32"
        }
      ],
      "name": "getRoleMemberCount",
      "outputs": [
        {
          "internalType": "uint256",
          "name": "",
          "type": "uint256"
        }
      ],
      "stateMutability": "view",
      "type": "function"
    },
    {
      "inputs": [
        {
          "internalType": "bytes32",
          "name": "role",
          "type": "bytes32"
        },
        {
          "internalType": "address",
          "name": "account",
          "type": "address"
        }
      ],
      "name": "grantRole",
      "outputs": [],
      "stateMutability": "nonpayable",
      "type": "function"
    },
    {
      "inputs": [
        {
          "internalType": "bytes32",
          "name": "role",
          "type": "bytes32"
        },
        {
          "internalType": "address",
          "name": "account",
          "type": "address"
        }
      ],
      "name": "hasRole",
      "outputs": [
        {
          "internalType": "bool",
          "name": "",
          "type": "bool"
        }
      ],
      "stateMutability": "view",
      "type": "function"
    },
    {
      "inputs": [
        {
          "internalType": "address",
          "name": "owner",
          "type": "address"
        },
        {
          "internalType": "address",
          "name": "operator",
          "type": "address"
        }
      ],
      "name": "isApprovedForAll",
      "outputs": [
        {
          "internalType": "bool",
          "name": "",
          "type": "bool"
        }
      ],
      "stateMutability": "view",
      "type": "function"
    },
    {
      "inputs": [
        {
          "internalType": "uint256",
          "name": "tokenId",
          "type": "uint256"
        }
      ],
      "name": "ownerOf",
      "outputs": [
        {
          "internalType": "address",
          "name": "",
          "type": "address"
        }
      ],
      "stateMutability": "view",
      "type": "function"
    },
    {
      "inputs": [
        {
          "internalType": "bytes32",
          "name": "role",
          "type": "bytes32"
        },
        {
          "internalType": "address",
          "name": "account",
          "type": "address"
        }
      ],
      "name": "renounceRole",
      "outputs": [],
      "stateMutability": "nonpayable",
      "type": "function"
    },
    {
      "inputs": [
        {
          "internalType": "bytes32",
          "name": "role",
          "type": "bytes32"
        },
        {
          "internalType": "address",
          "name": "account",
          "type": "address"
        }
      ],
      "name": "revokeRole",
      "outputs": [],
      "stateMutability": "nonpayable",
      "type": "function"
    },
    {
      "inputs": [
        {
          "internalType": "address",
          "name": "from",
          "type": "address"
        },
        {
          "internalType": "address",
          "name": "to",
          "type": "address"
        },
        {
          "internalType": "uint256",
          "name": "tokenId",
          "type": "uint256"
        }
      ],
      "name": "safeTransferFrom",
      "outputs": [],
      "stateMutability": "nonpayable",
      "type": "function"
    },
    {
      "inputs": [
        {
          "internalType": "address",
          "name": "from",
          "type": "address"
        },
        {
          "internalType": "address",
          "name": "to",
          "type": "address"
        },
        {
          "internalType": "uint256",
          "name": "tokenId",
          "type": "uint256"
        },
        {
          "internalType": "bytes",
          "name": "_data",
          "type": "bytes"
        }
      ],
      "name": "safeTransferFrom",
      "outputs": [],
      "stateMutability": "nonpayable",
      "type": "function"
    },
    {
      "inputs": [
        {
          "internalType": "address",
          "name": "operator",
          "type": "address"
        },
        {
          "internalType": "bool",
          "name": "approved",
          "type": "bool"
        }
      ],
      "name": "setApprovalForAll",
      "outputs": [],
      "stateMutability": "nonpayable",
      "type": "function"
    },
    {
      "inputs": [
        {
          "internalType": "bytes4",
          "name": "interfaceId",
          "type": "bytes4"
        }
      ],
      "name": "supportsInterface",
      "outputs": [
        {
          "internalType": "bool",
          "name": "",
          "type": "bool"
        }
      ],
      "stateMutability": "view",
      "type": "function"
    },
    {
      "inputs": [
        {
          "internalType": "uint256",
          "name": "index",
          "type": "uint256"
        }
      ],
      "name": "tokenByIndex",
      "outputs": [
        {
          "internalType": "uint256",
          "name": "",
          "type": "uint256"
        }
      ],
      "stateMutability": "view",
      "type": "function"
    },
    {
      "inputs": [
        {
          "internalType": "address",
          "name": "owner",
          "type": "address"
        },
        {
          "internalType": "uint256",
          "name": "index",
          "type": "uint256"
        }
      ],
      "name": "tokenOfOwnerByIndex",
      "outputs": [
        {
          "internalType": "uint256",
          "name": "",
          "type": "uint256"
        }
      ],
      "stateMutability": "view",
      "type": "function"
    },
    {
      "inputs": [
        {
          "internalType": "uint256",
          "name": "tokenId",
          "type": "uint256"
        }
      ],
      "name": "tokenURI",
      "outputs": [
        {
          "internalType": "string",
          "name": "",
          "type": "string"
        }
      ],
      "stateMutability": "view",
      "type": "function"
    },
    {
      "inputs": [],
      "name": "totalSupply",
      "outputs": [
        {
          "internalType": "uint256",
          "name": "",
          "type": "uint256"
        }
      ],
      "stateMutability": "view",
      "type": "function"
    },
    {
      "inputs": [
        {
          "internalType": "address",
          "name": "from",
          "type": "address"
        },
        {
          "internalType": "address",
          "name": "to",
          "type": "address"
        },
        {
          "internalType": "uint256",
          "name": "tokenId",
          "type": "uint256"
        }
      ],
      "name": "transferFrom",
      "outputs": [],
      "stateMutability": "nonpayable",
      "type": "function"
    },
    {
      "inputs": [
        {
          "internalType": "address",
          "name": "admin",
          "type": "address"
        },
        {
          "internalType": "string",
          "name": "name",
          "type": "string"
        },
        {
          "internalType": "string",
          "name": "symbol",
          "type": "string"
        },
        {
          "internalType": "address",
          "name": "metadata",
          "type": "address"
        },
        {
          "internalType": "address",
          "name": "erc20Factory",
          "type": "address"
        },
        {
          "internalType": "bytes",
          "name": "_data",
          "type": "bytes"
        },
        {
          "internalType": "bytes",
          "name": "flags",
          "type": "bytes"
        }
      ],
      "name": "initialize",
      "outputs": [
        {
          "internalType": "bool",
          "name": "",
          "type": "bool"
        }
      ],
      "stateMutability": "nonpayable",
      "type": "function"
    },
    {
      "inputs": [
        {
          "internalType": "address",
          "name": "account",
          "type": "address"
        }
      ],
      "name": "mint",
      "outputs": [],
      "stateMutability": "nonpayable",
      "type": "function"
    },
    {
      "inputs": [
        {
          "internalType": "bytes",
          "name": "flags",
          "type": "bytes"
        },
        {
          "internalType": "bytes",
          "name": "data",
          "type": "bytes"
        }
      ],
      "name": "updateMetadata",
      "outputs": [],
      "stateMutability": "nonpayable",
      "type": "function"
    },
    {
      "inputs": [
        {
          "internalType": "string",
          "name": "blob",
          "type": "string"
        },
        {
          "internalType": "string",
          "name": "name",
          "type": "string"
        },
        {
          "internalType": "string",
          "name": "symbol",
          "type": "string"
        },
        {
          "internalType": "uint256",
          "name": "cap",
          "type": "uint256"
        },
        {
          "internalType": "uint256",
          "name": "templateIndex",
          "type": "uint256"
        }
      ],
      "name": "createERC20",
      "outputs": [
        {
          "internalType": "address",
          "name": "",
          "type": "address"
        }
      ],
      "stateMutability": "nonpayable",
      "type": "function"
    },
    {
      "inputs": [],
      "name": "name",
      "outputs": [
        {
          "internalType": "string",
          "name": "",
          "type": "string"
        }
      ],
      "stateMutability": "view",
      "type": "function"
    },
    {
      "inputs": [],
      "name": "symbol",
      "outputs": [
        {
          "internalType": "string",
          "name": "",
          "type": "string"
        }
      ],
      "stateMutability": "view",
      "type": "function"
    },
    {
      "inputs": [],
      "name": "isInitialized",
      "outputs": [
        {
          "internalType": "bool",
          "name": "",
          "type": "bool"
        }
      ],
      "stateMutability": "view",
      "type": "function"
    }
  ],
  "bytecode": "0x60806040526001600f553480156200001657600080fd5b50604051620032a3380380620032a3833981810160405260e08110156200003c57600080fd5b81019080805160405193929190846401000000008211156200005d57600080fd5b9083019060208201858111156200007357600080fd5b82516401000000008111828201881017156200008e57600080fd5b82525081516020918201929091019080838360005b83811015620000bd578181015183820152602001620000a3565b50505050905090810190601f168015620000eb5780820380516001836020036101000a031916815260200191505b50604052602001805160405193929190846401000000008211156200010f57600080fd5b9083019060208201858111156200012557600080fd5b82516401000000008111828201881017156200014057600080fd5b82525081516020918201929091019080838360005b838110156200016f57818101518382015260200162000155565b50505050905090810190601f1680156200019d5780820380516001836020036101000a031916815260200191505b50604081815260208301519083015160608401516080909401805192969195919284640100000000821115620001d257600080fd5b908301906020820185811115620001e857600080fd5b82516401000000008111828201881017156200020357600080fd5b82525081516020918201929091019080838360005b838110156200023257818101518382015260200162000218565b50505050905090810190601f168015620002605780820380516001836020036101000a031916815260200191505b50604052602001805160405193929190846401000000008211156200028457600080fd5b9083019060208201858111156200029a57600080fd5b8251640100000000811182820188101715620002b557600080fd5b82525081516020918201929091019080838360005b83811015620002e4578181015183820152602001620002ca565b50505050905090810190601f168015620003125780820380516001836020036101000a031916815260200191505b5060405250889150879050620003386301ffc9a760e01b6001600160e01b03620003c416565b81516200034d90600690602085019062000449565b5080516200036390600790602084019062000449565b506200037f6380ac58cd60e01b6001600160e01b03620003c416565b6200039a635b5e139f60e01b6001600160e01b03620003c416565b620003b563780e9d6360e01b6001600160e01b03620003c416565b505050505050505050620004ee565b6001600160e01b0319808216141562000424576040805162461bcd60e51b815260206004820152601c60248201527f4552433136353a20696e76616c696420696e7465726661636520696400000000604482015290519081900360640190fd5b6001600160e01b0319166000908152602081905260409020805460ff19166001179055565b828054600181600116156101000203166002900490600052602060002090601f016020900481019282601f106200048c57805160ff1916838001178555620004bc565b82800160010185558215620004bc579182015b82811115620004bc5782518255916020019190600101906200049f565b50620004ca929150620004ce565b5090565b620004eb91905b80821115620004ca5760008155600101620004d5565b90565b612da580620004fe6000396000f3fe608060405234801561001057600080fd5b50600436106101fb5760003560e01c80636352211e1161011a578063a217fddf116100ad578063c87b56dd1161007c578063c87b56dd14610996578063ca15c873146109b3578063d5391393146109d0578063d547741f146109d8578063e985e9c514610a04576101fb565b8063a217fddf14610788578063a22cb46514610790578063b88d4fde146107be578063be4ff13514610882576101fb565b80637db0f56d116100e95780637db0f56d146105aa5780639010d07c1461073157806391d148541461075457806395d89b4114610780576101fb565b80636352211e146105395780636a627842146105565780636c0360eb1461057c57806370a0823114610584576101fb565b80632f745c591161019257806339371b251161016157806339371b251461042057806342842e0e1461042857806342c914c81461045e5780634f6ccce71461051c576101fb565b80632f745c59146103b857806336568abe146103e45780633884178214610410578063392e53cd14610418576101fb565b806318160ddd116101ce57806318160ddd1461031f57806323b872dd14610339578063248a9ca31461036f5780632f2ff15d1461038c576101fb565b806301ffc9a71461020057806306fdde031461023b578063081812fc146102b8578063095ea7b3146102f1575b600080fd5b6102276004803603602081101561021657600080fd5b50356001600160e01b031916610a32565b604080519115158252519081900360200190f35b610243610a55565b6040805160208082528351818301528351919283929083019185019080838360005b8381101561027d578181015183820152602001610265565b50505050905090810190601f1680156102aa5780820380516001836020036101000a031916815260200191505b509250505060405180910390f35b6102d5600480360360208110156102ce57600080fd5b5035610aec565b604080516001600160a01b039092168252519081900360200190f35b61031d6004803603604081101561030757600080fd5b506001600160a01b038135169060200135610b4e565b005b610327610c29565b60408051918252519081900360200190f35b61031d6004803603606081101561034f57600080fd5b506001600160a01b03813581169160208101359091169060400135610c3a565b6103276004803603602081101561038557600080fd5b5035610c91565b61031d600480360360408110156103a257600080fd5b50803590602001356001600160a01b0316610ca6565b610327600480360360408110156103ce57600080fd5b506001600160a01b038135169060200135610d12565b61031d600480360360408110156103fa57600080fd5b50803590602001356001600160a01b0316610d43565b610327610da4565b610227610dc9565b6102d5610dd2565b61031d6004803603606081101561043e57600080fd5b506001600160a01b03813581169160208101359091169060400135610de6565b61031d6004803603604081101561047457600080fd5b810190602081018135600160201b81111561048e57600080fd5b8201836020820111156104a057600080fd5b803590602001918460018302840111600160201b831117156104c157600080fd5b919390929091602081019035600160201b8111156104de57600080fd5b8201836020820111156104f057600080fd5b803590602001918460018302840111600160201b8311171561051157600080fd5b509092509050610e01565b6103276004803603602081101561053257600080fd5b5035610f43565b6102d56004803603602081101561054f57600080fd5b5035610f5f565b61031d6004803603602081101561056c57600080fd5b50356001600160a01b0316610f8d565b610243611013565b6103276004803603602081101561059a57600080fd5b50356001600160a01b0316611074565b610227600480360360e08110156105c057600080fd5b6001600160a01b038235169190810190604081016020820135600160201b8111156105ea57600080fd5b8201836020820111156105fc57600080fd5b803590602001918460018302840111600160201b8311171561061d57600080fd5b919390929091602081019035600160201b81111561063a57600080fd5b82018360208201111561064c57600080fd5b803590602001918460018302840111600160201b8311171561066d57600080fd5b919390926001600160a01b0383358116936020810135909116929190606081019060400135600160201b8111156106a357600080fd5b8201836020820111156106b557600080fd5b803590602001918460018302840111600160201b831117156106d657600080fd5b919390929091602081019035600160201b8111156106f357600080fd5b82018360208201111561070557600080fd5b803590602001918460018302840111600160201b8311171561072657600080fd5b5090925090506110dc565b6102d56004803603604081101561074757600080fd5b5080359060200135611222565b6102276004803603604081101561076a57600080fd5b50803590602001356001600160a01b0316611240565b61024361125e565b6103276112bf565b61031d600480360360408110156107a657600080fd5b506001600160a01b03813516906020013515156112c4565b61031d600480360360808110156107d457600080fd5b6001600160a01b03823581169260208101359091169160408201359190810190608081016060820135600160201b81111561080e57600080fd5b82018360208201111561082057600080fd5b803590602001918460018302840111600160201b8311171561084157600080fd5b91908080601f0160208091040260200160405190810160405280939291908181526020018383808284376000920191909152509295506113c9945050505050565b6102d5600480360360a081101561089857600080fd5b810190602081018135600160201b8111156108b257600080fd5b8201836020820111156108c457600080fd5b803590602001918460018302840111600160201b831117156108e557600080fd5b919390929091602081019035600160201b81111561090257600080fd5b82018360208201111561091457600080fd5b803590602001918460018302840111600160201b8311171561093557600080fd5b919390929091602081019035600160201b81111561095257600080fd5b82018360208201111561096457600080fd5b803590602001918460018302840111600160201b8311171561098557600080fd5b919350915080359060200135611427565b610243600480360360208110156109ac57600080fd5b5035611612565b610327600480360360208110156109c957600080fd5b5035611895565b6103276118ac565b61031d600480360360408110156109ee57600080fd5b50803590602001356001600160a01b03166118cf565b61022760048036036040811015610a1a57600080fd5b506001600160a01b0381358116916020013516611928565b6001600160e01b0319811660009081526020819052604090205460ff165b919050565b600d8054604080516020601f6002600019610100600188161502019095169490940493840181900481028201810190925282815260609390929091830182828015610ae15780601f10610ab657610100808354040283529160200191610ae1565b820191906000526020600020905b815481529060010190602001808311610ac457829003601f168201915b505050505090505b90565b6000610af782611956565b610b325760405162461bcd60e51b815260040180806020018281038252602c815260200180612c39602c913960400191505060405180910390fd5b506000908152600460205260409020546001600160a01b031690565b6000610b5982610f5f565b9050806001600160a01b0316836001600160a01b03161415610bac5760405162461bcd60e51b8152600401808060200182810382526021815260200180612cbd6021913960400191505060405180910390fd5b806001600160a01b0316610bbe611969565b6001600160a01b03161480610bdf5750610bdf81610bda611969565b611928565b610c1a5760405162461bcd60e51b8152600401808060200182810382526038815260200180612b5c6038913960400191505060405180910390fd5b610c24838361196d565b505050565b6000610c3560026119db565b905090565b610c4b610c45611969565b826119e6565b610c865760405162461bcd60e51b8152600401808060200182810382526031815260200180612cde6031913960400191505060405180910390fd5b610c24838383611a8a565b6000908152600a602052604090206002015490565b6000828152600a6020526040902060020154610cc990610cc4611969565b611240565b610d045760405162461bcd60e51b815260040180806020018281038252602f815260200180612a7b602f913960400191505060405180910390fd5b610d0e8282611be8565b5050565b6001600160a01b0382166000908152600160205260408120610d3a908363ffffffff611c5716565b90505b92915050565b610d4b611969565b6001600160a01b0316816001600160a01b031614610d9a5760405162461bcd60e51b815260040180806020018281038252602f815260200180612d41602f913960400191505060405180910390fd5b610d0e8282611c63565b604080516c4d455441444154415f524f4c4560981b8152905190819003600d01902081565b60105460ff1690565b60105461010090046001600160a01b031681565b610c24838383604051806020016040528060008152506113c9565b604080516c4d455441444154415f524f4c4560981b8152905190819003600d019020610e2d9033611240565b610e72576040805162461bcd60e51b81526020600482015260116024820152704e4f54204d455441444154415f524f4c4560781b604482015290519081900360640190fd5b601054604051637c4d8f9b60e11b81523060048201818152606060248401908152606484018890526101009094046001600160a01b03169363f89b1f3693899289928992899291906044810190608401878780828437600083820152601f01601f191690910184810383528581526020019050858580828437600081840152601f19601f820116905080830192505050975050505050505050600060405180830381600087803b158015610f2557600080fd5b505af1158015610f39573d6000803e3d6000fd5b5050505050505050565b600080610f5760028463ffffffff611cd216565b509392505050565b6000610d3d82604051806060016040528060298152602001612bbe602991396002919063ffffffff611cee16565b604080516a4d494e5445525f524f4c4560a81b8152905190819003600b019020610fb79033611240565b610ffa576040805162461bcd60e51b815260206004820152600f60248201526e4e4f54204d494e5445525f524f4c4560881b604482015290519081900360640190fd5b600f805460010190819055611010908290611d05565b50565b60098054604080516020601f6002600019610100600188161502019095169490940493840181900481028201810190925282815260609390929091830182828015610ae15780601f10610ab657610100808354040283529160200191610ae1565b60006001600160a01b0382166110bb5760405162461bcd60e51b815260040180806020018281038252602a815260200180612b94602a913960400191505060405180910390fd5b6001600160a01b0382166000908152600160205260409020610d3d906119db565b60105460009060ff16156111215760405162461bcd60e51b8152600401808060200182810382526032815260200180612d0f6032913960400191505060405180910390fd5b6112128c8c8c8080601f016020809104026020016040519081016040528093929190818152602001838380828437600081840152601f19601f820116905080830192505050505050508b8b8080601f01602080910402602001604051908101604052809392919081815260200183838082843760009201919091525050604080516020601f8d018190048102820181019092528b81528e93508d9250908c908c908190840183828082843760009201919091525050604080516020601f8e018190048102820181019092528c815292508c91508b9081908401838280828437600092019190915250611e3f92505050565b9c9b505050505050505050505050565b6000828152600a60205260408120610d3a908363ffffffff611c5716565b6000828152600a60205260408120610d3a908363ffffffff611ff916565b600e8054604080516020601f6002600019610100600188161502019095169490940493840181900481028201810190925282815260609390929091830182828015610ae15780601f10610ab657610100808354040283529160200191610ae1565b600081565b6112cc611969565b6001600160a01b0316826001600160a01b03161415611332576040805162461bcd60e51b815260206004820152601960248201527f4552433732313a20617070726f766520746f2063616c6c657200000000000000604482015290519081900360640190fd5b806005600061133f611969565b6001600160a01b03908116825260208083019390935260409182016000908120918716808252919093529120805460ff191692151592909217909155611383611969565b60408051841515815290516001600160a01b0392909216917f17307eab39ab6107e8899845ad3d59bd9653f200f220920489ca2b5937696c319181900360200190a35050565b6113da6113d4611969565b836119e6565b6114155760405162461bcd60e51b8152600401808060200182810382526031815260200180612cde6031913960400191505060405180910390fd5b6114218484848461200e565b50505050565b604080516a4d494e5445525f524f4c4560a81b8152905190819003600b0190206000906114549033611240565b611497576040805162461bcd60e51b815260206004820152600f60248201526e4e4f54204d494e5445525f524f4c4560881b604482015290519081900360640190fd5b6000601160009054906101000a90046001600160a01b03166001600160a01b031663eb717c3f8b8b8b8b8b8b8b338c6040518a63ffffffff1660e01b815260040180806020018060200180602001878152602001866001600160a01b03166001600160a01b0316815260200185815260200184810384528d8d82818152602001925080828437600083820152601f01601f191690910185810384528b815260200190508b8b80828437600083820152601f01601f191690910185810383528981526020019050898980828437600081840152601f19601f8201169050808301925050509c50505050505050505050505050602060405180830381600087803b1580156115a257600080fd5b505af11580156115b6573d6000803e3d6000fd5b505050506040513d60208110156115cc57600080fd5b50516040519091506001600160a01b038216907f41039c8b82bb5a365f56b4f9d87cee99e069b450bfdc3d87696fcd87783f24c190600090a29998505050505050505050565b606061161d82611956565b6116585760405162461bcd60e51b815260040180806020018281038252602f815260200180612c8e602f913960400191505060405180910390fd5b60008281526008602090815260409182902080548351601f60026000196101006001861615020190931692909204918201849004840281018401909452808452606093928301828280156116ed5780601f106116c2576101008083540402835291602001916116ed565b820191906000526020600020905b8154815290600101906020018083116116d057829003601f168201915b5050505050905060606116fe611013565b905080516000141561171257509050610a50565b8151156117d35780826040516020018083805190602001908083835b6020831061174d5780518252601f19909201916020918201910161172e565b51815160209384036101000a600019018019909216911617905285519190930192850191508083835b602083106117955780518252601f199092019160209182019101611776565b6001836020036101000a0380198251168184511680821785525050505050509050019250505060405160208183030381529060405292505050610a50565b806117dd85612060565b6040516020018083805190602001908083835b6020831061180f5780518252601f1990920191602091820191016117f0565b51815160209384036101000a600019018019909216911617905285519190930192850191508083835b602083106118575780518252601f199092019160209182019101611838565b6001836020036101000a0380198251168184511680821785525050505050509050019250505060405160208183030381529060405292505050919050565b6000818152600a60205260408120610d3d906119db565b604080516a4d494e5445525f524f4c4560a81b8152905190819003600b01902081565b6000828152600a60205260409020600201546118ed90610cc4611969565b610d9a5760405162461bcd60e51b8152600401808060200182810382526030815260200180612b2c6030913960400191505060405180910390fd5b6001600160a01b03918216600090815260056020908152604080832093909416825291909152205460ff1690565b6000610d3d60028363ffffffff61213b16565b3390565b600081815260046020526040902080546001600160a01b0319166001600160a01b03841690811790915581906119a282610f5f565b6001600160a01b03167f8c5be1e5ebec7d5bd14f71427d1e84f3dd0314c0f7b2291e5b200ac8c7c3b92560405160405180910390a45050565b6000610d3d82612147565b60006119f182611956565b611a2c5760405162461bcd60e51b815260040180806020018281038252602c815260200180612b00602c913960400191505060405180910390fd5b6000611a3783610f5f565b9050806001600160a01b0316846001600160a01b03161480611a725750836001600160a01b0316611a6784610aec565b6001600160a01b0316145b80611a825750611a828185611928565b949350505050565b826001600160a01b0316611a9d82610f5f565b6001600160a01b031614611ae25760405162461bcd60e51b8152600401808060200182810382526029815260200180612c656029913960400191505060405180910390fd5b6001600160a01b038216611b275760405162461bcd60e51b8152600401808060200182810382526024815260200180612adc6024913960400191505060405180910390fd5b611b32838383610c24565b611b3d60008261196d565b6001600160a01b0383166000908152600160205260409020611b65908263ffffffff61214b16565b506001600160a01b0382166000908152600160205260409020611b8e908263ffffffff61215716565b50611ba16002828463ffffffff61216316565b5080826001600160a01b0316846001600160a01b03167fddf252ad1be2c89b69c2b068fc378daa952ba7f163c4a11628f55a4df523b3ef60405160405180910390a4505050565b6000828152600a60205260409020611c06908263ffffffff61217916565b15610d0e57611c13611969565b6001600160a01b0316816001600160a01b0316837f2f8788117e7eff1d82e926ec794901d17c78024a50270940304540a733656f0d60405160405180910390a45050565b6000610d3a838361218e565b6000828152600a60205260409020611c81908263ffffffff6121f216565b15610d0e57611c8e611969565b6001600160a01b0316816001600160a01b0316837ff6391f5c32d9c69d2a47ea670b442974b53935d1edc7fd64eb21e047a839171b60405160405180910390a45050565b6000808080611ce18686612207565b9097909650945050505050565b6000611cfb848484612282565b90505b9392505050565b6001600160a01b038216611d60576040805162461bcd60e51b815260206004820181905260248201527f4552433732313a206d696e7420746f20746865207a65726f2061646472657373604482015290519081900360640190fd5b611d6981611956565b15611dbb576040805162461bcd60e51b815260206004820152601c60248201527f4552433732313a20746f6b656e20616c7265616479206d696e74656400000000604482015290519081900360640190fd5b611dc760008383610c24565b6001600160a01b0382166000908152600160205260409020611def908263ffffffff61215716565b50611e026002828463ffffffff61216316565b5060405181906001600160a01b038416906000907fddf252ad1be2c89b69c2b068fc378daa952ba7f163c4a11628f55a4df523b3ef908290a45050565b60006001600160a01b038816611e865760405162461bcd60e51b8152600401808060200182810382526030815260200180612be76030913960400191505060405180910390fd5b6001600160a01b038516611ee1576040805162461bcd60e51b815260206004820152601f60248201527f4d6574616461746120616464726573732063616e6e6f74206265207a65726f00604482015290519081900360640190fd5b60108054610100600160a81b0319166101006001600160a01b03881602179055611f0c600089610d04565b604080516a4d494e5445525f524f4c4560a81b8152905190819003600b019020611f369089610d04565b604080516c4d455441444154415f524f4c4560981b8152905190819003600d019020611f629089610d04565b600b80546001600160a01b038a166001600160a01b03199182168117909255600c805490911690911790558651611fa090600d9060208a01906129c0565b508551611fb490600e9060208901906129c0565b50601180546001600160a01b0319166001600160a01b0386161790556010805460ff19166001179055611fe7828461234c565b5060105460ff16979650505050505050565b6000610d3a836001600160a01b0384166124ef565b612019848484611a8a565b61202584848484612507565b6114215760405162461bcd60e51b8152600401808060200182810382526032815260200180612aaa6032913960400191505060405180910390fd5b60608161208557506040805180820190915260018152600360fc1b6020820152610a50565b8160005b811561209d57600101600a82049150612089565b60608167ffffffffffffffff811180156120b657600080fd5b506040519080825280601f01601f1916602001820160405280156120e1576020820181803683370190505b50859350905060001982015b831561213257600a840660300160f81b8282806001900393508151811061211057fe5b60200101906001600160f81b031916908160001a905350600a840493506120ed565b50949350505050565b6000610d3a83836124ef565b5490565b6000610d3a8383612687565b6000610d3a838361274d565b6000611cfb84846001600160a01b038516612797565b6000610d3a836001600160a01b03841661274d565b815460009082106121d05760405162461bcd60e51b8152600401808060200182810382526022815260200180612a596022913960400191505060405180910390fd5b8260000182815481106121df57fe5b9060005260206000200154905092915050565b6000610d3a836001600160a01b038416612687565b81546000908190831061224b5760405162461bcd60e51b8152600401808060200182810382526022815260200180612c176022913960400191505060405180910390fd5b600084600001848154811061225c57fe5b906000526020600020906002020190508060000154816001015492509250509250929050565b6000828152600184016020526040812054828161231d5760405162461bcd60e51b81526004018080602001828103825283818151815260200191508051906020019080838360005b838110156122e25781810151838201526020016122ca565b50505050905090810190601f16801561230f5780820380516001836020036101000a031916815260200191505b509250505060405180910390fd5b5084600001600182038154811061233057fe5b9060005260206000209060020201600101549150509392505050565b60105461010090046001600160a01b03166123ae576040805162461bcd60e51b815260206004820152601860248201527f496e76616c6964204d6574616461746120616464726573730000000000000000604482015290519081900360640190fd5b60105460405163209d0e0560e21b815230600482018181526060602484019081528651606485015286516101009095046001600160a01b03169463827438149488938893909290916044810191608490910190602087019080838360005b8381101561242457818101518382015260200161240c565b50505050905090810190601f1680156124515780820380516001836020036101000a031916815260200191505b50838103825284518152845160209182019186019080838360005b8381101561248457818101518382015260200161246c565b50505050905090810190601f1680156124b15780820380516001836020036101000a031916815260200191505b5095505050505050600060405180830381600087803b1580156124d357600080fd5b505af11580156124e7573d6000803e3d6000fd5b505050505050565b60009081526001919091016020526040902054151590565b600061251b846001600160a01b031661282e565b61252757506001611a82565b606061264d630a85bd0160e11b61253c611969565b88878760405160240180856001600160a01b03166001600160a01b03168152602001846001600160a01b03166001600160a01b0316815260200183815260200180602001828103825283818151815260200191508051906020019080838360005b838110156125b557818101518382015260200161259d565b50505050905090810190601f1680156125e25780820380516001836020036101000a031916815260200191505b5095505050505050604051602081830303815290604052906001600160e01b0319166020820180516001600160e01b038381831617835250505050604051806060016040528060328152602001612aaa603291396001600160a01b038816919063ffffffff61283416565b9050600081806020019051602081101561266657600080fd5b50516001600160e01b031916630a85bd0160e11b1492505050949350505050565b6000818152600183016020526040812054801561274357835460001980830191908101906000908790839081106126ba57fe5b90600052602060002001549050808760000184815481106126d757fe5b60009182526020808320909101929092558281526001898101909252604090209084019055865487908061270757fe5b60019003818190600052602060002001600090559055866001016000878152602001908152602001600020600090556001945050505050610d3d565b6000915050610d3d565b600061275983836124ef565b61278f57508154600181810184556000848152602080822090930184905584548482528286019093526040902091909155610d3d565b506000610d3d565b6000828152600184016020526040812054806127fc575050604080518082018252838152602080820184815286546001818101895560008981528481209551600290930290950191825591519082015586548684528188019092529290912055611cfe565b8285600001600183038154811061280f57fe5b9060005260206000209060020201600101819055506000915050611cfe565b3b151590565b6060611cfb8484600085856128488561282e565b612899576040805162461bcd60e51b815260206004820152601d60248201527f416464726573733a2063616c6c20746f206e6f6e2d636f6e7472616374000000604482015290519081900360640190fd5b60006060866001600160a01b031685876040518082805190602001908083835b602083106128d85780518252601f1990920191602091820191016128b9565b6001836020036101000a03801982511681845116808217855250505050505090500191505060006040518083038185875af1925050503d806000811461293a576040519150601f19603f3d011682016040523d82523d6000602084013e61293f565b606091505b509150915061294f82828661295a565b979650505050505050565b60608315612969575081611cfe565b8251156129795782518084602001fd5b60405162461bcd60e51b81526020600482018181528451602484015284518593919283926044019190850190808383600083156122e25781810151838201526020016122ca565b828054600181600116156101000203166002900490600052602060002090601f016020900481019282601f10612a0157805160ff1916838001178555612a2e565b82800160010185558215612a2e579182015b82811115612a2e578251825591602001919060010190612a13565b50612a3a929150612a3e565b5090565b610ae991905b80821115612a3a5760008155600101612a4456fe456e756d657261626c655365743a20696e646578206f7574206f6620626f756e6473416363657373436f6e74726f6c3a2073656e646572206d75737420626520616e2061646d696e20746f206772616e744552433732313a207472616e7366657220746f206e6f6e20455243373231526563656976657220696d706c656d656e7465724552433732313a207472616e7366657220746f20746865207a65726f20616464726573734552433732313a206f70657261746f7220717565727920666f72206e6f6e6578697374656e7420746f6b656e416363657373436f6e74726f6c3a2073656e646572206d75737420626520616e2061646d696e20746f207265766f6b654552433732313a20617070726f76652063616c6c6572206973206e6f74206f776e6572206e6f7220617070726f76656420666f7220616c6c4552433732313a2062616c616e636520717565727920666f7220746865207a65726f20616464726573734552433732313a206f776e657220717565727920666f72206e6f6e6578697374656e7420746f6b656e44617461546f6b656e54656d706c6174653a20496e76616c6964206d696e7465722c20207a65726f2061646472657373456e756d657261626c654d61703a20696e646578206f7574206f6620626f756e64734552433732313a20617070726f76656420717565727920666f72206e6f6e6578697374656e7420746f6b656e4552433732313a207472616e73666572206f6620746f6b656e2074686174206973206e6f74206f776e4552433732314d657461646174613a2055524920717565727920666f72206e6f6e6578697374656e7420746f6b656e4552433732313a20617070726f76616c20746f2063757272656e74206f776e65724552433732313a207472616e736665722063616c6c6572206973206e6f74206f776e6572206e6f7220617070726f76656445524337323154656d706c6174653a20746f6b656e20696e7374616e636520616c726561647920696e697469616c697a6564416363657373436f6e74726f6c3a2063616e206f6e6c792072656e6f756e636520726f6c657320666f722073656c66a26469706673582212203beb9f45d6d06ee0cdfcc282188b41960fe3976c4f4ee694151bedb3de702e5264736f6c63430006060033",
  "immutableReferences": {},
  "source": "pragma solidity >=0.6.0;\n\nimport \"@openzeppelin/contracts/token/ERC721/ERC721.sol\";\nimport \"@openzeppelin/contracts/access/AccessControl.sol\";\nimport \"../interfaces/IMetadata.sol\";\nimport \"../interfaces/IERC20Factory.sol\";\n\ncontract ERC721Template is ERC721, AccessControl {\n    address private paymentCollector;\n    address private ipHolder;\n    bytes32 public constant MINTER_ROLE = keccak256(\"MINTER_ROLE\");\n    bytes32 public constant METADATA_ROLE = keccak256(\"METADATA_ROLE\");\n\n   \n    string private _name;\n    string private _symbol;\n    uint256 private tokenId = 1;\n    bool private initialized;\n    address public _metadata;\n    address private _erc20Factory;\n    \n    event ERC20Created(address indexed erc20Address);\n\n    modifier onlyNotInitialized() {\n        require(\n            !initialized,\n            \"ERC721Template: token instance already initialized\"\n        );\n        _;\n    }\n\n    constructor(\n        string memory name,\n        string memory symbol,\n        address admin,\n        address metadata,\n        address erc20Factory,\n        bytes memory _data,\n        bytes memory flags\n    ) public ERC721(name, symbol) {\n      //  _metadata = metadata;\n      // _initialize(admin, name, symbol,metadata,erc20Factory,_data,flags);\n        \n    }\n\n    function initialize(\n        address admin,\n        string calldata name,\n        string calldata symbol,\n        address metadata,\n        address erc20Factory,\n        bytes calldata _data,\n        bytes calldata flags\n    ) external onlyNotInitialized returns (bool) {\n        return _initialize(admin, name, symbol,metadata,erc20Factory,_data,flags);\n    }\n\n    function _initialize(\n        address admin,\n        string memory name,\n        string memory symbol,\n        address metadata,\n        address erc20Factory,\n        bytes memory _data,\n        bytes memory flags\n    ) private returns (bool) {\n        require(\n            admin != address(0),\n            \"DataTokenTemplate: Invalid minter,  zero address\"\n        );\n        require(metadata != address(0), \"Metadata address cannot be zero\");\n        _metadata = metadata;\n        _setupRole(DEFAULT_ADMIN_ROLE, admin);\n        _setupRole(MINTER_ROLE, admin);\n        _setupRole(METADATA_ROLE, admin);\n        paymentCollector = admin;\n        ipHolder = admin;\n        _name = name;\n        _symbol = symbol;\n        _erc20Factory = erc20Factory;\n        initialized = true;\n        _createMetadata(flags, _data);\n        return initialized;\n        \n    }\n\n    function mint(address account) external {\n        require(hasRole(MINTER_ROLE, msg.sender), \"NOT MINTER_ROLE\");\n        tokenId += 1;\n        _mint(account, tokenId);\n    }\n\n    function _createMetadata(bytes memory flags, bytes memory data) internal {\n       // require(hasRole(METADATA_ROLE, msg.sender), \"NOT METADATA_ROLE\");\n        require(_metadata != address(0), \"Invalid Metadata address\");\n\n        IMetadata(_metadata).create(address(this), flags, data);\n    }\n\n    function updateMetadata(bytes calldata flags, bytes calldata data) external {\n        require(hasRole(METADATA_ROLE, msg.sender), \"NOT METADATA_ROLE\");\n        IMetadata(_metadata).update(address(this), flags, data);\n    }\n\n    function createERC20( string calldata blob, string calldata name, string calldata symbol, uint256 cap,uint256 templateIndex) external returns (address) {\n        require(hasRole(MINTER_ROLE, msg.sender), \"NOT MINTER_ROLE\");\n     \n        \n        address token = IERC20Factory(_erc20Factory).createToken(blob,name,symbol,cap,msg.sender,templateIndex); // already checked when creating a new ERC20 in ERC20Factory, could be removerd\n      \n\n\n        //FOR TEST PURPOSE BUT COULD BE COMPLETED OR REMOVED\n        emit ERC20Created(token);\n\n        return token;\n    }\n    /**\n     * @dev name\n     *      It returns the token name.\n     * @return DataToken name.\n     */\n    function name() public view override returns (string memory) {\n        return _name;\n    }\n\n    /**\n     * @dev symbol\n     *      It returns the token symbol.\n     * @return DataToken symbol.\n     */\n    function symbol() public view override returns (string memory) {\n        return _symbol;\n    }\n\n    function isInitialized() public view returns (bool) {\n        return initialized;\n    }\n}\n",
  "sourcePath": "/home/andrea/ocean/v4/contracts/templates/ERC721Template.sol",
  "compiler": {
    "name": "solc",
    "version": "0.6.6+commit.6c089d02.Emscripten.clang"
  },
  "schemaVersion": "3.2.4",
  "updatedAt": "2021-04-20T17:43:36.845Z",
  "devdoc": {
    "methods": {
      "approve(address,uint256)": {
        "details": "See {IERC721-approve}."
      },
      "balanceOf(address)": {
        "details": "See {IERC721-balanceOf}."
      },
      "baseURI()": {
        "details": "Returns the base URI set via {_setBaseURI}. This will be automatically added as a prefix in {tokenURI} to each token's URI, or to the token ID if no specific URI is set for that token ID."
      },
      "getApproved(uint256)": {
        "details": "See {IERC721-getApproved}."
      },
      "getRoleAdmin(bytes32)": {
        "details": "Returns the admin role that controls `role`. See {grantRole} and {revokeRole}.     * To change a role's admin, use {_setRoleAdmin}."
      },
      "getRoleMember(bytes32,uint256)": {
        "details": "Returns one of the accounts that have `role`. `index` must be a value between 0 and {getRoleMemberCount}, non-inclusive.     * Role bearers are not sorted in any particular way, and their ordering may change at any point.     * WARNING: When using {getRoleMember} and {getRoleMemberCount}, make sure you perform all queries on the same block. See the following https://forum.openzeppelin.com/t/iterating-over-elements-on-enumerableset-in-openzeppelin-contracts/2296[forum post] for more information."
      },
      "getRoleMemberCount(bytes32)": {
        "details": "Returns the number of accounts that have `role`. Can be used together with {getRoleMember} to enumerate all bearers of a role."
      },
      "grantRole(bytes32,address)": {
        "details": "Grants `role` to `account`.     * If `account` had not been already granted `role`, emits a {RoleGranted} event.     * Requirements:     * - the caller must have ``role``'s admin role."
      },
      "hasRole(bytes32,address)": {
        "details": "Returns `true` if `account` has been granted `role`."
      },
      "isApprovedForAll(address,address)": {
        "details": "See {IERC721-isApprovedForAll}."
      },
      "name()": {
        "details": "name     It returns the token name.",
        "returns": {
          "_0": "DataToken name."
        }
      },
      "ownerOf(uint256)": {
        "details": "See {IERC721-ownerOf}."
      },
      "renounceRole(bytes32,address)": {
        "details": "Revokes `role` from the calling account.     * Roles are often managed via {grantRole} and {revokeRole}: this function's purpose is to provide a mechanism for accounts to lose their privileges if they are compromised (such as when a trusted device is misplaced).     * If the calling account had been granted `role`, emits a {RoleRevoked} event.     * Requirements:     * - the caller must be `account`."
      },
      "revokeRole(bytes32,address)": {
        "details": "Revokes `role` from `account`.     * If `account` had been granted `role`, emits a {RoleRevoked} event.     * Requirements:     * - the caller must have ``role``'s admin role."
      },
      "safeTransferFrom(address,address,uint256)": {
        "details": "See {IERC721-safeTransferFrom}."
      },
      "safeTransferFrom(address,address,uint256,bytes)": {
        "details": "See {IERC721-safeTransferFrom}."
      },
      "setApprovalForAll(address,bool)": {
        "details": "See {IERC721-setApprovalForAll}."
      },
      "supportsInterface(bytes4)": {
        "details": "See {IERC165-supportsInterface}.     * Time complexity O(1), guaranteed to always use less than 30 000 gas."
      },
      "symbol()": {
        "details": "symbol     It returns the token symbol.",
        "returns": {
          "_0": "DataToken symbol."
        }
      },
      "tokenByIndex(uint256)": {
        "details": "See {IERC721Enumerable-tokenByIndex}."
      },
      "tokenOfOwnerByIndex(address,uint256)": {
        "details": "See {IERC721Enumerable-tokenOfOwnerByIndex}."
      },
      "tokenURI(uint256)": {
        "details": "See {IERC721Metadata-tokenURI}."
      },
      "totalSupply()": {
        "details": "See {IERC721Enumerable-totalSupply}."
      },
      "transferFrom(address,address,uint256)": {
        "details": "See {IERC721-transferFrom}."
      }
    }
  },
  "userdoc": {
    "methods": {}
  }
}