{
  "contractName": "Metadata",
  "abi": [
    {
      "anonymous": false,
      "inputs": [
        {
          "indexed": true,
          "internalType": "address",
          "name": "dataToken",
          "type": "address"
        },
        {
          "indexed": true,
          "internalType": "address",
          "name": "createdBy",
          "type": "address"
        },
        {
          "indexed": false,
          "internalType": "bytes",
          "name": "flags",
          "type": "bytes"
        },
        {
          "indexed": false,
          "internalType": "bytes",
          "name": "data",
          "type": "bytes"
        }
      ],
      "name": "MetadataCreated",
      "type": "event"
    },
    {
      "anonymous": false,
      "inputs": [
        {
          "indexed": true,
          "internalType": "address",
          "name": "dataToken",
          "type": "address"
        },
        {
          "indexed": true,
          "internalType": "address",
          "name": "updatedBy",
          "type": "address"
        },
        {
          "indexed": false,
          "internalType": "bytes",
          "name": "flags",
          "type": "bytes"
        },
        {
          "indexed": false,
          "internalType": "bytes",
          "name": "data",
          "type": "bytes"
        }
      ],
      "name": "MetadataUpdated",
      "type": "event"
    },
    {
      "inputs": [
        {
          "internalType": "address",
          "name": "dataToken",
          "type": "address"
        },
        {
          "internalType": "bytes",
          "name": "flags",
          "type": "bytes"
        },
        {
          "internalType": "bytes",
          "name": "data",
          "type": "bytes"
        }
      ],
      "name": "create",
      "outputs": [],
      "stateMutability": "nonpayable",
      "type": "function"
    },
    {
      "inputs": [
        {
          "internalType": "address",
          "name": "dataToken",
          "type": "address"
        },
        {
          "internalType": "bytes",
          "name": "flags",
          "type": "bytes"
        },
        {
          "internalType": "bytes",
          "name": "data",
          "type": "bytes"
        }
      ],
      "name": "update",
      "outputs": [],
      "stateMutability": "nonpayable",
      "type": "function"
    }
  ],
  "bytecode": "0x608060405234801561001057600080fd5b506104ac806100206000396000f3fe608060405234801561001057600080fd5b50600436106100365760003560e01c8063827438141461003b578063f89b1f361461010b575b600080fd5b6101096004803603606081101561005157600080fd5b6001600160a01b038235169190810190604081016020820135600160201b81111561007b57600080fd5b82018360208201111561008d57600080fd5b803590602001918460018302840111600160201b831117156100ae57600080fd5b919390929091602081019035600160201b8111156100cb57600080fd5b8201836020820111156100dd57600080fd5b803590602001918460018302840111600160201b831117156100fe57600080fd5b5090925090506101d9565b005b6101096004803603606081101561012157600080fd5b6001600160a01b038235169190810190604081016020820135600160201b81111561014b57600080fd5b82018360208201111561015d57600080fd5b803590602001918460018302840111600160201b8311171561017e57600080fd5b919390929091602081019035600160201b81111561019b57600080fd5b8201836020820111156101ad57600080fd5b803590602001918460018302840111600160201b831117156101ce57600080fd5b509092509050610313565b846101e38161044e565b610223576040805162461bcd60e51b815260206004820152600c60248201526b1393d50810d3d395149050d560a21b604482015290519081900360640190fd5b806001600160a01b038116331461026b5760405162461bcd60e51b81526004018080602001828103825260228152602001806104556022913960400191505060405180910390fd5b336001600160a01b0316876001600160a01b03167ee7283fcf5726344ed567dc39b1822ff824bc90f96c137b622781d3570b81ef888888886040518080602001806020018381038352878782818152602001925080828437600083820152601f01601f191690910184810383528581526020019050858580828437600083820152604051601f909101601f19169092018290039850909650505050505050a350505050505050565b8461031d8161044e565b61035d576040805162461bcd60e51b815260206004820152600c60248201526b1393d50810d3d395149050d560a21b604482015290519081900360640190fd5b806001600160a01b03811633146103a55760405162461bcd60e51b81526004018080602001828103825260228152602001806104556022913960400191505060405180910390fd5b336001600160a01b0316876001600160a01b03167fb8c028de5d50845d8e50bbc36728f4e9d523e16a1a431a299e8b216c7b2f5584888888886040518080602001806020018381038352878782818152602001925080828437600083820152601f01601f191690910184810383528581526020019050858580828437600083820152604051601f909101601f19169092018290039850909650505050505050a350505050505050565b3b15159056fe4d657461646174613a20496e76616c69642044617461546f6b656e204d696e746572a2646970667358221220b8e0f8c321d8d7183b58a399144cb235a2ec6dac76328372bdf2fdc4731a760f64736f6c63430006060033",
  "immutableReferences": {},
  "source": "pragma solidity >=0.6.0;\n// Copyright BigchainDB GmbH and Ocean Protocol contributors\n// SPDX-License-Identifier: (Apache-2.0 AND CC-BY-4.0)\n// Code is Apache-2.0 and docs are CC-BY-4.0\n\nimport '../interfaces/IERC721Template.sol';\n\n\n/**\n* @title Metadata\n*  \n* @dev Metadata stands for Decentralized Document. It allows publishers\n*      to publish their dataset metadata in decentralized way.\n*      It follows the Ocean DID Document standard: \n*      https://github.com/oceanprotocol/OEPs/blob/master/7/v0.2/README.md\n*/\ncontract Metadata {\n\n    event MetadataCreated(\n        address indexed dataToken,\n        address indexed createdBy,\n        bytes flags,\n        bytes data\n    );\n    event MetadataUpdated(\n        address indexed dataToken,\n        address indexed updatedBy,\n        bytes flags,\n        bytes data\n    );\n\n    modifier onlyDataTokenMinter(address dataToken)\n    {   \n        require(_isContract(dataToken),'NOT CONTRACT');\n\n        IERC721Template token = IERC721Template(dataToken);\n        require(\n            address(token) == msg.sender,\n            'Metadata: Invalid DataToken Minter'\n        );\n        _;\n    }\n\n    /**\n     * @dev create\n     *      creates/publishes new metadata/DDO document on-chain. \n     * @param dataToken refers to data token address\n     * @param flags special flags associated with metadata\n     * @param data referes to the actual metadata\n     */\n    function create(\n        address dataToken,\n        bytes calldata flags,\n        bytes calldata data\n    ) \n        external\n        onlyDataTokenMinter(dataToken)\n    {\n        emit MetadataCreated(\n            dataToken,\n            msg.sender,\n            flags,\n            data\n        );\n    }\n\n    /**\n     * @dev update\n     *      allows only datatoken minter(s) to update the DDO/metadata content\n     * @param dataToken refers to data token address\n     * @param flags special flags associated with metadata\n     * @param data referes to the actual metadata\n     */\n    function update(\n        address dataToken,\n        bytes calldata flags,\n        bytes calldata data\n    ) \n        external\n        onlyDataTokenMinter(dataToken)\n    {\n        emit MetadataUpdated(\n            dataToken,\n            msg.sender,\n            flags,\n            data\n        );\n    }\n\n        /**\n     * @dev Internal function if address is contract\n     */\n    function _isContract(address address_) internal view returns (bool) {\n        uint256 size;\n        assembly { size := extcodesize(address_) }\n        return size > 0;\n    }\n}",
  "sourcePath": "/home/andrea/ocean/v4/contracts/metadata/Metadata.sol",
  "compiler": {
    "name": "solc",
    "version": "0.6.6+commit.6c089d02.Emscripten.clang"
  },
  "schemaVersion": "3.2.4",
  "updatedAt": "2021-04-20T17:52:10.888Z",
  "devdoc": {
    "details": "Metadata stands for Decentralized Document. It allows publishers     to publish their dataset metadata in decentralized way.     It follows the Ocean DID Document standard:      https://github.com/oceanprotocol/OEPs/blob/master/7/v0.2/README.md",
    "methods": {
      "create(address,bytes,bytes)": {
        "details": "create     creates/publishes new metadata/DDO document on-chain. ",
        "params": {
          "data": "referes to the actual metadata",
          "dataToken": "refers to data token address",
          "flags": "special flags associated with metadata"
        }
      },
      "update(address,bytes,bytes)": {
        "details": "update     allows only datatoken minter(s) to update the DDO/metadata content",
        "params": {
          "data": "referes to the actual metadata",
          "dataToken": "refers to data token address",
          "flags": "special flags associated with metadata"
        }
      }
    },
    "title": "Metadata "
  },
  "userdoc": {
    "methods": {}
  }
}