{
  "contractName": "Metadata",
  "abi": [
    {
      "anonymous": false,
      "inputs": [
        {
          "indexed": true,
          "internalType": "address",
          "name": "dataToken",
          "type": "address"
        },
        {
          "indexed": true,
          "internalType": "address",
          "name": "createdBy",
          "type": "address"
        },
        {
          "indexed": false,
          "internalType": "bytes",
          "name": "flags",
          "type": "bytes"
        },
        {
          "indexed": false,
          "internalType": "bytes",
          "name": "data",
          "type": "bytes"
        }
      ],
      "name": "MetadataCreated",
      "type": "event"
    },
    {
      "anonymous": false,
      "inputs": [
        {
          "indexed": true,
          "internalType": "address",
          "name": "dataToken",
          "type": "address"
        },
        {
          "indexed": true,
          "internalType": "address",
          "name": "updatedBy",
          "type": "address"
        },
        {
          "indexed": false,
          "internalType": "bytes",
          "name": "flags",
          "type": "bytes"
        },
        {
          "indexed": false,
          "internalType": "bytes",
          "name": "data",
          "type": "bytes"
        }
      ],
      "name": "MetadataUpdated",
      "type": "event"
    },
    {
      "inputs": [
        {
          "internalType": "address",
          "name": "dataToken",
          "type": "address"
        },
        {
          "internalType": "bytes",
          "name": "flags",
          "type": "bytes"
        },
        {
          "internalType": "bytes",
          "name": "data",
          "type": "bytes"
        }
      ],
      "name": "create",
      "outputs": [],
      "stateMutability": "nonpayable",
      "type": "function"
    },
    {
      "inputs": [
        {
          "internalType": "address",
          "name": "dataToken",
          "type": "address"
        },
        {
          "internalType": "bytes",
          "name": "flags",
          "type": "bytes"
        },
        {
          "internalType": "bytes",
          "name": "data",
          "type": "bytes"
        }
      ],
      "name": "update",
      "outputs": [],
      "stateMutability": "nonpayable",
      "type": "function"
    }
  ],
  "bytecode": "0x608060405234801561001057600080fd5b5061061e806100206000396000f3fe608060405234801561001057600080fd5b50600436106100365760003560e01c8063827438141461003b578063f89b1f3614610129575b600080fd5b6101276004803603606081101561005157600080fd5b81019080803573ffffffffffffffffffffffffffffffffffffffff1690602001909291908035906020019064010000000081111561008e57600080fd5b8201836020820111156100a057600080fd5b803590602001918460018302840111640100000000831117156100c257600080fd5b9091929391929390803590602001906401000000008111156100e357600080fd5b8201836020820111156100f557600080fd5b8035906020019184600183028401116401000000008311171561011757600080fd5b9091929391929390505050610217565b005b6102156004803603606081101561013f57600080fd5b81019080803573ffffffffffffffffffffffffffffffffffffffff1690602001909291908035906020019064010000000081111561017c57600080fd5b82018360208201111561018e57600080fd5b803590602001918460018302840111640100000000831117156101b057600080fd5b9091929391929390803590602001906401000000008111156101d157600080fd5b8201836020820111156101e357600080fd5b8035906020019184600183028401116401000000008311171561020557600080fd5b90919293919293905050506103ee565b005b8460008190503373ffffffffffffffffffffffffffffffffffffffff168173ffffffffffffffffffffffffffffffffffffffff1663075461726040518163ffffffff1660e01b815260040160206040518083038186803b15801561027a57600080fd5b505afa15801561028e573d6000803e3d6000fd5b505050506040513d60208110156102a457600080fd5b810190808051906020019092919050505073ffffffffffffffffffffffffffffffffffffffff1614610321576040517f08c379a00000000000000000000000000000000000000000000000000000000081526004018080602001828103825260228152602001806105c76022913960400191505060405180910390fd5b3373ffffffffffffffffffffffffffffffffffffffff168773ffffffffffffffffffffffffffffffffffffffff167ee7283fcf5726344ed567dc39b1822ff824bc90f96c137b622781d3570b81ef888888886040518080602001806020018381038352878782818152602001925080828437600081840152601f19601f8201169050808301925050508381038252858582818152602001925080828437600081840152601f19601f820116905080830192505050965050505050505060405180910390a350505050505050565b8460008190503373ffffffffffffffffffffffffffffffffffffffff168173ffffffffffffffffffffffffffffffffffffffff1663075461726040518163ffffffff1660e01b815260040160206040518083038186803b15801561045157600080fd5b505afa158015610465573d6000803e3d6000fd5b505050506040513d602081101561047b57600080fd5b810190808051906020019092919050505073ffffffffffffffffffffffffffffffffffffffff16146104f8576040517f08c379a00000000000000000000000000000000000000000000000000000000081526004018080602001828103825260228152602001806105c76022913960400191505060405180910390fd5b3373ffffffffffffffffffffffffffffffffffffffff168773ffffffffffffffffffffffffffffffffffffffff167fb8c028de5d50845d8e50bbc36728f4e9d523e16a1a431a299e8b216c7b2f5584888888886040518080602001806020018381038352878782818152602001925080828437600081840152601f19601f8201169050808301925050508381038252858582818152602001925080828437600081840152601f19601f820116905080830192505050965050505050505060405180910390a35050505050505056fe4d657461646174613a20496e76616c69642044617461546f6b656e204d696e746572a264697066735822122013aea20383ea630adc0b6f5566448dd16bfb52836a3de5c688d0f876419d9b5064736f6c63430006060033",
  "immutableReferences": {},
  "source": "pragma solidity >=0.6.0;\n// Copyright BigchainDB GmbH and Ocean Protocol contributors\n// SPDX-License-Identifier: (Apache-2.0 AND CC-BY-4.0)\n// Code is Apache-2.0 and docs are CC-BY-4.0\n\nimport '../interfaces/IERC20Template.sol';\n\n\n/**\n* @title Metadata\n*  \n* @dev Metadata stands for Decentralized Document. It allows publishers\n*      to publish their dataset metadata in decentralized way.\n*      It follows the Ocean DID Document standard: \n*      https://github.com/oceanprotocol/OEPs/blob/master/7/v0.2/README.md\n*/\ncontract Metadata {\n\n    event MetadataCreated(\n        address indexed dataToken,\n        address indexed createdBy,\n        bytes flags,\n        bytes data\n    );\n    event MetadataUpdated(\n        address indexed dataToken,\n        address indexed updatedBy,\n        bytes flags,\n        bytes data\n    );\n\n    modifier onlyDataTokenMinter(address dataToken)\n    {\n        IERC20Template token = IERC20Template(dataToken);\n        require(\n            token.minter() == msg.sender,\n            'Metadata: Invalid DataToken Minter'\n        );\n        _;\n    }\n\n    /**\n     * @dev create\n     *      creates/publishes new metadata/DDO document on-chain. \n     * @param dataToken refers to data token address\n     * @param flags special flags associated with metadata\n     * @param data referes to the actual metadata\n     */\n    function create(\n        address dataToken,\n        bytes calldata flags,\n        bytes calldata data\n    ) \n        external\n        onlyDataTokenMinter(dataToken)\n    {\n        emit MetadataCreated(\n            dataToken,\n            msg.sender,\n            flags,\n            data\n        );\n    }\n\n    /**\n     * @dev update\n     *      allows only datatoken minter(s) to update the DDO/metadata content\n     * @param dataToken refers to data token address\n     * @param flags special flags associated with metadata\n     * @param data referes to the actual metadata\n     */\n    function update(\n        address dataToken,\n        bytes calldata flags,\n        bytes calldata data\n    ) \n        external\n        onlyDataTokenMinter(dataToken)\n    {\n        emit MetadataUpdated(\n            dataToken,\n            msg.sender,\n            flags,\n            data\n        );\n    }\n}",
  "sourcePath": "/home/andrea/ocean/v4/contracts/metadata/Metadata.sol",
  "compiler": {
    "name": "solc",
    "version": "0.6.6+commit.6c089d02.Emscripten.clang"
  },
  "schemaVersion": "3.2.4",
  "updatedAt": "2021-04-16T16:48:50.229Z",
  "devdoc": {
    "details": "Metadata stands for Decentralized Document. It allows publishers     to publish their dataset metadata in decentralized way.     It follows the Ocean DID Document standard:      https://github.com/oceanprotocol/OEPs/blob/master/7/v0.2/README.md",
    "methods": {
      "create(address,bytes,bytes)": {
        "details": "create     creates/publishes new metadata/DDO document on-chain. ",
        "params": {
          "data": "referes to the actual metadata",
          "dataToken": "refers to data token address",
          "flags": "special flags associated with metadata"
        }
      },
      "update(address,bytes,bytes)": {
        "details": "update     allows only datatoken minter(s) to update the DDO/metadata content",
        "params": {
          "data": "referes to the actual metadata",
          "dataToken": "refers to data token address",
          "flags": "special flags associated with metadata"
        }
      }
    },
    "title": "Metadata "
  },
  "userdoc": {
    "methods": {}
  }
}